:040000009AEF08F07B
:101000000000010210022800026E0250F00B016E77
:101010008C500F0B8C6E01508C108C6E000EF2BE3B
:10102000010E066EF29E8C86530EE82EFED700F05F
:101030008C96C80E00D0E82EFDD706B002D0F29EE6
:1010400001D0F28E0238F00B026E0250F00B016EEE
:101050008C500F0B8C6E01508C108C6E000EF2BEFB
:10106000010E066EF29E8C86530EE82EFED700F01F
:101070008C96C80E00D0E82EFDD706B002D0F29EA6
:1010800001D0F28E1200000E896E000E8A6E000EE4
:101090008B6E000E8C6E000E8D6E000E926E000E2A
:1010A000936E000E946E000E956E000E966E000EFE
:1010B000C26E0F0EC16E928074EC08F080A002D058
:1010C000010E01D0000E300F076E800EAEEC08F05E
:1010D000410E056EEE0EE82EFED7052EFCD700D091
:1010E0000750A4EC08F0EAD7C30E046ECD0EE82E2C
:1010F000FED7042EFCD700F0330EAEEC08F0320E13
:10110000AEEC08F0280EAEEC08F00F0EAEEC08F0D6
:10111000060EAEEC08F0010EAEEC08F0C30E046E45
:10112000CD0EE82EFED7042EFCD700F00F0EAEEC4D
:1011300008F01200086A076A066A000EF86E100EC0
:10114000F76E000143EF08F0036E8C84035004EC4B
:1011500008F0C80E00D0E82EFDD71200036E8C9464
:10116000035004EC08F0C80E00D0E82EFDD71200A2
:020000040020DA
:08000000FFFFFFFFFFFFFFFF00
:020000040030CA
:0E000000FF061F1EFF8381FF0F400FE00F4021
:00000001FF
