:0400000047EF09F0CD
:10100000003132334134353642373839432A3023C0
:0910100044000001021002280056
:10101A00000E896E000E8A6E000E8B6E000E8C6EAC
:10102A00000E8D6E92689368800E946E000E956E17
:10103A00000E966E000EC26E0F0EC16E21EC09F004
:10104A00A00E0E6E860E0F6E010E106E000E116E41
:10105A00F3EC08F06DEC09F0000E036E100E026E50
:10106A0064EC09F069EC09F0000E186E1B806DEC57
:10107A0009F0000E036E100E026E64EC09F0000E09
:10108A00036E310E026E64EC09F069EC09F0330E5E
:10109A00176EBB0E166EE00EE82EFED7162EFCD784
:1010AA00172EFAD76DEC09F0000E036E100E026EC1
:1010BA0064EC09F0000E036E320E026E64EC09F065
:1010CA0069EC09F0330E176EBB0E166EE00EE82EB1
:1010DA00FED7162EFCD7172EFAD7C9D7000E096EDF
:1010EA00000E0A6E000E0B6E000E0C6E05500610F6
:1010FA0007100810D8B42AD0010E0D6E06D0D89069
:10110A0005360636073608360D2A08AEF8D7D890BF
:10111A0009360A360B360C360550015C0650025861
:10112A000750035808500458D8A009D00550015E4A
:10113A000650025A0750035A0850045A0980D89098
:10114A0008320732063205320D2EE1D709C001F006
:10115A000AC002F00BC003F00CC004F01200026EC9
:10116A000250F00B016E8C500F0B8C6E01508C10DC
:10117A008C6E000EF2BE010E196EF29E8C86530E14
:10118A00E82EFED700F08C96C80E00D0E82EFDD7C8
:10119A0019B002D0F29E01D0F28E0238F00B026E24
:1011AA000250F00B016E8C500F0B8C6E01508C109C
:1011BA008C6E000EF2BE010E196EF29E8C86530ED4
:1011CA00E82EFED700F08C96C80E00D0E82EFDD788
:1011DA0019B002D0F29E01D0F28E1200C69A9486FD
:1011EA009488800EC76E280EC66E000EC56E000E5D
:1011FA00016E5A0E026E620E036E020E046E0EC06D
:10120A0012F00FC013F010C014F011C015F0020E46
:10121A00D8901236133614361536E82EF9D712C07E
:10122A0005F013C006F014C007F015C008F073ECFF
:10123A0008F00104C86E1200C30E046ECD0EE82E2B
:10124A00FED7042EFCD700F0330E51EC09F0320E13
:10125A0051EC09F0280E51EC09F00F0E51EC09F08F
:10126A00060E51EC09F0010E51EC09F0C30E046EA2
:10127A00CD0EE82EFED7042EFCD700F00F0E51EC4F
:10128A0009F012001B6A1A6A196A000EF86E100E2B
:10129A00F76E00010DEF08F0036E8C940350B4EC66
:1012AA0008F0C80E00D0E82EFDD71200C7B4FED74A
:1012BA00C5CF01F01F0E0116D8B41200F7D75BECA8
:1012CA0009F002C0C9FF12005BEC09F0C5841200E4
:0812DA005BEC09F0C580120075
:020000040020DA
:08000000FFFFFFFFFFFFFFFF00
:020000040030CA
:0E000000FF061F1EFF8381FF0F400FE00F4021
:00000001FF
