:0400000007EF00F016
:100008007F8209ED00F09CEF2BF00600FACF2CF070
:10001800FBCF2DF0E9CF2EF0EACF2FF0E1CF30F073
:10002800E2CF31F0D9CF32F0DACF33F0F3CF34F07A
:10003800F4CF35F0F6CF36F0F7CF37F0F8CF38F009
:10004800F5CF39F07FC03AF080C03BF081C03CF07A
:1000580082C03DF0F0A00AEF07F081380F0B0F0BBC
:10006800406E4050010D530EF324F66EFC0EF42042
:10007800F76EF86A000EF8220800F5CF41F000018B
:10008800B351B411D8A49DD0310E4118D8A48BD047
:100098002BEC2FF0000E0001B86F000EB76FB851AF
:1000A80001E17BD008EF07F0A00E0E6E860E0F6EF2
:1000B800010E106E000E116E84EC2EF04EEC31F035
:1000C800000E036ED00E026E39EC31F0000E036E96
:1000D800000E026E39EC31F04AEC31F04EEC31F0A2
:1000E800000E036ED10E026E39EC31F0000E6B6E0D
:1000F800050E6B6401D00ED06B50010D900EF324E9
:10010800D96E000EF420DA6E000EADEC30F0DF6E22
:100118006B2AEED7010EADEC30F00001966F4AEC79
:1001280031F0800E15EC31F0340E276EF20EE82E09
:10013800FED7272EFCD7AC0E0D6EFE0E0E6E96C0A7
:100148000FF0106A95C011F0126A94C013F0146A87
:100158004EEC1BF0C00E15EC31F0BB0E0D6EFE0E12
:100168000E6E92C00FF0106A91C011F0126A90C022
:1001780013F0146A4EEC1BF0090E286E1E0E276E43
:10018800E40EE82EFED7272EFCD7282EFAD700D06B
:100198000001B74BB82BB85112E1030EB75DD8A0D8
:1001A80083D708EF07F0320E4118D8A40AD0000E02
:1001B800B46F010EB36F000EB66F010E64D208EF74
:1001C80007F066046710D8A460D2310E4118D8A48D
:1001D8008AD02BEC2FF0000E0001B86F000EB76F1D
:1001E800B85101E17AD008EF07F0A00E0E6E860E26
:1001F8000F6E010E106E000E116E84EC2EF04EEC98
:1002080031F0000E036ED00E026E39EC31F0000EA4
:10021800036E000E026E39EC31F04AEC31F04EEC10
:1002280031F0000E036ED10E026E39EC31F0000E83
:100238006B6E050E6B6401D00ED06B50010D900EE5
:10024800F324D96E000EF420DA6E000EADEC30F017
:10025800DF6E6B2AEED7010EADEC30F00001966F21
:100268004AEC31F0800E15EC31F0340E276EF20EA8
:10027800E82EFED7272EFCD7AC0E0D6EFE0E0E6EA6
:1002880096C00FF0106A95C011F0126A94C013F06E
:10029800146A4EEC1BF0C00E15EC31F0BB0E0D6E5F
:1002A800FE0E0E6E92C00FF0106A91C011F0126A25
:1002B80090C013F0146A4EEC1BF0190E286E5A0EFB
:1002C800276EB20EE82EFED7272EFCD7282EFAD797
:1002D8000001B74BB82BB85104E1030EB75DD8A0A5
:1002E80084D708EF07F0320E4118D8A499D06EC110
:1002F80001F06FC102F00E0E046E100E036E9AEC40
:1003080030F001C027F002C028F06CC101F06DC1C7
:1003180002F0000E046E3C0E036E9AEC30F00150B1
:1003280027260250282201016A512724686F6B5141
:100338002820696F66C101F067C102F00E0E046ED5
:10034800100E036E9AEC30F001C027F002C028F0BE
:1003580064C101F065C102F0000E046E3C0E036E2C
:100368009AEC30F0015027260250282201016251F0
:100378002724606F63512820616F68C127F069C125
:1003880028F0271E281E274A282A605127245E6E37
:10039800615128205F6E2BEC2FF0310E0D6EFE0E92
:1003A8000E6E4EEC1BF0C00E15EC31F0020E0D6E09
:1003B800FF0E0E6E5EC001F05FC002F0000E046E0C
:1003C8003C0E036E38EC2DF001C00FF002C010F0A7
:1003D8005EC001F05FC002F0000E046E3C0E036EBA
:1003E800BBEC2DF001C011F002C012F04EEC1BF076
:1003F800800E15EC31F0340E276EF20EE82EFED783
:10040800272EFCD7090E286E1E0E276EE40EE82E46
:10041800FED7272EFCD7282EFAD700D008EF07F0F2
:10042800330E4118D8A423D12BEC2FF00F0E0D6EEC
:10043800FE0E0E6EAFC00FF0B0C010F04EEC1BF009
:10044800800E15EC31F0340E276EF20EE82EFED732
:10045800272EFCD72BEC2FF0000E0001B86F000EF2
:10046800B76FB8516EE1080EB75DD8B06AD0010E0B
:1004780015EC31F09C0E276ED70EE82EFED7272EEE
:10048800FCD700F0800E15EC31F0340E276EF20E1A
:10049800E82EFED7272EFCD71B0E0D6EFF0E0E6E14
:1004A800D8900001B735D96EB835DA6E300ED92636
:1004B800010EDA22DECF0FF0DDCF10F0D890B7357D
:1004C800D96EB835DA6E100ED926010EDA22DECFD3
:1004D80011F0DDCF12F04EEC1BF0C00E15EC31F030
:1004E800270E0D6EFF0E0E6ED8900001B735D96E2F
:1004F800B835DA6E200ED926010EDA22DECF0FF0DB
:10050800DDCF10F0D890B735D96EB835DA6E000E59
:10051800D926010EDA22DECF11F0DDCF12F04EEC33
:100528001BF0150E286E4B0E276EBE0EE82EFED75A
:10053800272EFCD7282EFAD700D00001B74BB82BAE
:1005480090D7110E286E3C0E276ECB0EE82EFED7E4
:10055800272EFCD7282EFAD700F02BEC2FF07F0E91
:100568000D6EFE0E0E6EA5C00FF0A6C010F04EEC7C
:100578001BF0150E286E4B0E276EBE0EE82EFED70A
:10058800272EFCD7282EFAD700D02BEC2FF0E60E1A
:100598000D6EFE0E0E6EA3C00FF0A4C010F04EEC50
:1005A8001BF0150E286E4B0E276EBE0EE82EFED7DA
:1005B800272EFCD7282EFAD700D02BEC2FF0ED0EE3
:1005C8000D6EFD0E0E6EA1C00FF0A2C010F04EEC25
:1005D8001BF0150E286E4B0E276EBE0EE82EFED7AA
:1005E800272EFCD7282EFAD700D02BEC2FF0FE0EA2
:1005F8000D6EFD0E0E6E9FC00FF0A0C010F04EECF9
:100608001BF0150E286E4B0E276EBE0EE82EFED779
:10061800272EFCD7282EFAD700D02BEC2FF0010E6E
:1006280015EC31F09C0E276ED70EE82EFED7272E3C
:10063800FCD700F0DE0E0D6EFF0E0E6E4EEC1BF0BA
:10064800050E286E0F0E276EF10EE82EFED7272E08
:10065800FCD7282EFAD700F0800E15EC31F0340EB6
:10066800276EF20EE82EFED7272EFCD7CDD3340EF8
:100678004118D8A40AD0000E656E010E646E000EF3
:100688000001B66F000EB56FBFD30001B151B211B2
:10069800D8A4CED0340E4118D8A41FD0000EB06F05
:1006A800040EAF6FB1C088F1B2C089F1000EB26F0D
:1006B800010EB16FC00E15EC31F04050010D530E14
:1006C800F324F66EFC0EF420F76EF86A000EF8229A
:1006D8000800F5500BEC31F0A4D0350E4118D8A421
:1006E80020D0000E0001B06F050EAF6FB1C088F1C9
:1006F800B2C089F1000EB26F010EB16FC00E15ECD9
:1007080031F04050010D530EF324F66EFC0EF42028
:10071800F76EF86A000EF8220800F5500BEC31F07D
:1007280080D0360E4118D8A420D0000E0001B06F3A
:10073800060EAF6FB1C088F1B2C089F1000EB26F7A
:10074800010EB16FC00E15EC31F04050010D530E83
:10075800F324F66EFC0EF420F76EF86A000EF82209
:100768000800F5500BEC31F05CD0370E4118D8A4D6
:1007780020D0000E0001B06F070EAF6FB1C088F136
:10078800B2C089F1000EB26F010EB16FC00E15EC48
:1007980031F04050010D530EF324F66EFC0EF42098
:1007A800F76EF86A000EF8220800F5500BEC31F0ED
:1007B80038D0380E4118D8A420D0000E0001B06FF0
:1007C800080EAF6FB1C088F1B2C089F1000EB26FE8
:1007D800010EB16FC00E15EC31F04050010D530EF3
:1007E800F324F66EFC0EF420F76EF86A000EF82279
:1007F8000800F5500BEC31F014D02BEC2FF0610E03
:100808000D6EFE0E0E6E4EEC1BF0150E286E4B0E86
:10081800276EBE0EE82EFED7272EFCD7282EFAD735
:1008280000D0AFC001F0B0C002F040EC24F0ECD230
:100838000001B105B211D8A48DD1410E4118D8A438
:100848001CD0C00E15EC31F0420E0BEC31F0E40E6A
:10085800076E010E086EFD0E096EFF0E0A6E76EC2D
:100868002FF0BE0E016E000E026EE40E036E010E36
:10087800046EDCEC2FF05C4A5D2A420E4118D8A4C5
:100888001CD0C00E15EC31F04E0E0BEC31F0E40E1E
:10089800076E010E086EEA0E096EFF0E0A6E76EC00
:1008A8002FF0BE0E016E000E026EE40E036E010EF6
:1008B800046EDCEC2FF05C4A5D2A430E4118D8A484
:1008C8001CD0C00E15EC31F0530E0BEC31F0E40ED9
:1008D800076E010E086EEE0E096EFF0E0A6E76ECBC
:1008E8002FF0BE0E016E000E026EE40E036E010EB6
:1008F800046EDCEC2FF05C4A5D2A440E4118D8A443
:100908001CD0C00E15EC31F0570E0BEC31F0E40E94
:10091800076E010E086EF20E096EFF0E0A6E76EC77
:100928002FF0BE0E016E000E026EE40E036E010E75
:10093800046EDCEC2FF05C4A5D2A4050010D530E2A
:10094800F324F66EFC0EF420F76EF86A000EF82217
:100958000800F5502A0AD8A4D2D0040E286E400EFA
:10096800276E260EE82EFED7272EFCD7282EFAD77C
:1009780000D05C4A5D2A000E3F6E000E3E6E3FBE00
:1009880008D03F5005E1140E3E5CD8B07ED001D0AF
:100998007CD0BE0E076E000E086E3EC001F03FC050
:1009A80002F0000E046E050E036E9AEC30F0F20EA3
:1009B8000124096EFC0E02200A6E000E0C6E040E55
:1009C8000B6EB3EC2CF007500810D8A457D05AC0BF
:1009D80001F05BC002F0000E046E050E036E9AEC87
:1009E80030F0BC0E0124076E010E0220086EBE0E08
:1009F800096E000E0A6E76EC2FF0700E076E000E70
:100A0800086EBE0E096E000E0A6E76EC2FF0000E10
:100A180001018D6F010E8C6F000E0001B26F020E86
:100A2800B16F2BEC2FF06B0E0D6EFF0E0E6E4EECB1
:100A38001BF0050E286E0F0E276EF10EE82EFED75E
:100A4800272EFCD7282EFAD700F0F80E0D6EFF0ED1
:100A58000E6EBE0E0F6E000E106E4EEC1BF0BE0E2C
:100A6800076E000E086E6F0E096EFE0E0A6E76ECAB
:100A78002FF0000E5D6E000E5C6E07D03E4A3F2AD6
:100A88003FBE87D73F5001E17ED701018C058D110C
:100A9800D8B431D02BEC2FF0560E0D6EFF0E0E6E23
:100AA8004EEC1BF0F80E0D6EFF0E0E6EBE0E0F6EA6
:100AB800000E106E4EEC1BF0BE0E076E000E086E98
:100AC8006F0E096EFE0E0A6E76EC2FF0050E286E7C
:100AD8000F0E276EF10EE82EFED7272EFCD7282EF4
:100AE800FAD700F0000E5D6E000E5C6E000E01017C
:100AF8008D6F000E8C6F000E8D6F000E8C6F5DBEBB
:100B080083D15D5004E1050E5C5CD8A07DD12BEC4F
:100B18002FF09E0E0D6EFF0E0E6E4EEC1BF0050EA6
:100B2800286E0F0E276EF10EE82EFED7272EFCD763
:100B3800282EFAD700F0BE0E076E000E086E6F0E54
:100B4800096EFE0E0A6E76EC2FF0000E5D6E000E3A
:100B58005C6E5AD1020E0001B119B211D8A425D188
:100B6800000E5D6E000E5C6EC00E15EC31F040504C
:100B7800010D530EF324F66EFC0EF420F76EF86A9E
:100B8800000EF8220800F5500BEC31F0050E286E27
:100B98000F0E276EF10EE82EFED7272EFCD7282E33
:100BA800FAD700F0CA0E0D6EFE0E0E6E4EEC1BF05C
:100BB8004050010D530EF324F66EFC0EF420F76E30
:100BC800F86A000EF8220800F550310AD8B45BD054
:100BD8004050010D530EF324F66EFC0EF420F76E10
:100BE800F86A000EF8220800F550320AD8B44BD043
:100BF8004050010D530EF324F66EFC0EF420F76EF0
:100C0800F86A000EF8220800F550330AD8B43BD031
:100C18004050010D530EF324F66EFC0EF420F76ECF
:100C2800F86A000EF8220800F550340AD8B42BD020
:100C3800BCD0000E766E010E0FD0000E766E020E3E
:100C48000BD0000E766E030E07D0000E766E040EE3
:100C580003D0000E766E050E756E32D02BEC2FF099
:100C68003F0E0D6EFF0E0E6E4EEC1BF0050E286E3D
:100C78000F0E276EF10EE82EFED7272EFCD7282E52
:100C8800FAD700F01DD04050010D530EF324F66E34
:100C9800FC0EF420F76EF86A000EF8220800F550F2
:100CA800310AD8B4C6D7030AD8B4C7D7010AD8B40A
:100CB800C8D7070AD8B4C9D7010AD8B4CAD7CED773
:100CC800F5EC07F0F3EC2DF001500210D8A428D071
:100CD8002BEC2FF0800E15EC31F0340E276EF20E4F
:100CE800E82EFED7272EFCD7740E0D6EFF0E0E6E63
:100CF8004EEC1BF0050E286E0F0E276EF10EE82E37
:100D0800FED7272EFCD7282EFAD700F0000E0001B8
:100D1800B26F020EB16F000E766E000E756E45D082
:100D2800FF0E276EFF0E286EAFC029F0B0C02AF064
:100D38002750292628502A2229505A5C5B50800ABD
:100D48002B6E2A50800A2B58D8A013D0D8905A342A
:100D5800D96E5B34DA6E500ED926010EDA2275C0D0
:100D6800DEFF76C0DDFF000E0001B26F030EB16F2B
:100D78001CD0F3EC2DF001040210D8A416D0000EFC
:100D88000001B26F010EB16F2BEC2FF0D8905A34DE
:100D9800D96E5B34DA6E500ED926010EDA2275C090
:100DA800DEFF76C0DDFF5A4A5B2A040E0001B11946
:100DB800B211D8A414D04050010D530EF324F66E8E
:100DC800FC0EF420F76EF86A000EF8220800F550C1
:100DD800230AD8A404D0000EB26F050EB16F000E1E
:100DE800596E000E586E000E576E000E566E000EAD
:100DF800556E000E546E000E536E000E526E000EAD
:100E080001018B6F000E8A6FF090C5D0F2A0B0D0B0
:100E180081AA03D0276A272A01D0276A275001010F
:100E2800866F876B81AC03D0276A272A01D0276A8F
:100E380027500101846F856B81A803D0276A272A70
:100E480001D0276A27500101826F836B81AE03D0DE
:100E5800276A272A01D0276A27500101806F816BF2
:100E680086058711D8A41AD0000E00019E6F000EC7
:100E78009D6F2BEC2FF09D0E0D6EFE0E0E6E4EEC40
:100E88001BF0800E15EC31F0340E276EF20EE82EB2
:100E9800FED7272EFCD70001AD4BAE2B01018405F0
:100EA8008511D8A41AD0000E00019C6F000E9B6F0C
:100EB8002BEC2FF0F40E0D6EFE0E0E6E4EEC1BF0AA
:100EC800800E15EC31F0340E276EF20EE82EFED7A8
:100ED800272EFCD70001A94BAA2B010182058311FB
:100EE800D8A419D0000E00019A6F000E996FAB4B71
:100EF800AC2B2BEC2FF07E0E0D6EFD0E0E6E4EEC15
:100F08001BF0800E15EC31F0340E276EF20EE82E31
:100F1800FED7272EFCD7010180058111D8A41AD04D
:100F2800000E0001986F000E976F2BEC2FF0910EBA
:100F38000D6EFD0E0E6E4EEC1BF0800E15EC31F0B2
:100F4800340E276EF20EE82EFED7272EFCD70001AE
:100F5800A74BA82B2BEC2FF0800E15EC31F0340E9C
:100F6800276EF20EE82EFED7272EFCD7F29013D06C
:100F7800F2BAF2A410D06A2A120E6A6403D0010EE3
:100F88000001BA6F140E6A6405D0000E6A6E010E75
:100F98000001BB6FF2943DC082F03CC081F03BC0C1
:100FA80080F03AC07FF039C0F5FF38C0F8FF37C08D
:100FB800F7FF36C0F6FF35C0F4FF34C0F3FF33C087
:100FC800DAFF32C0D9FF31C0E2FF30C0E1FF2FC0E5
:100FD800EAFF2EC0E9FF2DC0FBFF2CC0FAFF7F926D
:100FE8001100700E016E000E026EFD0E036EFF0EF4
:100FF800046E51EC2FF001500210D8A423D075C014
:1010080058F076C059F075C08AF176C08BF1D89047
:101018005A34D96E5B34DA6E420ED926000EDA22C3
:10102800DECF07F0DDCF08F0D89007360836300E4F
:101038000724D96E010E0820DA6E58C0DEFF59C0A9
:10104800DDFF1200700E016E000E026EEA0E036ED6
:10105800FF0E046E51EC2FF001500210D8A423D0DB
:1010680075C056F076C057F075C08AF176C08BF11E
:10107800D8905A34D96E5B34DA6E420ED926000EF7
:10108800DA22DECF07F0DDCF08F0D8900736083631
:10109800100E0724D96E010E0820DA6E56C0DEFF46
:1010A80057C0DDFF1200700E016E000E026EEE0ECC
:1010B800036EFF0E046E51EC2FF001500210D8A4FD
:1010C80023D075C054F076C055F075C08AF176C04B
:1010D8008BF1D8905A34D96E5B34DA6E420ED92629
:1010E800000EDA22DECF07F0DDCF08F0D890073601
:1010F8000836200E0724D96E010E0820DA6E54C077
:10110800DEFF55C0DDFF1200700E016E000E026E8C
:10111800F20E036EFF0E046E51EC2FF00150021018
:10112800D8A423D075C052F076C053F075C08AF1A8
:1011380076C08BF1D8905A34D96E5B34DA6E420E91
:10114800D926000EDA22DECF07F0DDCF08F0D890DE
:1011580007360836000E0724D96E010E0820DA6E0D
:1011680052C0DEFF53C0DDFF1200700E016E000E8C
:10117800026EE90E036EFF0E046E51EC2FF0015063
:101188000210D8A443D075C058F076C059F075C085
:1011980056F076C057F0D890753401018A6F7634CE
:1011A8008B6FD8905A34D96E5B34DA6E420ED926DA
:1011B800000EDA22DECF07F0DDCF08F0D890073630
:1011C8000836300E0724D96E010E0820DA6E58C092
:1011D800DEFF59C0DDFFD8905A34D96E5B34DA6E21
:1011E800420ED926000EDA22DECF07F0DDCF08F056
:1011F800D89007360836100E0724D96E010E08203D
:10120800DA6E56C0DEFF57C0DDFF1200700E016EA9
:10121800000E026EED0E036EFF0E046E51EC2FF001
:1012280001500210D8A443D075C058F076C059F0C8
:1012380075C054F076C055F0D890753401018A6FA6
:1012480076348B6FD8905A34D96E5B34DA6E420E8E
:10125800D926000EDA22DECF07F0DDCF08F0D890CD
:1012680007360836300E0724D96E010E0820DA6ECC
:1012780058C0DEFF59C0DDFFD8905A34D96E5B34B0
:10128800DA6E420ED926000EDA22DECF07F0DDCF65
:1012980008F0D89007360836200E0724D96E010EBC
:1012A8000820DA6E54C0DEFF55C0DDFF1200700E54
:1012B800016E000E026EF10E036EFF0E046E51EC0D
:1012C8002FF001500210D8A443D075C058F076C052
:1012D80059F075C052F076C053F0D89075340101BA
:1012E8008A6F76348B6FD8905A34D96E5B34DA6E45
:1012F800420ED926000EDA22DECF07F0DDCF08F045
:10130800D89007360836300E0724D96E010E08200B
:10131800DA6E58C0DEFF59C0DDFFD8905A34D96E56
:101328005B34DA6E420ED926000EDA22DECF07F0E1
:10133800DDCF08F0D89007360836000E0724D96E9E
:10134800010E0820DA6E52C0DEFF53C0DDFF120026
:10135800700E016E000E026EE80E036EFF0E046E34
:1013680051EC2FF001500210D8A44CD0D89075340D
:10137800586E7634596E75C056F076C057F075C001
:1013880001F076C002F0000E046E030E036E9AECB4
:1013980030F001C08AF102C08BF1D8905A34D96E6E
:1013A8005B34DA6E420ED926000EDA22DECF07F061
:1013B800DDCF08F0D89007360836300E0724D96EEE
:1013C800010E0820DA6E58C0DEFF59C0DDFFD89044
:1013D8005A34D96E5B34DA6E420ED926000EDA2200
:1013E800DECF07F0DDCF08F0D89007360836100EAC
:1013F8000724D96E010E0820DA6E56C0DEFF57C0EA
:10140800DDFF1200700E016E000E026EEC0E036E10
:10141800FF0E046E51EC2FF001500210D8A44CD0EE
:10142800D8907534586E7634596E75C054F076C0BD
:1014380055F075C001F076C002F0000E046E030E80
:10144800036E9AEC30F001C08AF102C08BF1D8909B
:101458005A34D96E5B34DA6E420ED926000EDA227F
:10146800DECF07F0DDCF08F0D89007360836300E0B
:101478000724D96E010E0820DA6E58C0DEFF59C065
:10148800DDFFD8905A34D96E5B34DA6E420ED92615
:10149800000EDA22DECF07F0DDCF08F0D89007364D
:1014A8000836200E0724D96E010E0820DA6E54C0C3
:1014B800DEFF55C0DDFF1200700E016E000E026ED9
:1014C800F00E036EFF0E046E51EC2FF00150021067
:1014D800D8A44CD0D8907534586E7634596E75C0EF
:1014E80052F076C053F075C001F076C002F0000EDD
:1014F800046E030E036E9AEC30F001C08AF102C04C
:101508008BF1D8905A34D96E5B34DA6E420ED926F4
:10151800000EDA22DECF07F0DDCF08F0D8900736CC
:101528000836300E0724D96E010E0820DA6E58C02E
:10153800DEFF59C0DDFFD8905A34D96E5B34DA6EBD
:10154800420ED926000EDA22DECF07F0DDCF08F0F2
:10155800D89007360836000E0724D96E010E0820E9
:10156800DA6E52C0DEFF53C0DDFF1200700E016E4E
:10157800000E026EB20E036EFF0E046E51EC2FF0D9
:1015880001500210D8A469D075C058F076C059F03F
:1015980075C052F076C053F075C056F076C057F05B
:1015A80075C001F076C002F0000E046E030E036EE3
:1015B8009AEC30F001C08AF102C08BF1D8905A340D
:1015C800D96E5B34DA6E420ED926000EDA22DECFEF
:1015D80007F0DDCF08F0D89007360836300E07241C
:1015E800D96E010E0820DA6E58C0DEFF59C0DDFF43
:1015F800D8905A34D96E5B34DA6E420ED926000E72
:10160800DA22DECF07F0DDCF08F0D89007360836AB
:10161800000E0724D96E010E0820DA6E52C0DEFFD4
:1016280053C0DDFFD8905A34D96E5B34DA6E420E5F
:10163800D926000EDA22DECF07F0DDCF08F0D890E9
:1016480007360836100E0724D96E010E0820DA6E08
:1016580056C0DEFF57C0DDFF1200700E016E000E8F
:10166800026EBC0E036EFF0E046E51EC2FF001509B
:101678000210D8A469D075C058F076C059F075C06A
:1016880054F076C055F075C052F076C053F075C06E
:1016980001F076C002F0000E046E030E036E9AECA1
:1016A80030F001C08AF102C08BF1D8905A34D96E5B
:1016B8005B34DA6E420ED926000EDA22DECF07F04E
:1016C800DDCF08F0D89007360836300E0724D96EDB
:1016D800010E0820DA6E58C0DEFF59C0DDFFD89031
:1016E8005A34D96E5B34DA6E420ED926000EDA22ED
:1016F800DECF07F0DDCF08F0D89007360836200E89
:101708000724D96E010E0820DA6E54C0DEFF55C0DA
:10171800DDFFD8905A34D96E5B34DA6E420ED92682
:10172800000EDA22DECF07F0DDCF08F0D8900736BA
:101738000836000E0724D96E010E0820DA6E52C052
:10174800DEFF53C0DDFF1200700E016E000E026E48
:10175800F40E036EFF0E046E51EC2FF001500210D0
:10176800D8A44CD075C058F076C059F0D8907534CC
:10177800526E7634536E75C001F076C002F0000EDA
:10178800046E030E036E9AEC30F001C08AF102C0B9
:101798008BF1D8905A34D96E5B34DA6E420ED92662
:1017A800000EDA22DECF07F0DDCF08F0D89007363A
:1017B8000836300E0724D96E010E0820DA6E58C09C
:1017C800DEFF59C0DDFFD8905A34D96E5B34DA6E2B
:1017D800420ED926000EDA22DECF07F0DDCF08F060
:1017E800D89007360836000E0724D96E010E082057
:1017F800DA6E52C0DEFF53C0DDFF1200700E016EBC
:10180800000E026EC00E036EFF0E046E51EC2FF038
:1018180001500210D8A46AD075C058F076C059F0AB
:1018280075C056F076C057F0D8907534526E76343D
:10183800536E75C007F076C008F0D89007360836A2
:10184800D8900736083607C08AF108C08BF1D890BF
:101858005A34D96E5B34DA6E420ED926000EDA227B
:10186800DECF07F0DDCF08F0D89007360836300E07
:101878000724D96E010E0820DA6E58C0DEFF59C061
:10188800DDFFD8905A34D96E5B34DA6E420ED92611
:10189800000EDA22DECF07F0DDCF08F0D890073649
:1018A8000836100E0724D96E010E0820DA6E56C0CD
:1018B800DEFF57C0DDFFD8905A34D96E5B34DA6E3C
:1018C800420ED926000EDA22DECF07F0DDCF08F06F
:1018D800D89007360836000E0724D96E010E082066
:1018E800DA6E52C0DEFF53C0DDFF1200700E016ECB
:1018F800000E026EC50E036EFF0E046E51EC2FF043
:1019080001500210D8A46AD075C058F076C059F0BA
:1019180075C054F076C055F0D8907534526E763450
:10192800536E75C007F076C008F0D89007360836B1
:10193800D8900736083607C08AF108C08BF1D890CE
:101948005A34D96E5B34DA6E420ED926000EDA228A
:10195800DECF07F0DDCF08F0D89007360836300E16
:101968000724D96E010E0820DA6E58C0DEFF59C070
:10197800DDFFD8905A34D96E5B34DA6E420ED92620
:10198800000EDA22DECF07F0DDCF08F0D890073658
:101998000836200E0724D96E010E0820DA6E54C0CE
:1019A800DEFF55C0DDFFD8905A34D96E5B34DA6E4D
:1019B800420ED926000EDA22DECF07F0DDCF08F07E
:1019C800D89007360836000E0724D96E010E082075
:1019D800DA6E52C0DEFF53C0DDFF1200700E016EDA
:1019E800000E026EBB0E036EFF0E046E51EC2FF05C
:1019F80001500210D8A46AD0D8907534586E763445
:101A0800596E75C054F076C055F075C052F076C066
:101A180053F075C007F076C008F0D890073608363E
:101A2800D8900736083607C08AF108C08BF1D890DD
:101A38005A34D96E5B34DA6E420ED926000EDA2299
:101A4800DECF07F0DDCF08F0D89007360836300E25
:101A58000724D96E010E0820DA6E58C0DEFF59C07F
:101A6800DDFFD8905A34D96E5B34DA6E420ED9262F
:101A7800000EDA22DECF07F0DDCF08F0D890073667
:101A88000836200E0724D96E010E0820DA6E54C0DD
:101A9800DEFF55C0DDFFD8905A34D96E5B34DA6E5C
:101AA800420ED926000EDA22DECF07F0DDCF08F08D
:101AB800D89007360836000E0724D96E010E082084
:101AC800DA6E52C0DEFF53C0DDFF1200700E016EE9
:101AD800000E026EB10E036EFF0E046E51EC2FF075
:101AE80001500210D8A46AD0D8907534586E763454
:101AF800596E75C056F076C057F075C052F076C072
:101B080053F075C007F076C008F0D890073608364D
:101B1800D8900736083607C08AF108C08BF1D890EC
:101B28005A34D96E5B34DA6E420ED926000EDA22A8
:101B3800DECF07F0DDCF08F0D89007360836300E34
:101B48000724D96E010E0820DA6E58C0DEFF59C08E
:101B5800DDFFD8905A34D96E5B34DA6E420ED9263E
:101B6800000EDA22DECF07F0DDCF08F0D890073676
:101B78000836100E0724D96E010E0820DA6E56C0FA
:101B8800DEFF57C0DDFFD8905A34D96E5B34DA6E69
:101B9800420ED926000EDA22DECF07F0DDCF08F09C
:101BA800D89007360836000E0724D96E010E082093
:101BB800DA6E52C0DEFF53C0DDFF1200700E016EF8
:101BC800000E026EB60E036EFF0E046E51EC2FF07F
:101BD80001500210D8A46AD075C058F076C059F0E8
:101BE800D8907534566E7634576E75C052F076C0FC
:101BF80053F075C007F076C008F0D890073608365D
:101C0800D8900736083607C08AF108C08BF1D890FB
:101C18005A34D96E5B34DA6E420ED926000EDA22B7
:101C2800DECF07F0DDCF08F0D89007360836300E43
:101C38000724D96E010E0820DA6E58C0DEFF59C09D
:101C4800DDFFD8905A34D96E5B34DA6E420ED9264D
:101C5800000EDA22DECF07F0DDCF08F0D890073685
:101C68000836100E0724D96E010E0820DA6E56C009
:101C7800DEFF57C0DDFFD8905A34D96E5B34DA6E78
:101C8800420ED926000EDA22DECF07F0DDCF08F0AB
:101C9800D89007360836000E0724D96E010E0820A2
:101CA800DA6E52C0DEFF53C0DDFF1200700E016E07
:101CB800000E026EAC0E036EFF0E046E51EC2FF098
:101CC80001500210D8A455D075C058F076C059F00C
:101CD80075C001F076C002F0000E046E030E036EAC
:101CE8009AEC30F001C056F002C057F075C007F00A
:101CF80076C008F0D89007360836D89007360836E8
:101D080007C08AF108C08BF1D8905A34D96E5B3479
:101D1800DA6E420ED926000EDA22DECF07F0DDCFCA
:101D280008F0D89007360836300E0724D96E010E11
:101D38000820DA6E58C0DEFF59C0DDFFD8905A344B
:101D4800D96E5B34DA6E420ED926000EDA22DECF67
:101D580007F0DDCF08F0D89007360836100E0724B4
:101D6800D96E010E0820DA6E56C0DEFF57C0DDFFBF
:101D78001200700E016E000E026ECA0E036EFF0E88
:101D8800046E51EC2FF001500210D8A4120075C057
:101D980058F076C059F075C001F076C002F0000E18
:101DA800046E030E036E9AEC30F001C052F002C0CC
:101DB80053F075C007F076C008F0D890073608369B
:101DC800D8900736083607C08AF108C08BF1D8903A
:101DD8005A34D96E5B34DA6E420ED926000EDA22F6
:101DE800DECF07F0DDCF08F0D89007360836300E82
:101DF8000724D96E010E0820DA6E58C0DEFF59C0DC
:101E0800DDFFD8905A34D96E5B34DA6E420ED9268B
:101E1800000EDA22DECF07F0DDCF08F0D8900736C3
:101E28000836000E0724D96E010E0820DA6E52C05B
:101E3800DEFF53C0DDFF1200D38CD38AD388D38250
:101E48009B8C000E896E000E8A6E000E8B6E000E43
:101E58008C6E000E8D6E92689368800E946E010EE3
:101E6800956E040E966E000EC26E0F0EC16EF08651
:101E7800F28E05EC2FF05BEC1DF0000E0001F36F05
:101E8800000EF46F000EF56F36EC1FF00001B5512F
:101E9800B611D8A431D0410ED16FFE0ED26F2AEC04
:101EA80019F0C00EEBEC30F06A0E0001D16FFD0E98
:101EB800D26F2AEC19F0050E0001F26F0F0EF16FC8
:101EC800F10EE82EFED7F12FFCD7F22FFAD7800EAD
:101ED800EBEC30F0340E0001F16FF10EE82EFED776
:101EE800F12FFCD700D00001B305B411D8A4D3D783
:101EF800000EB66F010EB56FB505B611D8A4E5D1C1
:101F080005EC2FF00001B151B211D8A422D0800EF7
:101F1800EBEC30F0340E0001F16FF10EE82EFED735
:101F2800F12FFCD700D0700E0001D16FFE0ED26FDA
:101F38002AEC19F0050E0001F26F0F0EF16FF10E89
:101F4800E82EFED7F12FFCD7F22FFAD7C00EEBEC14
:101F580030F00001B105B211D8A423D005EC2FF060
:101F6800D80E0001D16FFE0ED26F2AEC19F0C00E08
:101F7800EBEC30F0F80E0001D16FFF0ED26FBE0E01
:101F8800D36F000ED46F2AEC19F0050E0001F26F22
:101F98000F0EF16FF10EE82EFED7F12FFCD7F22FBE
:101FA800FAD7020E0001B119B211D8A415D005EC68
:101FB8002FF08F0E0001D16FFF0ED26F2AEC19F0AF
:101FC800050E0001F26F0F0EF16FF10EE82EFED72D
:101FD800F12FFCD7F22FFAD7030E0001B119B21175
:101FE800D8A490D005EC2FF00F0E0001D16FFE0E93
:101FF800D26FAFC0D3F0B0C0D4F02AEC19F0090EFC
:102008000001F26F1E0EF16FE40EE82EFED7F12FDD
:10201800FCD7F22FFAD700F0000E0001B86F000EBF
:10202800B76F66D005EC2FF0E30E0001D16FFF0EFD
:10203800D26F2AEC19F0D10E0001D16FFF0ED26FCA
:10204800010EB725D36F000EB821D46F2AEC19F012
:102058003F0E0001D16FFE0ED26F2AEC19F0B7C007
:10206800CBF0B8C0CCF0000E0001CE6F050ECD6FDE
:1020780072EC30F0BC0E0001CB25F66F010ECC21BE
:10208800F76FF80ED16FFF0ED26FF6C0D3F0F7C01E
:10209800D4F02AEC19F0FB0E0001D16FFF0ED26FBD
:1020A8002AEC19F0D10E0001D16FFF0ED26FD89033
:1020B800B735D96EB835DA6E500ED926010EDA2248
:1020C800DECFD3F0DDCFD4F02AEC19F0050E0001F5
:1020D800F26F0F0EF16FF10EE82EFED7F12FFCD73D
:1020E800F22FFAD7C00EEBEC30F00001B74BB82B4B
:1020F800AF51B75DB051B859D8A094D7000EB26FA0
:10210800040EB16F040EB119B211D8A41FD0800EFD
:10211800EBEC30F0340E0001F16FF10EE82EFED733
:10212800F12FFCD700D0CA0E0001D16FFD0ED26F7F
:102138002AEC19F0050E0001F26F0F0EF16FF10E87
:10214800E82EFED7F12FFCD7F22FFAD7050E0001A3
:10215800B119B211D8A4D6D61BEC30F046EC31F048
:10216800000E0001C56FD00EC46F34EC31F0000EC4
:102178000001C56F000EC46F34EC31F042EC31F051
:1021880046EC31F0000E0001C56FD10EC46F34EC7F
:1021980031F0000E0001B86F000EB76FB85112E1B0
:1021A800060EB75DD8B00ED0900EB725D96E000ECA
:1021B800B821DA6E000E49EC30F0DF6E0001B74B43
:1021C800B82BECD7010E49EC30F00001966F42ECC9
:1021D80031F092C0F1F00F0E0001F117000EC66F3A
:1021E800100EC56F92C0C3F0C46B2DEC2CF0C3C0A9
:1021F800CBF0C4C0CCF0000E0001CE6F0A0ECD6F3C
:1022080072EC30F00001F151CB2501016E6F000135
:10221800000ECC2101016F6F91C0F1F00F0E00018B
:10222800F117000EC66F100EC56F91C0C3F0C46BD6
:102238002DEC2CF0C3C0CBF0C4C0CCF0000E0001D4
:10224800CE6F0A0ECD6F72EC30F00001F151CB2544
:1022580001016C6F0001000ECC2101016D6F90C06F
:10226800F1F00F0E0001F117000EC66F100EC56FCA
:1022780090C0C3F0C46B2DEC2CF0C3C0CBF0C4C02D
:10228800CCF0000E0001CE6F0A0ECD6F72EC30F06C
:102298000001F151CB2501016A6F0001000ECC212C
:1022A80001016B6FF7EC30F0000E0001B66F020E03
:1022B800B56F510ED16FFE0ED26F2AEC19F0AFC078
:1022C800C3F0B0C0C4F076EC25F0020E0001B519D9
:1022D800B611D8A4DBD5F28E05EC2FF0A50E0001BF
:1022E800D16FFF0ED26F2AEC19F0050E0001F26FC4
:1022F8000F0EF16FF10EE82EFED7F12FFCD7F22F5B
:10230800FAD71BEC30F08B809490F096F28605ECAF
:102318002FF00F0E0001D16FFF0ED26F2AEC19F0CB
:10232800938A938E938C93880001FF5186EC30F04A
:10233800310E0001BC6F10D046EC31F0000E0001E8
:10234800C56F110EC46F34EC31F0010E49EC30F05A
:102358000001BC6F42EC31F0300E0001BC19D8A46A
:10236800EBD705EC2FF0330E0001D16FFF0ED26FC3
:102378002AEC19F0800EEBEC30F0340E0001F16F0E
:10238800F10EE82EFED7F12FFCD700D01BEC30F071
:10239800AFC0C3F0B0C0C4F076EC25F0000E000169
:1023A800F96F000EF86FBAD005EC2FF08E0E000111
:1023B800D16FFE0ED26F010EF825D36F000EF921F2
:1023C800D46F2AEC19F0050E0001F26F0F0EF16FB1
:1023D800F10EE82EFED7F12FFCD7F22FFAD7D890BE
:1023E8000001F835D96EF935DA6E800ED926000E5F
:1023F800DA22DE04DE10D8A45BD0000EAE6F000E29
:10240800AD6F000EAA6F000EA96F000EAC6F000E24
:10241800AB6F000EA86F000EA76FBA05D8B40FD027
:10242800D890F835D96EF935DA6E300ED926010E06
:10243800DA22DECFEDF0DDCFEEF055EC2AF0000128
:10244800BA05D8B40FD0D890F835D96EF935DA6E08
:10245800100ED926010EDA22DECFEDF0DDCFEEF038
:102468004CEC2BF00001BA05D8B40FD0D890F83551
:10247800D96EF935DA6E200ED926010EDA22DECFB2
:10248800EDF0DDCFEEF0FCEC2AF00001BA05D8B48F
:102498000FD0D890F835D96EF935DA6E000ED926F6
:1024A800010EDA22DECFEDF0DDCFEEF0ACEC2AF053
:1024B8007D0E0001D16FFF0ED26FF8C0D3F0F9C0C6
:1024C800D4F02AEC19F00001BA05D8B425D0F9BF28
:1024D80006D0F95121E1070EF85DD8B01DD0FE51A4
:1024E80086EC30F015D046EC31F0000E0001C56FD7
:1024F800110EC46F34EC31F0010E49EC30F00001DC
:10250800BC6F42EC31F0310E0001BC19D8B404D0D4
:102518000001BA05D8A4E7D7F84BF92BBA05D8B407
:1025280008D0F9BF41D7F95104E1080EF85DD8A0E9
:102538003BD7FC5186EC30F0660E0001F26F760E48
:10254800F16FC10EE82EFED7F12FFCD7F22FFAD784
:102558000001FD5186EC30F0050E0001F26F0F0E00
:10256800F16FF10EE82EFED7F12FFCD7F22FFAD734
:102578000001BB05D8B406D0FAC0EDF0FBC0EEF000
:1025880099EC29F00001BB05D8B406D0FAC0EDF0EB
:10259800FBC0EEF0DDEC28F00001BB05D8B406D096
:1025A800FAC0EDF0FBC0EEF03BEC29F00001BB05F2
:1025B800D8B406D0FAC0EDF0FBC0EEF0F7EC29F085
:1025C80005EC2FF0800EEBEC30F0340E0001F16FCB
:1025D800F10EE82EFED7F12FFCD700D04B0E0001EC
:1025E800D16FFF0ED26F2AEC19F0150E0001F26FB1
:1025F8004B0EF16FBE0EE82EFED7F12FFCD7F22F4F
:10260800FAD700F01BEC30F046EC31F0000E000178
:10261800C56FD00EC46F34EC31F0000E0001C56FE9
:10262800000EC46F34EC31F042EC31F046EC31F07E
:10263800000E0001C56FD10EC46F34EC31F0000EEE
:102648000001B86F000EB76FB85112E1060EB75D02
:10265800D8B00ED0900EB725D96E000EB821DA6E1C
:10266800000E49EC30F0DF6E0001B74BB82BECD709
:10267800010E49EC30F00001966F42EC31F092C047
:10268800F1F00F0E0001F117000EC66F100EC56FA6
:1026980092C0C3F0C46B2DEC2CF0C3C0CBF0C4C007
:1026A800CCF0000E0001CE6F0A0ECD6F72EC30F048
:1026B8000001F151CB250101666F0001000ECC210C
:1026C8000101676F91C0F1F00F0E0001F117000EC4
:1026D800C66F100EC56F91C0C3F0C46B2DEC2CF003
:1026E800C3C0CBF0C4C0CCF0000E0001CE6F0A0E00
:1026F800CD6F72EC30F00001F151CB250101646F10
:102708000001000ECC210101656F90C0F1F00F0EA1
:102718000001F117000EC66F100EC56F90C0C3F010
:10272800C46B2DEC2CF0C3C0CBF0C4C0CCF0000EB1
:102738000001CE6F0A0ECD6F72EC30F00001F1513E
:10274800CB250101626F0001000ECC210101636FEE
:1027580005EC2FF04B0E0001D16FFF0ED26F2AEC63
:1027680019F0150E0001F26F4B0EF16FBE0EE82E38
:10277800FED7F12FFCD7F22FFAD700F0800EEBEC42
:1027880030F0340E0001F16FF10EE82EFED7F12F74
:10279800FCD700D036EC1FF07F0E0001D16FFE0E83
:1027A800D26FA5C0D3F0A6C0D4F02AEC19F00D0E54
:1027B8000001F26F2D0EF16FD70EE82EFED7F12F24
:1027C800FCD7F22FFAD700D0010EEBEC30F09C0EBC
:1027D8000001F16FD70EE82EFED7F12FFCD7800E3F
:1027E800EBEC30F0340E0001F16FF10EE82EFED75D
:1027F800F12FFCD700D0E60E0001D16FFE0ED26F8C
:10280800A3C0D3F0A4C0D4F02AEC19F00D0E000137
:10281800F26F2D0EF16FD70EE82EFED7F12FFCD7F1
:10282800F22FFAD700D0010EEBEC30F09C0E00012D
:10283800F16FD70EE82EFED7F12FFCD7800EEBEC08
:1028480030F0340E0001F16FF10EE82EFED7F12FB3
:10285800FCD700D0ED0E0001D16FFD0ED26FA1C0E4
:10286800D3F0A2C0D4F02AEC19F00D0E0001F26FDB
:102878002D0EF16FD70EE82EFED7F12FFCD7F22FD1
:10288800FAD700D0010EEBEC30F09C0E0001F16F8E
:10289800D70EE82EFED7F12FFCD7800EEBEC30F0E8
:1028A800340E0001F16FF10EE82EFED7F12FFCD7A0
:1028B80000D0FE0E0001D16FFD0ED26F9FC0D3F085
:1028C800A0C0D4F02AEC19F00D0E0001F26F2D0E05
:1028D800F16FD70EE82EFED7F12FFCD7F22FFAD7DB
:1028E80000D0010EEBEC30F09C0E0001F16FD70E1A
:1028F800E82EFED7F12FFCD7800EEBEC30F0340E2B
:102908000001F16FF10EE82EFED7F12FFCD700D0B1
:10291800F28E8B909490F296F086F28E000E676E8F
:10292800010E666E200E0001D16FFE0ED26F2AECEA
:1029380019F0C00EEBEC30F0A40E0001D16FFD0EC3
:10294800D26F2AEC19F0190E0001F26F5A0EF16FCE
:10295800B10EE82EFED7F12FFCD7F22FFAD700D010
:1029680005EC2FF0800EEBEC30F0340E0001F16F27
:10297800F10EE82EFED7F12FFCD700D0610E000132
:10298800D16FFF0ED26F2AEC19F0C00EEBEC30F0CD
:10299800860E0001D16FFF0ED26F2AEC19F0050EDA
:1029A8000001F26F0F0EF16FF10EE82EFED7F12F36
:1029B800FCD7F22FFAD7800EEBEC30F0340E000182
:1029C800F16FF10EE82EFED7F12FFCD700D064048A
:1029D8006510D8A4A2D734EC28F0000E0001B66F19
:1029E800000EB56F4AEF0FF0040EFDEC2FF0D00E7D
:1029F8000001E46FC90EE82EFED7E42FFCD700D003
:102A0800E90EF66EFC0EF76E000EF86E0800F5CFB4
:102A1800D1F0000E0001D26FE80EF66EFC0EF76ED4
:102A2800000EF86E0800F5CFD3F0A10EF66EFC0E7E
:102A3800F76E000EF86E0900F5CFD4F00900F5CF57
:102A4800D5F00900F5CFD6F00A00F5CFD7F0000E83
:102A5800A8EC26F0180E0001D16F340ED26F500E7C
:102A6800D36F990EF66EFC0EF76E000EF86E090025
:102A7800F5CFD4F00900F5CFD5F00900F5CFD6F0A1
:102A88000A00F5CFD7F0140EA8EC26F01C0E0001B2
:102A9800D16F2C0ED26F340ED36F990EF66EFC0EDA
:102AA800F76E000EF86E0900F5CFD4F00900F5CFE7
:102AB800D5F00900F5CFD6F00A00F5CFD7F0180EFB
:102AC800A8EC26F0200E0001D16F240ED26F2C0E38
:102AD800D36F990EF66EFC0EF76E000EF86E0900B5
:102AE800F5CFD4F00900F5CFD5F00900F5CFD6F031
:102AF8000A00F5CFD7F01C0EA8EC26F0240E000132
:102B0800D16F200ED26F240ED36F990EF66EFC0E85
:102B1800F76E000EF86E0900F5CFD4F00900F5CF76
:102B2800D5F00900F5CFD6F00A00F5CFD7F0200E82
:102B3800A8EC26F02C0E0001D16F1C0ED26F200ECF
:102B4800D36F990EF66EFC0EF76E000EF86E090044
:102B5800F5CFD4F00900F5CFD5F00900F5CFD6F0C0
:102B68000A00F5CFD7F0240EA8EC26F0340E0001A9
:102B7800D16F180ED26F1C0ED36F990EF66EFC0E25
:102B8800F76E000EF86E0900F5CFD4F00900F5CF06
:102B9800D5F00900F5CFD6F00A00F5CFD7F02C0E06
:102BA800A8EC26F0500E0001D16F140ED26F180E4B
:102BB800D36F990EF66EFC0EF76E000EF86E0900D4
:102BC800F5CFD4F00900F5CFD5F00900F5CFD6F050
:102BD8000A00F5CFD7F0340EA8EC26F0580E000105
:102BE800D16F180ED26F1C0ED36F990EF66EFC0EB5
:102BF800F76E000EF86E0900F5CFD4F00900F5CF96
:102C0800D5F00900F5CFD6F00A00F5CFD7F0500E71
:102C1800A8EC26F0600E0001D16F1C0ED26F200EBA
:102C2800D36F990EF66EFC0EF76E000EF86E090063
:102C3800F5CFD4F00900F5CFD5F00900F5CFD6F0DF
:102C48000A00F5CFD7F0580EA8EC26F0640E000164
:102C5800D16F200ED26F240ED36F990EF66EFC0E34
:102C6800F76E000EF86E0900F5CFD4F00900F5CF25
:102C7800D5F00900F5CFD6F00A00F5CFD7F0600EF1
:102C8800A8EC26F0680E0001D16F240ED26F2C0E2E
:102C9800D36F990EF66EFC0EF76E000EF86E0900F3
:102CA800F5CFD4F00900F5CFD5F00900F5CFD6F06F
:102CB8000A00F5CFD7F0640EA8EC26F06C0E0001E0
:102CC800D16F2C0ED26F340ED36F990EF66EFC0EA8
:102CD800F76E000EF86E0900F5CFD4F00900F5CFB5
:102CE800D5F00900F5CFD6F00A00F5CFD7F0680E79
:102CF800A8EC26F0700E0001D16F340ED26F500E82
:102D0800D36F990EF66EFC0EF76E000EF86E090082
:102D1800F5CFD4F00900F5CFD5F00900F5CFD6F0FE
:102D28000A00F5CFD7F06C0EA8EC26F06C0E000167
:102D3800D16F500ED26F580ED36F990EF66EFC0EEF
:102D4800F76E000EF86E0900F5CFD4F00900F5CF44
:102D5800D5F00900F5CFD6F00A00F5CFD7F0680E08
:102D6800A8EC26F0700E0001D16F580ED26F600EDD
:102D7800D36F990EF66EFC0EF76E000EF86E090012
:102D8800F5CFD4F00900F5CFD5F00900F5CFD6F08E
:102D98000A00F5CFD7F06C0EA8EC26F06C0E0001F7
:102DA800D16F500ED26F580ED36F990EF66EFC0E7F
:102DB800F76E000EF86E0900F5CFD4F00900F5CFD4
:102DC800D5F00900F5CFD6F00A00F5CFD7F0680E98
:102DD800A8EC26F0680E0001D16F580ED26F600E75
:102DE800D36F990EF66EFC0EF76E000EF86E0900A2
:102DF800F5CFD4F00900F5CFD5F00900F5CFD6F01E
:102E08000A00F5CFD7F0640EA8EC26F0640E000196
:102E1800D16F600ED26F640ED36F990EF66EFC0EF2
:102E2800F76E000EF86E0900F5CFD4F00900F5CF63
:102E3800D5F00900F5CFD6F00A00F5CFD7F0600E2F
:102E4800A8EC26F0600E0001D16F640ED26F680EF8
:102E5800D36F990EF66EFC0EF76E000EF86E090031
:102E6800F5CFD4F00900F5CFD5F00900F5CFD6F0AD
:102E78000A00F5CFD7F0580EA8EC26F0580E00013E
:102E8800D16F680ED26F6C0ED36F990EF66EFC0E72
:102E9800F76E000EF86E0900F5CFD4F00900F5CFF3
:102EA800D5F00900F5CFD6F00A00F5CFD7F0500ECF
:102EB800A8EC26F0500E0001D16F6C0ED26F700E88
:102EC800D36F990EF66EFC0EF76E000EF86E0900C1
:102ED800F5CFD4F00900F5CFD5F00900F5CFD6F03D
:102EE8000A00F5CFD7F0340EA8EC26F0340E000116
:102EF800D16F680ED26F6C0ED36F990EF66EFC0E02
:102F0800F76E000EF86E0900F5CFD4F00900F5CF82
:102F1800D5F00900F5CFD6F00A00F5CFD7F02C0E82
:102F2800A8EC26F02C0E0001D16F640ED26F680E4B
:102F3800D36F990EF66EFC0EF76E000EF86E090050
:102F4800F5CFD4F00900F5CFD5F00900F5CFD6F0CC
:102F58000A00F5CFD7F0240EA8EC26F0240E0001C5
:102F6800D16F600ED26F640ED36F990EF66EFC0EA1
:102F7800F76E000EF86E0900F5CFD4F00900F5CF12
:102F8800D5F00900F5CFD6F00A00F5CFD7F0200E1E
:102F9800A8EC26F0200E0001D16F580ED26F600EFB
:102FA800D36F990EF66EFC0EF76E000EF86E0900E0
:102FB800F5CFD4F00900F5CFD5F00900F5CFD6F05C
:102FC8000A00F5CFD7F01C0EA8EC26F01C0E000165
:102FD800D16F500ED26F580ED36F990EF66EFC0E4D
:102FE800F76E000EF86E0900F5CFD4F00900F5CFA2
:102FF800D5F00900F5CFD6F00A00F5CFD7F0180EB6
:10300800A8EC26F0380E0001D16F380ED26F440EAE
:10301800D36F990EF66EFC0EF76E000EF86E09006F
:10302800F5CFD4F00900F5CFD5F00900F5CFD6F0EB
:103038000A00F5CFD7F0340EA8EC26F03C0E0001BC
:10304800D16F340ED26F380ED36F990EF66EFC0E18
:10305800F76E000EF86E0900F5CFD4F00900F5CF31
:10306800D5F00900F5CFD6F00A00F5CFD7F0380E25
:10307800A8EC26F01C0E0001D16F2C0ED26F340E76
:10308800D36F990EF66EFC0EF76E000EF86E0900FF
:10309800F5CFD4F00900F5CFD5F00900F5CFD6F07B
:1030A8000A00F5CFD7F0180EA8EC26F0480E00015C
:1030B800D16F300ED26F340ED36F990EF66EFC0EB0
:1030C800F76E000EF86E0900F5CFD4F00900F5CFC1
:1030D800D5F00900F5CFD6F00A00F5CFD7F03C0EB1
:1030E800A8EC26F04C0E0001D16F340ED26F380ECA
:1030F800D36F990EF66EFC0EF76E000EF86E09008F
:10310800F5CFD4F00900F5CFD5F00900F5CFD6F00A
:103118000A00F5CFD7F0480EA8EC26F0500E0001B3
:10312800D16F380ED26F440ED36F990EF66EFC0E27
:10313800F76E000EF86E0900F5CFD4F00900F5CF50
:10314800D5F00900F5CFD6F00A00F5CFD7F04C0E30
:10315800A8EC26F04C0E0001D16F440ED26F480E39
:10316800D36F990EF66EFC0EF76E000EF86E09001E
:10317800F5CFD4F00900F5CFD5F00900F5CFD6F09A
:103188000A00F5CFD7F0480EA8EC26F0480E00014B
:10319800D16F480ED26F4C0ED36F990EF66EFC0E9F
:1031A800F76E000EF86E0900F5CFD4F00900F5CFE0
:1031B800D5F00900F5CFD6F00A00F5CFD7F03C0ED0
:1031C800A8EC26F03C0E0001D16F400ED26F440EE1
:1031D800D36F990EF66EFC0EF76E000EF86E0900AE
:1031E800F5CFD4F00900F5CFD5F00900F5CFD6F02A
:1031F8000A00F5CFD7F0380EA8EC26F0380E0001FB
:10320800D16F380ED26F440ED36F990EF66EFC0E46
:10321800F76E000EF86E0900F5CFD4F00900F5CF6F
:10322800D5F00900F5CFD6F00A00F5CFD7F0340E67
:10323800A8EC26F0A00E0001D06F860ED16F010E0B
:10324800D26F000ED36F26EC2EF01200D30E0001C1
:10325800E36F000EE46F0FD2250EEC19D8B404D03A
:10326800EC51DFEC30F007D2000E0001EB6F000EDE
:10327800EA6F000EE96F04D00001E985D14BD22B2B
:10328800D1C0F6FFD2C0F7FFF86A0800F550300A3F
:10329800D8B4F2D7D1C0F6FFD2C0F7FFF86A080059
:1032A800F550BFEC30F0D8A0AED0000E0001EB6FA7
:1032B800000EEA6FEAC0CBF0EBC0CCF0000E0001C4
:1032C800CE6F0A0ECD6F72EC30F0CBC0EAF0CCC0F6
:1032D800EBF0D00E0001DB6FFF0EDC6FD1C0F6FF04
:1032E800D2C0F7FFF86A0800F550DD6FDE6BDB51DE
:1032F800DD27DC51DE23DD51EA27DE51EB23D14BFC
:10330800D22BD1C0F6FFD2C0F7FFF86A0800F550FB
:10331800BFEC30F0D8A077D0CDD70001E98F8FD09F
:10332800E3C0D9FFE4C0DAFFDECFE1F0DDCFE2F0A1
:10333800020EE327000EE423E151E211D8A404D0E1
:10334800970EE16FFF0EE26F000EE66F000EE56F5D
:1033580003D00001E54BE62BE551E125DB6FE65193
:10336800E221DC6FDBC0F6FFDCC0F7FF000EF86E71
:103378000F0EF76403D00800F55005D0F6CFE9FF2B
:10338800F7CFEAFFEF500009D8A4E3D70001EA51CC
:10339800E55DEB51E659D8B005D0E551EA5FE65155
:1033A800EB5B08D0000EEB6F000EEA6F03D0200E27
:1033B800DFEC30F00001EA07D8A0EB07EA29F7E1D3
:1033C800EB29D8B417D0F3D7E1C0F6FFE2C0F7FF76
:1033D800000EF86E0F0EF76403D00800F55005D004
:1033E800F6CFE9FFF7CFEAFFEF50DFEC30F000014E
:1033F800E14BE22BE507D8A0E607E529E5E1E62958
:10340800D8B439D1E1D7D1C0F6FFD2C0F7FF000157
:10341800D14BD22BF86A0800F5CFECF0EC51000A3A
:10342800D8B41200640AD8B40AD00D0AD8B407D0A8
:103438001A0AD8B475D70B0AD8B46FD71CD10001B3
:10344800E9BF15D0E3C0D9FFE4C0DAFFDECFE7F06B
:10345800DDCFE8F0020EE327000EE423E8AF4AD000
:10346800030EE913E76DE81FD8B0E82B43D0E3C09B
:10347800D9FFE4C0DAFFDECFE7F0DDCFE8F0020ED7
:10348800E327000EE42336D0010EEC6F050EEC198D
:10349800D8B438D0EC51020D640EF324F66EFC0E4D
:1034A800F420F76EF86A000EF8220900F550E75D7F
:1034B8000900F550E859D8A025D0EC2BE7D7010E24
:1034C800EC6F040EEC19D8B41DD0EC51020D6E0E41
:1034D800F324F66EFC0EF420F76EF86A000EF8225C
:1034E8000900F550E75D0900F550E859D8A00AD061
:1034F800EC2BE7D7E951800B000AD8B4C5D7800A6E
:10350800D8B4DDD7EA51EB11D8B409D0E9C0DBF063
:10351800030EDB17D8B403D0EA07D8A0EB07800E58
:10352800ECBF7F0EDB6FEA51EC5DEB51800ADB5993
:10353800D8B007D0EC51EA5F000EECBFFF0EEB5B92
:1035480004D0000EEB6F000EEA6FE9A516D0E9C0B3
:10355800DBF0030EDB17D8B403D02D0EDFEC30F010
:103568000001EA51EB11D8B420D0300EDFEC30F076
:103578000001EA07D8A0EB07F4D7EA51EB11D8B459
:103588000BD0200EDFEC30F00001EA07D8A0EB07E3
:10359800EA51EB11D8A4F5D7E9C0DBF0030EDB172D
:1035A800D8B403D02D0EDFEC30F0ECC0E0F05ED0E4
:1035B8000001E051020D640EF324F66EFC0EF420B7
:1035C800F76EF86A000EF8220900F5CFC5F00A0078
:1035D800F5CFC6F0E7C0C3F0E8C0C4F0B2EC2EF0F7
:1035E800C3C0CAF0C4C0CBF0000E0001CD6F0A0EF4
:1035F800CC6F99EC2FF00001CA51300FEC6F33D02B
:10360800E7C0C3F0E8C0C4F0E051020D6E0EF32429
:10361800F66EFC0EF420F76EF86A000EF822090028
:10362800F5CFC5F00A00F5CFC6F0B2EC2EF00001D8
:10363800C3510F0BDF6FDF51010DDC0EF324F66E63
:10364800FD0EF420F76EF86A000EF8220800F5CF98
:10365800ECF009D00001E951800B000AD8B4A8D7D2
:10366800800AD8B4CDD7EC51DFEC30F00001E00788
:10367800E029D8A4EFD7D1C0F6FFD2C0F7FF0001E8
:10368800D14BD22BF86A0800F5CFECF0EC51D8B446
:103698001200E2D50F0E1D6E000E1E6EFAD1250E19
:1036A8002618D8B404D026500BEC31F0F2D1000E15
:1036B800256E000E246E000E236E03D023840D4A5F
:1036C8000E2A0DC0F6FF0EC0F7FFF86A0800F55085
:1036D800300AD8B4F3D70DC0F6FF0EC0F7FFF86A6A
:1036E8000800F550D0EC30F0D8A0A6D0000E256E1A
:1036F800000E246E24C001F025C002F0000E046EF6
:103708000A0E036E9AEC30F001C024F002C025F0D6
:10371800D00E156EFF0E166E0DC0F6FF0EC0F7FF29
:10372800F86A0800F550176E186A155017261650D3
:10373800182217502426185025220D4A0E2A0DC08B
:10374800F6FF0EC0F7FFF86A0800F550D0EC30F02D
:10375800D8A072D0CFD7238E8AD01DC0D9FF1EC063
:10376800DAFFDECF1BF0DDCF1CF0020E1D26000EA7
:103778001E221B501C10D8A404D0970E1B6EFF0EDF
:103788001C6E000E206E000E1F6E02D01F4A202AEB
:103798001F501B24156E20501C20166E15C0F6FFF6
:1037A80016C0F7FF000EF86E0F0EF76403D008007E
:1037B800F55005D0F6CFE9FFF7CFEAFFEF50000943
:1037C800D8A4E4D724501F5C25502058D8B005D081
:1037D8001F50245E2050255A08D0000E256E000E7A
:1037E800246E03D0200E0BEC31F02406D8A0250659
:1037F8002428F8E12528D8B416D0F4D71BC0F6FF42
:103808001CC0F7FF000EF86E0F0EF76403D0080017
:10381800F55005D0F6CFE9FFF7CFEAFFEF500BECF4
:1038280031F01B4A1C2A1F06D8A020061F28E6E1F3
:103838002028D8B42ED1E2D70DC0F6FF0EC0F7FF6E
:103848000D4A0E2AF86A0800F5CF26F02650000A1D
:10385800D8B41200640AD8B40AD00D0AD8B407D074
:103868001A0AD8B47AD70B0AD8B475D712D123BE9E
:1038780015D01DC0D9FF1EC0DAFFDECF21F0DDCF85
:1038880022F0020E1D26000E1E2222AE4AD0030E82
:103898002312216C221ED8B0222A43D01DC0D9FF82
:1038A8001EC0DAFFDECF21F0DDCF22F0020E1D268A
:1038B800000E1E2236D0010E266E050E2618D8B42C
:1038C80038D02650020D640EF324F66EFC0EF42058
:1038D800F76EF86A000EF8220900F550215C09001D
:1038E800F5502258D8A025D0262AE7D7010E266EF3
:1038F800040E2618D8B41DD02650020D6E0EF324DF
:10390800F66EFC0EF420F76EF86A000EF822090035
:10391800F550215C0900F5502258D8A00AD0262A73
:10392800E7D72350800B000AD8B4C5D7800AD8B48B
:10393800DDD724502510D8B409D023C015F0030EC4
:103948001516D8B403D02406D8A02506800E26BEA6
:103958007F0E156E2450265C2550800A1558D8B065
:1039680007D02650245E000E26BEFF0E255A04D02E
:10397800000E256E000E246E23A414D023C015F06B
:10398800030E1516D8B403D02D0E0BEC31F02450CD
:103998002510D8B41ED0300E0BEC31F02406D8A078
:1039A8002506F5D724502510D8B40AD0200E0BECE4
:1039B80031F02406D8A0250624502510D8A4F6D71F
:1039C80023C015F0030E1516D8B403D02D0E0BEC3A
:1039D80031F026C01AF059D01A50020D640EF324A3
:1039E800F66EFC0EF420F76EF86A000EF822090055
:1039F800F5CF03F00A00F5CF04F021C001F022C092
:103A080002F0DCEC2EF001C008F002C009F0000E54
:103A18000B6E0A0E0A6EBBEC2FF00850300F266EA4
:103A280031D021C001F022C002F01A50020D6E0EF2
:103A3800F324F66EFC0EF420F76EF86A000EF822F6
:103A48000900F5CF03F00A00F5CF04F0DCEC2EF006
:103A580001500F0B196E1950010DDC0EF324F66E90
:103A6800FD0EF420F76EF86A000EF8220800F5CF74
:103A780026F008D02350800B000AD8B4ADD7800AAE
:103A8800D8B4CFD726500BEC31F01A061A28D8A490
:103A9800F1D70DC0F6FF0EC0F7FF0D4A0E2AF86ADF
:103AA8000800F5CF26F02650D8B41200F8D58C803F
:103AB8008C8295909592040EFDEC2FF0D00E0001AB
:103AC800E46FC90EE82EFED7E42FFCD700D0010E14
:103AD8000001C66FC60EF66EFC0EF76E000EF86E8D
:103AE8000800F55032EC30F0060E0001E56F470E85
:103AF800E46FA00EE82EFED7E42FFCD7E52FFAD707
:103B080000F0010E0001C66FC40EF66EFC0EF76ED3
:103B1800000EF86E0800F55032EC30F0060E000189
:103B2800E56F470EE46FA00EE82EFED7E42FFCD712
:103B3800E52FFAD700F0010E0001C66FB20EF66E3F
:103B4800FC0EF76E000EF86E0800F55032EC30F0FF
:103B5800000E0001C66F000E32EC30F0000E0001BE
:103B6800C66F060E32EC30F0000E0001C66F030E71
:103B780032EC30F0010E0001C66FB10EF66EFC0E8D
:103B8800F76E000EF86E0800F55032EC30F0000EBB
:103B98000001C66F010E32EC30F0000E0001C66F56
:103BA8002C0E32EC30F0000E0001C66F2D0E32ECF8
:103BB80030F0010E0001C66FB00EF66EFC0EF76E07
:103BC800000EF86E0800F55032EC30F0000E0001DF
:103BD800C66F010E32EC30F0000E0001C66F2C0EDD
:103BE80032EC30F0000E0001C66F2D0E32EC30F0D2
:103BF800010E0001C66FAF0EF66EFC0EF76E000EDA
:103C0800F86E0800F55032EC30F0000E0001C66F77
:103C1800000E32EC30F0010E0001C66FAE0EF66EEB
:103C2800FC0EF76E000EF86E0800F55032EC30F01E
:103C3800000E0001C66FA20E32EC30F0000E00013B
:103C4800C66F020E32EC30F0000E0001C66F840E13
:103C580032EC30F0010E0001C66FAD0EF66EFC0EB0
:103C6800F76E000EF86E0800F55032EC30F0000EDA
:103C78000001C66FC50E32EC30F0010E0001C66FB0
:103C8800AC0EF66EFC0EF76E000EF86E0800F550DE
:103C980032EC30F0000E0001C66F0A0E32EC30F044
:103CA800000E0001C66F000E32EC30F0010E00016C
:103CB800C66FAB0EF66EFC0EF76E000EF86E0800BF
:103CC800F55032EC30F0000E0001C66F8A0E32EC6F
:103CD80030F0000E0001C66F2A0E32EC30F0010EF3
:103CE8000001C66FAA0EF66EFC0EF76E000EF86E97
:103CF8000800F55032EC30F0000E0001C66F8A0E55
:103D080032EC30F0000E0001C66F2A0E32EC30F0B3
:103D1800010E0001C66FA90EF66EFC0EF76E000EBE
:103D2800F86E0800F55032EC30F0000E0001C66F56
:103D38003C0E32EC30F0010E0001C66FC10EF66E7B
:103D4800FC0EF76E000EF86E0800F55032EC30F0FD
:103D5800120E56EC2EF0010E0001C66FBF0EF66E65
:103D6800FC0EF76E000EF86E0800F55032EC30F0DD
:103D7800000E0001C66F010E32EC30F0010E00019A
:103D8800C66FB50EF66EFC0EF76E000EF86E0800E4
:103D9800F55032EC30F0010E0001C66FC20EF66E1F
:103DA800FC0EF76E000EF86E0800F55032EC30F09D
:103DB8000001B98DB98FB98BB999B997B995010E29
:103DC800C66FB60EF66EFC0EF76E000EF86E0800A3
:103DD800F55032EC30F0000E0001C66FB95132ECEC
:103DE80030F0E90EF66EFC0EF76E000EF86E080065
:103DF800F5CFD1F0000E0001D26FE80EF66EFC0E82
:103E0800F76E000EF86E0800F5CFD3F0A10EF66E2F
:103E1800FC0EF76E000EF86E0900F5CFD4F009001D
:103E2800F5CFD5F00900F5CFD6F00A00F5CFD7F0D9
:103E3800000EA8EC26F0010E0001C66FBD0EF66E4E
:103E4800FC0EF76E000EF86E0800F55032EC30F0FC
:103E5800680E0001E46FE40EE82EFED7E42FFCD7CD
:103E680000F01200040EFDEC2FF0D00E0001E46FFC
:103E7800C90EE82EFED7E42FFCD700D0E90EF66E67
:103E8800FC0EF76E000EF86E0800F5CFD1F0000EAC
:103E98000001D26FE80EF66EFC0EF76E000EF86E9B
:103EA8000800F5CFD3F0A10EF66EFC0EF76E000EEB
:103EB800F86E0900F5CFD4F00900F5CFD5F0090068
:103EC800F5CFD6F00A00F5CFD7F0000EA8EC26F013
:103ED8002C0E0001D16F240ED26F2C0ED36F990EC9
:103EE800F66EFC0EF76E000EF86E0900F5CFD4F0F2
:103EF8000900F5CFD5F00900F5CFD6F00A00F5CFC7
:103F0800D7F0140EA8EC26F0240E0001D16F2C0E69
:103F1800D26F400ED36F990EF66EFC0EF76E000E40
:103F2800F86E0900F5CFD4F00900F5CFD5F00900F7
:103F3800F5CFD6F00A00F5CFD7F0200EA8EC26F082
:103F4800440E0001D16F240ED26F2C0ED36F990E40
:103F5800F66EFC0EF76E000EF86E0900F5CFD4F081
:103F68000900F5CFD5F00900F5CFD6F00A00F5CF56
:103F7800D7F0300EA8EC26F0440E0001D16F2C0EBD
:103F8800D26F400ED36F990EF66EFC0EF76E000ED0
:103F9800F86E0900F5CFD4F00900F5CFD5F0090087
:103FA800F5CFD6F00A00F5CFD7F0400EA8EC26F0F2
:103FB800400E0001D16F300ED26F340ED36F990EC0
:103FC800F66EFC0EF76E000EF86E0900F5CFD4F011
:103FD8000900F5CFD5F00900F5CFD6F00A00F5CFE6
:103FE800D7F0300EA8EC26F0400E0001D16F380E45
:103FF800D26F400ED36F990EF66EFC0EF76E000E60
:10400800F86E0900F5CFD4F00900F5CFD5F0090016
:10401800F5CFD6F00A00F5CFD7F0300EA8EC26F091
:104028004C0E0001D16F240ED26F380ED36F990E4B
:10403800F66EFC0EF76E000EF86E0900F5CFD4F0A0
:104048000900F5CFD5F00900F5CFD6F00A00F5CF75
:10405800D7F0480EA8EC26F05C0E0001D16F300EA8
:10406800D26F380ED36F990EF66EFC0EF76E000EF7
:10407800F86E0900F5CFD4F00900F5CFD5F00900A6
:10408800F5CFD6F00A00F5CFD7F04C0EA8EC26F005
:10409800580E0001D16F240ED26F400ED36F990EC7
:1040A800F66EFC0EF76E000EF86E0900F5CFD4F030
:1040B8000900F5CFD5F00900F5CFD6F00A00F5CF05
:1040C800D7F0540EA8EC26F0640E0001D16F280E2C
:1040D800D26F340ED36F950EF66EFC0EF76E000E8F
:1040E800F86E0900F5CFD4F00900F5CFD5F0090036
:1040F800F5CFD6F00A00F5CFD7F0600EA8EC26F081
:104108006C0E0001D16F240ED26F380ED36F950E4E
:10411800F66EFC0EF76E000EF86E0900F5CFD4F0BF
:104128000900F5CFD5F00900F5CFD6F00A00F5CF94
:10413800D7F0640EA8EC26F0700E0001D16F280E9F
:10414800D26F3C0ED36F950EF66EFC0EF76E000E16
:10415800F86E0900F5CFD4F00900F5CFD5F00900C5
:10416800F5CFD6F00A00F5CFD7F06C0EA8EC26F004
:10417800780E0001D16F240ED26F380ED36F950ED2
:10418800F66EFC0EF76E000EF86E0900F5CFD4F04F
:104198000900F5CFD5F00900F5CFD6F00A00F5CF24
:1041A800D7F0700EA8EC26F07C0E0001D16F280E17
:1041B800D26F340ED36F950EF66EFC0EF76E000EAE
:1041C800F86E0900F5CFD4F00900F5CFD5F0090055
:1041D800F5CFD6F00A00F5CFD7F0780EA8EC26F088
:1041E800A00E0001D06F860ED16F010ED26F000EA7
:1041F800D36F26EC2EF01200040EFDEC2FF0D00E3B
:104208000001E46FC90EE82EFED7E42FFCD700D0DA
:10421800E90EF66EFC0EF76E000EF86E0800F5CF8C
:10422800D1F0000E0001D26FE80EF66EFC0EF76EAC
:10423800000EF86E0800F5CFD3F0A10EF66EFC0E56
:10424800F76E000EF86E0900F5CFD4F00900F5CF2F
:10425800D5F00900F5CFD6F00A00F5CFD7F0000E5B
:10426800A8EC26F01C0E0001D16F300ED26F440E60
:10427800D36F990EF66EFC0EF76E000EF86E0900FD
:10428800F5CFD4F00900F5CFD5F00900F5CFD6F079
:104298000A00F5CFD7F0180EA8EC26F0440E00015E
:1042A800D16F3C0ED26F400ED36F990EF66EFC0E96
:1042B800F76E000EF86E0900F5CFD4F00900F5CFBF
:1042C800D5F00900F5CFD6F00A00F5CFD7F0400EAB
:1042D800A8EC26F0200E0001D16F2C0ED26F300E04
:1042E800D36F990EF66EFC0EF76E000EF86E09008D
:1042F800F5CFD4F00900F5CFD5F00900F5CFD6F009
:104308000A00F5CFD7F01C0EA8EC26F05C0E0001D1
:10431800D16F280ED26F2C0ED36F990EF66EFC0E4D
:10432800F76E000EF86E0900F5CFD4F00900F5CF4E
:10433800D5F00900F5CFD6F00A00F5CFD7F0200E5A
:10434800A8EC26F0240E0001D16F340ED26F3C0E7B
:10435800D36F990EF66EFC0EF76E000EF86E09001C
:10436800F5CFD4F00900F5CFD5F00900F5CFD6F098
:104378000A00F5CFD7F0200EA8EC26F0280E000191
:10438800D16F380ED26F400ED36F990EF66EFC0EB9
:10439800F76E000EF86E0900F5CFD4F00900F5CFDE
:1043A800D5F00900F5CFD6F00A00F5CFD7F0240EE6
:1043B800A8EC26F02C0E0001D16F2C0ED26F300E17
:1043C800D36F990EF66EFC0EF76E000EF86E0900AC
:1043D800F5CFD4F00900F5CFD5F00900F5CFD6F028
:1043E8000A00F5CFD7F0280EA8EC26F0300E000111
:1043F800D16F300ED26F440ED36F990EF66EFC0E4D
:10440800F76E000EF86E0900F5CFD4F00900F5CF6D
:10441800D5F00900F5CFD6F00A00F5CFD7F02C0E6D
:10442800A8EC26F0200E0001D16F440ED26F480E82
:10443800D36F990EF66EFC0EF76E000EF86E09003B
:10444800F5CFD4F00900F5CFD5F00900F5CFD6F0B7
:104458000A00F5CFD7F01C0EA8EC26F02C0E0001B0
:10446800D16F440ED26F480ED36F990EF66EFC0EC4
:10447800F76E000EF86E0900F5CFD4F00900F5CFFD
:10448800D5F00900F5CFD6F00A00F5CFD7F0280E01
:10449800A8EC26F05C0E0001D16F480ED26F4C0ECE
:1044A800D36F990EF66EFC0EF76E000EF86E0900CB
:1044B800F5CFD4F00900F5CFD5F00900F5CFD6F047
:1044C8000A00F5CFD7F0200EA8EC26F0600E000108
:1044D800D16F440ED26F480ED36F990EF66EFC0E54
:1044E800F76E000EF86E0900F5CFD4F00900F5CF8D
:1044F800D5F00900F5CFD6F00A00F5CFD7F05C0E5D
:10450800A8EC26F0600E0001D16F2C0ED26F300E91
:10451800D36F990EF66EFC0EF76E000EF86E09005A
:10452800F5CFD4F00900F5CFD5F00900F5CFD6F0D6
:104538000A00F5CFD7F05C0EA8EC26F0640E000157
:10454800D16F300ED26F440ED36F990EF66EFC0EFB
:10455800F76E000EF86E0900F5CFD4F00900F5CF1C
:10456800D5F00900F5CFD6F00A00F5CFD7F0600EE8
:10457800A8EC26F0A00E0001D06F860ED16F010EB8
:10458800D26F000ED36F26EC2EF01200040EFDEC55
:104598002FF0D00E0001E46FC90EE82EFED7E42FED
:1045A800FCD700D0E90EF66EFC0EF76E000EF86E22
:1045B8000800F5CFD1F0000E0001D26FE80EF66EBC
:1045C800FC0EF76E000EF86E0800F5CFD3F0A10EC2
:1045D800F66EFC0EF76E000EF86E0900F5CFD4F0FB
:1045E8000900F5CFD5F00900F5CFD6F00A00F5CFD0
:1045F800D7F0000EA8EC26F0380E0001D16F380E67
:10460800D26F440ED36F990EF66EFC0EF76E000E45
:10461800F86E0900F5CFD4F00900F5CFD5F0090000
:10462800F5CFD6F00A00F5CFD7F0340EA8EC26F077
:104638003C0E0001D16F340ED26F380ED36F990E35
:10464800F66EFC0EF76E000EF86E0900F5CFD4F08A
:104658000900F5CFD5F00900F5CFD6F00A00F5CF5F
:10466800D7F0380EA8EC26F01C0E0001D16F2C0EE6
:10467800D26F340ED36F990EF66EFC0EF76E000EE5
:10468800F86E0900F5CFD4F00900F5CFD5F0090090
:10469800F5CFD6F00A00F5CFD7F0180EA8EC26F023
:1046A800480E0001D16F300ED26F340ED36F990EC1
:1046B800F66EFC0EF76E000EF86E0900F5CFD4F01A
:1046C8000900F5CFD5F00900F5CFD6F00A00F5CFEF
:1046D800D7F03C0EA8EC26F04C0E0001D16F340E3A
:1046E800D26F380ED36F990EF66EFC0EF76E000E71
:1046F800F86E0900F5CFD4F00900F5CFD5F0090020
:10470800F5CFD6F00A00F5CFD7F0480EA8EC26F082
:10471800500E0001D16F380ED26F440ED36F990E30
:10472800F66EFC0EF76E000EF86E0900F5CFD4F0A9
:104738000900F5CFD5F00900F5CFD6F00A00F5CF7E
:10474800D7F04C0EA8EC26F04C0E0001D16F440EA9
:10475800D26F480ED36F990EF66EFC0EF76E000EF0
:10476800F86E0900F5CFD4F00900F5CFD5F00900AF
:10477800F5CFD6F00A00F5CFD7F0480EA8EC26F012
:10478800480E0001D16F480ED26F4C0ED36F990EB0
:10479800F66EFC0EF76E000EF86E0900F5CFD4F039
:1047A8000900F5CFD5F00900F5CFD6F00A00F5CF0E
:1047B800D7F03C0EA8EC26F03C0E0001D16F400E5D
:1047C800D26F440ED36F990EF66EFC0EF76E000E84
:1047D800F86E0900F5CFD4F00900F5CFD5F009003F
:1047E800F5CFD6F00A00F5CFD7F0380EA8EC26F0B2
:1047F800380E0001D16F380ED26F440ED36F990E68
:10480800F66EFC0EF76E000EF86E0900F5CFD4F0C8
:104818000900F5CFD5F00900F5CFD6F00A00F5CF9D
:10482800D7F0340EA8EC26F0440E0001D16F3C0EF0
:10483800D26F400ED36F990EF66EFC0EF76E000E17
:10484800F86E0900F5CFD4F00900F5CFD5F00900CE
:10485800F5CFD6F00A00F5CFD7F0400EA8EC26F039
:10486800A00E0001D06F860ED16F010ED26F000E20
:10487800D36F26EC2EF012001CD1000E0001816FC0
:10488800010E806F000E856F010E846F000E896F18
:10489800010E886F000E8D6F010E8C6F000E436E37
:1048A800000E426E000E456E020E446E000E476EFC
:1048B800040E466E000E496E060E486E1200000E7B
:1048C8000001816F010E806F000E836F010E826FF1
:1048D800000E876F010E866F000E896F010E886FBC
:1048E800000E8D6F010E8C6F000E436E000E426E2F
:1048F800000E456E010E446E000E476E030E466EA6
:10490800000E496E040E486E000E4B6E060E4A6E7F
:104918001200000E0001816F010E806F000E836F80
:10492800010E826F000E856F010E846F000E896F75
:10493800010E886F000E8B6F010E8A6F000E8D6F4F
:10494800010E8C6F000E436E000E426E000E456E17
:10495800010E446E000E476E020E466E000E496E42
:10496800040E486E000E4B6E050E4A6E000E4D6E1C
:10497800060E4C6E1200000E0001816F010E806F52
:10498800000E836F010E826F000E856F010E846F1B
:10499800000E876F010E866F000E896F010E886FFB
:1049A800000E8B6F010E8A6F000E8D6F010E8C6FDB
:1049B800000E436E000E426E000E456E010E446EF0
:1049C800000E476E020E466E000E496E030E486ECC
:1049D800000E4B6E040E4A6E000E4D6E050E4C6EA8
:1049E800000E4F6E060E4E6E1200000E0001816F13
:1049F800010E806F000E836F010E826F000E856FAF
:104A0800010E846F000E876F010E866F000E896F8E
:104A1800010E886F000E8B6F010E8A6F000E8D6F6E
:104A2800010E8C6F000E8F6F010E8E6F000E436E9D
:104A3800000E426E000E456E010E446E000E476E6B
:104A4800020E466E000E496E030E486E000E4B6E47
:104A5800040E4A6E000E4D6E050E4C6E000E4F6E23
:104A6800060E4E6E000E516E070E506E1200000EAE
:104A78000001816F000E806F000E836F000E826F41
:104A8800000E856F000E846F000E876F000E866F14
:104A9800000E896F000E886F000E8B6F000E8A6FF4
:104AA800000E8D6F000E8C6F000E8F6F000E8E6FD4
:104AB800120001C003F002C004F00450000AD8A498
:104AC800D6D70350040AD8B4D8D6010AD8B4F7D632
:104AD800030AD8B41ED7010AD8B44DD70F0AD8B4E0
:104AE80084D7C5D717D1000E0001816F010E806FE2
:104AF800000E856F010E846F000E896F010E886F9E
:104B0800000E8D6F010E8C6F000E436E000E426E0C
:104B1800000E456E020E446E000E476E040E466E81
:104B2800000E496E060E486E1200000E816F010ECF
:104B3800806F000E836F010E826F000E876F010E6B
:104B4800866F000E896F010E886F000E8D6F010E43
:104B58008C6F000E436E000E426E000E456E010E05
:104B6800446E000E476E030E466E000E496E040E2C
:104B7800486E000E4B6E060E4A6E1200000E816FD4
:104B8800010E806F000E836F010E826F000E856F1D
:104B9800010E846F000E896F010E886F000E8B6FF7
:104BA800010E8A6F000E8D6F010E8C6F000E436E22
:104BB800000E426E000E456E010E446E000E476EEA
:104BC800020E466E000E496E040E486E000E4B6EC5
:104BD800050E4A6E000E4D6E060E4C6E1200000E4B
:104BE800816F010E806F000E836F010E826F000EC1
:104BF800856F010E846F000E876F010E866F000EA1
:104C0800896F010E886F000E8B6F010E8A6F000E80
:104C18008D6F010E8C6F000E436E000E426E000EFB
:104C2800456E010E446E000E476E020E466E000E73
:104C3800496E030E486E000E4B6E040E4A6E000E4F
:104C48004D6E050E4C6E000E4F6E060E4E6E120027
:104C5800000E816F010E806F000E836F010E826F50
:104C6800000E856F010E846F000E876F010E866F30
:104C7800000E896F010E886F000E8B6F010E8A6F10
:104C8800000E8D6F010E8C6F000E8F6F010E8E6FF0
:104C9800000E436E000E426E000E456E010E446E0D
:104CA800000E476E020E466E000E496E030E486EE9
:104CB800000E4B6E040E4A6E000E4D6E050E4C6EC5
:104CC800000E4F6E060E4E6E000E516E070E506EA1
:104CD8001200000E816F000E806F000E836F000EB1
:104CE800826F000E856F000E846F000E876F000EB6
:104CF800866F000E896F000E886F000E8B6F000E96
:104D08008A6F000E8D6F000E8C6F000E8F6F000E75
:104D18008E6F1200C3C0C5F0C4C0C6F00001C651F2
:104D2800000AD8A4D6D7C551040AD8B4DCD6010ADB
:104D3800D8B4FBD6030AD8B421D7010AD8B44FD7C0
:104D48000F0AD8B485D7C5D70001E36F0001B9BDF4
:104D5800B9AB05D0030ED227030ED32715D0B9AFB0
:104D680008D0020ED227020ED327030EE327030E24
:104D78000ED0B9AD07D0020ED227020ED327E32BEF
:104D8800D12B06D0D22BD32B020EE327020ED1272C
:104D9800010EC66FBB0EF66EFC0EF76E000EF86EB7
:104DA8000800F55032EC30F0000E0001C66F000E1E
:104DB80032EC30F0000E0001C66FE35132EC30F0F7
:104DC800000E0001C66F000E32EC30F0000E00013C
:104DD800C66FD10532EC30F0010E0001C66FBC0E73
:104DE800F66EFC0EF76E000EF86E0800F55032EC09
:104DF80030F0000E0001C66F000E32EC30F0000EED
:104E08000001C66FD25132EC30F0000E0001C66FBF
:104E1800000E32EC30F0000E0001C66FD30532EC04
:104E280030F0010E0001C66FBA0EF66EFC0EF76E7A
:104E3800000EF86E0800F55032EC30F00001E35136
:104E4800D119D8A416D0D251D319D8A412D0000E93
:104E5800C66FD45132EC30F0000E0001C66FD55148
:104E680032EC30F0000E0001C66FD65132EC30F053
:104E780012000001E351D86FD96BD81FD91FD84B46
:104E8800D92BD151D825CB6F000ED921CC6FD25157
:104E9800DA6FDB6BDA1FDB1FDA4BDB2BD351DA253A
:104EA800CD6F000EDB21CE6F72EC30F0CBC0DCF0A2
:104EB800CCC0DDF0D4C0E0F0D5C0E1F0D6C0E2F05F
:104EC8008C908C82000E0001DF6F000EDE6F0ED01A
:104ED800E05128EC31F00001E15128EC31F00001FB
:104EE800E25128EC31F00001DE4BDF2BDC51DE5DB6
:104EF800DD51DF59D8A0ECD78C801200040EFDECF0
:104F08002FF0D00E0001E46FC90EE82EFED7E42F73
:104F1800FCD700D0E90EF66EFC0EF76E000EF86EA8
:104F28000800F5CFD1F0000E0001D26FE80EF66E42
:104F3800FC0EF76E000EF86E0800F5CFD3F0A10E48
:104F4800F66EFC0EF76E000EF86E0900F5CFD4F081
:104F58000900F5CFD5F00900F5CFD6F00A00F5CF56
:104F6800D7F0000EA8EC26F0240E0001D16F200E19
:104F7800D26F500ED36F990EF66EFC0EF76E000EC0
:104F8800F86E0900F5CFD4F00900F5CFD5F0090087
:104F9800F5CFD6F00A00F5CFD7F0140EA8EC26F01E
:104FA800200E0001D16F240ED26F4C0ED36F990ED4
:104FB800F66EFC0EF76E000EF86E0900F5CFD4F011
:104FC8000900F5CFD5F00900F5CFD6F00A00F5CFE6
:104FD800D7F0180EA8EC26F0700E0001D16F2C0E39
:104FE800D26F440ED36F990EF66EFC0EF76E000E5C
:104FF800F86E0900F5CFD4F00900F5CFD5F0090017
:10500800F5CFD6F00A00F5CFD7F0200EA8EC26F0A1
:105018006C0E0001D16F300ED26F400ED36F990E17
:10502800F66EFC0EF76E000EF86E0900F5CFD4F0A0
:105038000900F5CFD5F00900F5CFD6F00A00F5CF75
:10504800D7F0240EA8EC26F0A00E0001D06F860E33
:10505800D16F010ED26F000ED36F26EC2EF0120026
:10506800000E696E000E686E000E0001B66F000E2D
:10507800B56F000EB26F000EB16F000EB06F000E6C
:10508800AF6F000E5B6E000E5A6E000E01018D6F41
:10509800000E8C6F000E766E000E756E000E8B6F14
:1050A800000E8A6F000E596E000E586E000E576E75
:1050B800000E566E000E556E000E546E000E536EA6
:1050C800000E526E000E0001AE6F000EAD6F000EA6
:1050D800AC6F000EAB6F000EAA6F000EA96F000E2A
:1050E800A86F000EA76F000E0101696F000E686FB0
:1050F800000E616F000E606F000E0001B86F000EA9
:10510800B76FB85155E1080EB75DD8B01200D89006
:10511800B735D96EB835DA6E800ED926000EDA2288
:10512800000EDE6E000EDD6ED890B735D96EB8353C
:10513800DA6E420ED926000EDA22000EDE6E000E5E
:10514800DD6ED890B735D96EB835DA6E300ED926FF
:10515800010EDA22000EDE6E000EDD6ED890B73535
:10516800D96EB835DA6E100ED926010EDA22000E85
:10517800DE6E000EDD6ED890B735D96EB835DA6EB2
:10518800200ED926010EDA22000EDE6E000EDD6E2C
:10519800D890B735D96EB835DA6E000ED926010E1B
:1051A800DA22000EDE6E000EDD6EB74BB82BA9D7E3
:1051B8001200F8EC14F0050E0001F06F0F0EEF6FFF
:1051C800F10EE82EFED7EF2FFCD7F02FFAD70B0EF3
:1051D80086EC30F026D0010EEBEC30F09C0E00018E
:1051E800EF6FD70EE82EFED7EF2FFCD7800EEBEC33
:1051F80030F0340E0001EF6FF10EE82EFED7EF2FDE
:10520800FCD700D01E0E00019727000E9823650ECC
:10521800D16FFD0ED26FA7C0D3F0A8C0D4F02AEC8E
:1052280019F00001BB05D8B40AD0ED51975D98512B
:10523800800AEF6FEE51800AEF59D8A0CCD7A7C0EB
:105248009FF0A8C0A0F00C0E86EC30F00001BB0562
:10525800D8B41200050E0001F06F0F0EEF6FF10EBB
:10526800E82EFED7EF2FFCD7F02FFAD7120000EC6C
:1052780021F0050E0001F06F0F0EEF6FF10EE82E12
:10528800FED7EF2FFCD7F02FFAD7390E86EC30F087
:1052980026D0010EEBEC30F09C0E0001EF6FD70E1C
:1052A800E82EFED7EF2FFCD7800EEBEC30F0340E53
:1052B8000001EF6FF10EE82EFED7EF2FFCD700D0DC
:1052C8001E0E00019927000E9A23D90ED16FFF0EEA
:1052D800D26FABC0D3F0ACC0D4F02AEC19F0000107
:1052E800BB05D8B40AD0ED51995D9A51800AEF6F89
:1052F800EE51800AEF59D8A0CCD7ABC0A1F0ACC012
:10530800A2F00A0E86EC30F00001BB05D8B41200FA
:10531800050E0001F06F0F0EEF6FF10EE82EFED7AD
:10532800EF2FFCD7F02FFAD71200CAEC22F0050EA7
:105338000001F06F0F0EEF6FF10EE82EFED7EF2F82
:10534800FCD7F02FFAD7370E86EC30F026D0010EB6
:10535800EBEC30F09C0E0001EF6FD70EE82EFED775
:10536800EF2FFCD7800EEBEC30F0340E0001EF6F1E
:10537800F10EE82EFED7EF2FFCD700D01E0E00014D
:105388009B27000E9C23D40ED16FFF0ED26FA9C0AD
:10539800D3F0AAC0D4F02AEC19F00001BB05D8B4A8
:1053A8000AD0ED519B5D9C51800AEF6FEE51800A47
:1053B800EF59D8A0CCD7A9C0A3F0AAC0A4F0380E42
:1053C80086EC30F00001BB05D8B41200050E0001D0
:1053D800F06F0F0EEF6FF10EE82EFED7EF2FFCD710
:1053E800F02FFAD7120082EC27F0050E0001F06FBB
:1053F8000F0EEF6FF10EE82EFED7EF2FFCD7F02F30
:10540800FAD7350E86EC30F026D0800EEBEC30F073
:10541800340E0001EF6FF10EE82EFED7EF2FFCD708
:1054280000D0010EEBEC30F09C0E0001EF6FD70EB0
:10543800E82EFED7EF2FFCD71E0E00019D27000E89
:105448009E23CF0ED16FFF0ED26FADC0D3F0AEC08A
:10545800D4F02AEC19F00001BB05D8B40AD0ED51FC
:105468009D5D9E51800AEF6FEE51800AEF59D8A0DA
:10547800CCD7ADC0A5F0AEC0A6F0360E86EC30F0A5
:105488000001BB05D8B41200050E0001F06F0F0E25
:10549800EF6FF10EE82EFED7EF2FFCD7F02FFAD7DB
:1054A80012000001ED51EE11D8B4120082EC27F081
:1054B800050E0001F06F0F0EEF6FF10EE82EFED70C
:1054C800EF2FFCD7F02FFAD7350E86EC30F022D02C
:1054D800010EEBEC30F09C0E0001EF6FD70EE82EBA
:1054E800FED7EF2FFCD7800EEBEC30F0340E000126
:1054F800EF6FF10EE82EFED7EF2FFCD700D0CF0EBE
:105508000001D16FFF0ED26FADC0D3F0AEC0D4F0A2
:105518002AEC19F00001BA05D8B40AD0ED51AD5DF6
:10552800AE51800AEF6FEE51800AEF59D8A0D0D75C
:10553800360E86EC30F0050E0001F06F0F0EEF6F9F
:10554800F10EE82EFED7EF2FFCD7F02FFAD7120076
:105558000001ED51EE11D8B41200F8EC14F0050E6C
:105568000001F06F0F0EEF6FF10EE82EFED7EF2F50
:10557800FCD7F02FFAD70B0E86EC30F0000E0001A6
:10558800A86F000EA76F22D0010EEBEC30F09C0E36
:105598000001EF6FD70EE82EFED7EF2FFCD7800E55
:1055A800EBEC30F0340E0001EF6FF10EE82EFED771
:1055B800EF2FFCD700D0650E0001D16FFD0ED26F22
:1055C800A7C0D3F0A8C0D4F02AEC19F00001BA059E
:1055D800D8B40AD0ED51A75DA851800AEF6FEE51FB
:1055E800800AEF59D8A0D0D70C0E86EC30F0120004
:1055F8000001ED51EE11D8B4120000EC21F0050EB7
:105608000001F06F0F0EEF6FF10EE82EFED7EF2FAF
:10561800FCD7F02FFAD7390E86EC30F0000E0001D7
:10562800AC6F000EAB6F22D0800EEBEC30F0340E76
:105638000001EF6FF10EE82EFED7EF2FFCD700D058
:10564800010EEBEC30F09C0E0001EF6FD70EE82E48
:10565800FED7EF2FFCD7D90E0001D16FFF0ED26F06
:10566800ABC0D3F0ACC0D4F02AEC19F00001BA05F5
:10567800D8B40AD0ED51AB5DAC51800AEF6FEE5152
:10568800800AEF59D8A0D0D70A0E86EC30F0120065
:105698000001ED51EE11D8B41200CAEC22F0050E4B
:1056A8000001F06F0F0EEF6FF10EE82EFED7EF2F0F
:1056B800FCD7F02FFAD7370E86EC30F0000E000139
:1056C800AA6F000EA96F22D0800EEBEC30F0340EDA
:1056D8000001EF6FF10EE82EFED7EF2FFCD700D0B8
:1056E800010EEBEC30F09C0E0001EF6FD70EE82EA8
:1056F800FED7EF2FFCD7D40E0001D16FFF0ED26F6B
:10570800A9C0D3F0AAC0D4F02AEC19F00001BA0558
:10571800D8B40AD0ED51A95DAA51800AEF6FEE51B5
:10572800800AEF59D8A0D0D7380E86EC30F0120096
:105738005E0EF66E620EF76E000EF86E01EEE9F080
:1057480010EE0AF00900F5CFEEFFE550E150FAE15E
:10575800A40EF66E620EF76E000EF86E00EEFAF00A
:1057680010EE06F00900F5CFEEFFE550E150FAE142
:105778007C0EF66E620EF76E000EF86E00EE77F095
:1057880010EE08F00900F5CFEEFFE550E150FAE120
:1057980002EE00F0C80EEE6AE806FDE101EE00F048
:1057A800E90EEE6AE806FDE100EE80F0430EEE6ACF
:1057B800E806FDE100EE42F0350EEE6AE806FDE18E
:1057C8007F907F92000120EF0FF00001C46F00016D
:1057D800C451F00BC36F8C500F0B8C6EC3518C10DF
:1057E8008C6E000EF2BE010EBD6FF29E8C86420ECC
:1057F800E82EFED700D08C96A00E00D0E82EFDD75C
:105808000001BDB102D0F29E01D0F28E0001C43970
:10581800F00BC46FC451F00BC36F8C500F0B8C6E20
:10582800C3518C108C6E000EF2BE010EBD6FF29E3D
:105838008C86420EE82EFED700D08C96A00E00D0A3
:10584800E82EFDD70001BDB102D0F29E01D0F28E44
:105858001200000E0001C86FC6AF06D0C56DC61F86
:10586800D8B0C62B010EC86FC4AF06D0C36DC41F15
:10587800D8B0C42B010EC81B000ECA6F000EC96F2A
:10588800C551C611D8B41CD0010EC76F04D0D8902A
:10589800C537C637C72BC6AFFAD7D890C937CA3766
:1058A800C551C35DC651C459D8A005D0C551C35F01
:1058B800C651C45BC981D890C633C533C72FEDD74D
:1058C800C851D8B404D0C96DCA1FD8B0CA2BC9C032
:1058D800C3F0CAC0C4F01200026E0250F00B016E91
:1058E8008C500F0B8C6E01508C108C6E000EF2BE1B
:1058F800010E0001BD6FF29E8C86420EE82EFED787
:1059080000D08C96A00E00D0E82EFDD70001BDB1C6
:1059180002D0F29E01D0F28E0238F00B026E0250D5
:10592800F00B016E8C500F0B8C6E01508C108C6E2E
:10593800000EF2BE010E0001BD6FF29E8C86420E73
:10594800E82EFED700D08C96A00E00D0E82EFDD70A
:105958000001BDB102D0F29E01D0F28E120035D006
:1059680007C0D9FF08C0DAFFDF50D8B410D007C08D
:10597800D9FF08C0DAFFDF500D6E09C0F6FF0AC074
:10598800F7FFF86A0800F5500D18D8B41AD009C006
:10599800F6FF0AC0F7FFF86A0800F5500D6E0E6AA8
:1059A8000D1E0E1E0D4A0E2A07C0D9FF08C0DAFFC9
:1059B800DF500F6E0F500D24076E000E0E20086E7C
:1059C8001200074A082A094A0A2A0B06D8A00C0618
:1059D8000B28C6E10C28D8A4C3D7000E086E000E09
:1059E800076E1200000E0001CB6F000ECC6F000E88
:1059F800CD6F000ECE6FC751C811C911CA11D8B4E6
:105A08002AD0010ECF6F06D0D890C737C837C9370C
:105A1800CA37CF2BCAAFF8D7D890CB37CC37CD37CA
:105A2800CE37C751C35DC851C459C951C559CA51A8
:105A3800C659D8A009D0C751C35FC851C45BC95162
:105A4800C55BCA51C65BCB81D890CA33C933C8334A
:105A5800C733CF2FE1D7CBC0C3F0CCC0C4F0CDC083
:105A6800C5F0CEC0C6F01200000E066E04AE06D019
:105A7800036C041ED8B0042A010E066E02AE06D0CE
:105A8800016C021ED8B0022A010E061A000E086E1A
:105A9800000E076E03500410D8B41CD0010E056E1A
:105AA80004D0D89003360436052A04AEFAD7D89025
:105AB800073608360350015C04500258D8A005D0B8
:105AC8000350015E0450025A0780D8900432033212
:105AD800052EEDD70650D8B404D0076C081ED8B0F0
