:04000000B8EF0AF05B
:10100000003132334134353642373839432A3023C0
:10101000440001000A006400E8031027313000009A
:10102000010210022872656D61696E204E7574733D
:051030003A25640000F8
:101036000F0E126E000E136E7DD0250E1818D8B442
:1010460004D01850CFEC0AF075D0000E146E0DC007
:10105600F6FF0EC0F7FF0D4A0E2A0800F5CF18F06E
:101066001850000AD8B41200640AD8B403D00D0A86
:10107600D8A460D012C0D9FF13C0DAFFDECF16F0B5
:10108600DDCF17F0020E1226000E132217AE06D081
:10109600030E1412166C171ED8B0172A010E186EFE
:1010A600050E1818D8B412D01850020D120EF324DB
:1010B600F66E100EF420F76E0900F550165C090066
:1010C600F5501758D8A002D0182AEAD714C011F044
:1010D600030E1116D8B403D02D0ECFEC0AF018C0AB
:1010E60015F024D01550020D120EF324F66E100ED4
:1010F600F420F76E0900F5CF03F00A00F5CF04F0EF
:1011060016C001F017C002F0E2EC09F001C008F0C9
:1011160002C009F0000E0B6E0A0E0A6E7BEC0AF096
:101126000850300F186E1850CFEC0AF01506152827
:10113600D8A4D8D70DC0F6FF0EC0F7FF0D4A0E2A69
:101146000800F5CF18F01850D8B4120076D7F20E72
:10115600D36E000E896E000E8A6E000E8B6E000E28
:101166008C6E000E8D6E92689368000E946E000E63
:10117600956E000E966E000EC26E0B0EC16EC08E80
:101186000BEC0AF056EC0AF00BEC0AF0000E206E9F
:10119600000E1F6E0BEC0AF0310E0D6E100E0E6E69
:1011A60021C00FF022C010F01BEC08F020BE09D0C1
:1011B600300E1F5C750E2058D8A003D031EC0AF013
:1011C60038D0010E9CEC0AF0025016E1FB0E015CD1
:1011D600D8B012D0214A222A0BEC0AF0310E0D6E3D
:1011E600100E0E6E21C00FF022C010F01BEC08F09E
:1011F600000E206E000E1F6EC00ED9EC0AF0310EE6
:101206000D6E100E0E6E1FC00FF020C010F01BECFE
:1012160008F0800ED9EC0AF0410E196EEE0EE82E9B
:10122600FED7192EFCD700D0C80E1F26000E20228E
:10123600BDD70BEC0AF0250E0D6E100E0E6E21C0FA
:101246000FF022C010F01BEC08F0330E1A6EBB0E26
:10125600196EE00EE82EFED7192EFCD71A2EFAD7F5
:10126600E8D7000E096E000E0A6E000E0B6E000E19
:101276000C6E0550061007100810D8B42AD0010EBF
:101286000D6E06D0D89005360636073608360D2A76
:1012960008AEF8D7D89009360A360B360C36055004
:1012A600015C065002580750035808500458D8A04D
:1012B60009D00550015E0650025A0750035A0850DD
:1012C600045A0980D89008320732063205320D2EAC
:1012D600E1D709C001F00AC002F00BC003F00CC050
:1012E60004F01200026E0250F00B016E8C500F0BD0
:1012F6008C6E01508C108C6E000EF2BE010E276EA5
:10130600F29E8C86530EE82EFED700F08C96C80E01
:1013160000D0E82EFDD727B002D0F29E01D0F28E83
:101326000238F00B026E0250F00B016E8C500F0B60
:101336008C6E01508C108C6E000EF2BE010E276E64
:10134600F29E8C86530EE82EFED700F08C96C80EC1
:1013560000D0E82EFDD727B002D0F29E01D0F28E43
:101366001200C69A94869488800EC76E280EC66EA2
:10137600000EC56E000E016E5A0E026E620E036EF0
:10138600020E046E0EC012F00FC013F010C014F05F
:1013960011C015F0020ED8901236133614361536D3
:1013A600E82EF9D712C005F013C006F014C007F0F6
:1013B60015C008F034EC09F00104C86E1200000EE6
:1013C600066E000E056E03500410D8B41CD0010E34
:1013D600076E04D0D89003360436072A04AEFAD72F
:1013E600D890053606360350015C04500258D8A042
:1013F60005D00350015E0450025A0580D89004328D
:101406000332072EEDD705C001F006C002F0120028
:10141600C30E046ECD0EE82EFED7042EFCD700F0C8
:10142600330ED9EC0AF0320ED9EC0AF0280ED9ECBC
:101436000AF00F0ED9EC0AF0060ED9EC0AF0010EEE
:10144600D9EC0AF0C30E046ECD0EE82EFED7042E9C
:10145600FCD700F00F0ED9EC0AF01200A00E0E6EAB
:10146600860E0F6E010E106E000E116EB4EC09F0B2
:10147600F5EC0AF0000E036E100E026EECEC0AF0AC
:10148600F1EC0AF0F5EC0AF0000E036E100E026E97
:10149600ECEC0AF0000E036E360E026EECEC0AF06F
:1014A600F1EC0AF01200A00E0E6E860E0F6E010E03
:1014B600106E000E116EB4EC09F0F5EC0AF0000E99
:1014C600036E100E026EECEC0AF0F1EC0AF0F5EC8D
:1014D6000AF0000E036E100E026EECEC0AF0000E1F
:1014E600036E350E026EECEC0AF0F1EC0AF0120017
:1014F6000A500B10D8B418D0010E0C6E04D0D89038
:101506000A360B360C2A0BAEFAD70A50085C0B507B
:101516000958D8A004D00A50085E0B50095AD89032
:101526000B320A320C2EF1D708C008F009C009F0B8
:101536001200056E05C003F00F0E0316D890033691
:10154600D8900334C26EC280C282C2B2FED7C450E3
:10155600046E036AC35003241D6E000E04201E6E23
:101566001DC001F01EC002F01200F20EF66E150E3E
:10157600F76E000EF86E0900F5CF29F00900F5CFD9
:101586002AF000EE1BF00E0EEE6AE806FDE1000EF4
:10159600F86E0001AAEF08F0036E8C84035075EC18
:1015A60009F0C80E00D0E82EFDD71200036E8C9409
:1015B600035075EC09F0C80E00D0E82EFDD71200D6
:1015C600C7B4FED7C5CF01F01F0E0116D8B412005E
:1015D600F7D7E3EC0AF002C0C9FF1200E3EC0AF009
:0E15E600C5841200E3EC0AF0C5801200040078
:020000040020DA
:08000000FFFFFFFFFFFFFFFF00
:020000040030CA
:0E000000FF061F1EFF8381FF0F400FE00F4021
:00000001FF
