:0400000007EF00F016
:0A000800668206ED08F02EEF0BF003
:0B100000000001021002282563000020
:10100C000600FACF04F0FBCF05F0E9CF06F0EACFEB
:10101C0007F0E1CF08F0E2CF09F0D9CF0AF0DACF30
:10102C000BF0F3CF0CF0F4CF0DF0F6CF0EF0F7CFB2
:10103C000FF0F8CF10F0F5CF11F09EA844D0000EB1
:10104C00F2BE010E3B6EF29E20EE03F06450D926E8
:10105C006550DA22DF50016E0150010D64C0D9FFDA
:10106C0065C0DAFFDECF02F0DDCF03F0F3500224CF
:10107C00D96EF4500320DA6EDF50AD6E3BB002D067
:10108C00F29E01D0F28E20EE03F06450D92665500A
:10109C00DA22DF2A20EE02F06450D9266550DA22DB
:1010AC0010EE03F06450E1266550E222DE50E618A3
:1010BC00D8A409D09D9820EE08F06450D92665502C
:1010CC00DA22010EDF6E9EAA65D0ABA408D020EE0A
:1010DC000AF06450D9266550DA22010E07D020EEB2
:1010EC000AF06450D9266550DA22000EDF6E000E2D
:1010FC00F2BE010E3B6EF29E20EE07F06450D92634
:10110C006550DA22DF50016E0150010D20EE04F023
:10111C006450D9266550DA22DECF02F0DDCF03F021
:10112C00F3500224D96EF4500320DA6EAECFDFFFF9
:10113C003BB002D0F29E01D0F28EABA203D0AB98A2
:10114C00AB8808D020EE0BF06450D9266550DA221B
:10115C00000EDF6E20EE07F06450D9266550DA22BF
:10116C00DF2A20EE06F06450D9266550DA2210EE04
:10117C0007F06450E1266550E222DE50E65CD8A010
:10118C0009D09D9A20EE09F06450D9266550DA22D8
:10119C00010EDF6E11C0F5FF10C0F8FF0FC0F7FF96
:1011AC000EC0F6FF0DC0F4FF0CC0F3FF0BC0DAFF4E
:1011BC000AC0D9FF09C0E2FF08C0E1FF07C0EAFF7F
:1011CC0006C0E9FF05C0FBFF04C0FAFF66921100E0
:1011DC000CEC0BF0E6EC0AF0800E206E250E216E66
:1011EC00000E226E000E236EC1EC09F0330E296E38
:1011FC00BB0E286EE00EE82EFED7282EFCD7292E2B
:10120C00FAD720EE58F010EE2BF00B0EDBCFE3FFED
:10121C00E806FCE2000E386E000E376EF28E010E00
:10122C007DEC0AF020EE09F06450D9266550DA22E4
:10123C00DE04D8A41CD0070E156E100E166E20EE10
:10124C0004F06450D9266550DA22DECF28F0DDCFC9
:10125C0029F028C0D9FF29C0DAFFDF502A6E2A50A6
:10126C00176E186A41EC0AF0010E7DEC0AF020EEC4
:10127C0008F06450D9266550DA22DE04D8A4D2D7FF
:10128C00610E375CEA0E3858D8A00CD02B0E126EBB
:10129C00000E136E0C0E146EB2EC0AF0000E386ECB
:1012AC00000E376E374A382ABDD7000E1B6E19AEAA
:1012BC000AD0191E181E171E166C000E17221822A3
:1012CC001922010E1B6E15AE0AD0151E141E131E0C
:1012DC00126C000E132214221522010E1B1A000E82
:1012EC001C6E000E1D6E000E1E6E000E1F6E165034
:1012FC00171018101910D8B42AD0010E1A6E06D077
:10130C00D89016361736183619361A2A19AEF8D759
:10131C00D8901C361D361E361F361650125C1750D0
:10132C0013581850145819501558D8A009D01650E5
:10133C00125E1750135A1850145A1950155A1C8013
:10134C00D89019321832173216321A2EE1D71B5098
:10135C00D8B408D01F1E1E1E1D1E1C6C000E1D2294
:10136C001E221F221CC012F01DC013F01EC014F050
:10137C001FC015F01200000E126E5A0E136E620E84
:10138C00146E020E156E20C024F021C025F022C070
:10139C0026F023C027F0060ED890243625362636A4
:1013AC002736E82EF9D724C016F025C017F026C032
:1013BC0018F027C019F05BEC09F01204AF6EAC9C6E
:1013CC00AC98AC8AAB9CAB8820EE08F06450D92664
:1013DC006550DA22010EDF6E20EE09F06450D9263A
:1013EC006550DA22010EDF6E3C0E506E000E516E0F
:1013FC00949C948EAB8E1200136E1350F00B126EE5
:10140C008C500F0B8C6E12508C108C6E000EF2BE2A
:10141C00010E396EF29E8C86530EE82EFED700F02C
:10142C008C96C80E00D0E82EFDD739B002D0F29EB3
:10143C0001D0F28E1338F00B136E1350F00B126EAA
:10144C008C500F0B8C6E12508C108C6E000EF2BEEA
:10145C00010E396EF29E8C86530EE82EFED700F0EC
:10146C008C96C80E00D0E82EFDD739B002D0F29E73
:10147C0001D0F28E1200170E1A6E000E1B6E2AD0BF
:10148C00250E1C18D8B404D01C504BEC0BF022D0F9
:10149C00000E196E0ED01AC0D9FF1BC0DAFFDF5038
:1014AC001C6E020E1A26000E1B221C504BEC0BF06D
:1014BC0011D015C0F6FF16C0F7FF154A162A080002
:1014CC00F5CF1CF01C50000AD8B41200630AD8B433
:1014DC00E2D7EBD715C0F6FF16C0F7FF154A162A50
:1014EC000800F5CF1CF01C50D8B41200C9D7126EEE
:1014FC0020EE09F06450D9266550DA22DF50D8B4BA
:10150C00F7D720EE09F06450D9266550DA22000E88
:10151C00DF6E20EE06F06450D9266550DA2212C038
:10152C00DFFF20EE07F06450D9266550DA22000E5A
:10153C00DF6E20EE0AF06450D9266550DA22010ED7
:10154C00DF6E20EE0BF06450D9266550DA22010EC6
:10155C00DF6EAB889D8A120020EE08F06450D9260D
:10156C006550DA22DF50D8B4F7D720EE08F064507B
:10157C00D9266550DA22000EDF6E64C0D9FF65C033
:10158C00DAFF12C0DEFF13C0DDFF20EE02F0645064
:10159C00D9266550DA2214C0DFFF20EE03F0645028
:1015AC00D9266550DA22000EDF6EAC8A410E156E1C
:1015BC00EE0EE82EFED7152EFCD700D09D8812001B
:1015CC00C30E156ECD0EE82EFED7152EFCD700F0EF
:1015DC00330E55EC0BF0320E55EC0BF0280E55EC8F
:1015EC000BF00F0E55EC0BF0060E55EC0BF0010E3C
:1015FC0055EC0BF0C30E156ECD0EE82EFED7152E46
:10160C00FCD700F00F0E55EC0BF01200000E896E9B
:10161C00000E8A6E000E8B6E000E8C6E000E8D6EA0
:10162C00000E926EF20E936E800E946E010E956EFD
:10163C00040E966EF18E000EC26E0F0EC16E000E71
:10164C00B56EB496B10EC06EF096F28CF29E12008E
:10165C00BE0EF66E160EF76E000EF86E00EE58F01B
:10166C0010EE0EF00900F5CFEEFFE550E150FAE177
:10167C0000EE39F01F0EEE6AE806FDE16690669208
:10168C00000EF86E0001EEEF08F0146E8C8414500E
:10169C0002EC0AF0C80E00D0E82EFDD71200146E32
:1016AC008C94145002EC0AF0C80E00D0E82EFDD732
:1016BC00120048454C4C4F20574F524C44214C0083
:020000040020DA
:08000000FFFFFFFFFFFFFFFF00
:020000040030CA
:0E000000FF061F1EFF8381FF0F400FE00F4021
:00000001FF
