:0400000078EF0DF098
:10100000003132334134353642373839432A3023C0
:10101000440001000A006400E803102701001000EA
:101020000001001045141400110318000102100201
:10103000283031323334353637383961626364658C
:101040006600253032782F253032782F25303278DF
:1010500000253032783A253032783A25303278001F
:1010600025642C25642C25640000110E1C6E000ED6
:101070001D6E74D1250E2418D8B404D0245083ECEE
:101080000DF06CD1000E236E000E226E000E216E4C
:1010900003D021840F4A102A0FC0F6FF10C0F7FFBB
:1010A0000800F550300AD8B4F4D70FC0F6FF10C0CE
:1010B000F7FF0800F55069EC0DF0D8A035D0000E10
:1010C000236E000E226E22C009F023C00AF0000E2B
:1010D0000C6E0A0E0B6E44EC0DF009C022F00AC033
:1010E00023F0D00E176EFF0E186E0FC0F6FF10C063
:1010F000F7FF0800F550196E1A6A17501926185094
:101100001A22195022261A5023220F4A102A0FC0E1
:10111000F6FF10C0F7FF0800F55069EC0DF0D8A0FD
:1011200003D0D1D7218E17D00FC0F6FF10C0F7FF24
:101130000F4A102A0800F5CF24F02450000AD8B432
:101140001200640AD8B407D00D0AD8B404D0110A2A
:10115000D8B4E8D703D121BE15D01CC0D9FF1DC01B
:10116000DAFFDECF1FF0DDCF20F0020E1C26000ECE
:101170001D2220AE44D0030E21121F6C201ED8B0B9
:10118000202A3DD01CC0D9FF1DC0DAFFDECF1FF0E2
:10119000DDCF20F0020E1C26000E1D2230D0010EE5
:1011A000246E050E2418D8B432D02450020D120E2D
:1011B000F324F66E100EF420F76E0900F5501F5C54
:1011C0000900F5502058D8A022D0242AEAD7010ED1
:1011D000246E040E2418D8B41AD02450020D1C0E0C
:1011E000F324F66E100EF420F76E0900F5501F5C24
:1011F0000900F5502058D8A00AD0242AEAD7215057
:10120000800B000AD8B4CBD7800AD8B4E0D72250DC
:101210002310D8B409D021C017F0030E1716D8B484
:1012200003D02206D8A02306800E24BE7F0E176EA0
:101230002250245C2350800A1758D8B007D024507D
:10124000225E000E24BEFF0E235A04D0000E236E31
:10125000000E226E21A414D021C017F0030E171621
:10126000D8B403D02D0E83EC0DF022502310D8B447
:101270001ED0300E83EC0DF02206D8A02306F5D741
:1012800022502310D8B40AD0200E83EC0DF0220691
:10129000D8A0230622502310D8A4F6D721C017F0D7
:1012A000030E1716D8B403D02D0E83EC0DF024C016
:1012B0001EF050D01E50020D120EF324F66E100ECA
:1012C000F420F76E0900F5CF03F00A00F5CF04F023
:1012D0001FC001F020C002F0D4EC0CF001C008F0F7
:1012E00002C009F0000E0B6E0A0E0A6E23EC0DF020
:1012F0000850300F246E2BD01FC001F020C002F028
:101300001E50020D1C0EF324F66E100EF420F76E24
:101310000900F5CF03F00A00F5CF04F0D4EC0CF08F
:1013200001500F0B1B6E1B50010D310EF324F66E96
:10133000100EF420F76E0800F5CF24F008D02150ED
:10134000800B000AD8B4B6D7800AD8B4D5D72450B9
:1013500083EC0DF01E061E28D8A4F1D70FC0F6FFAF
:1013600010C0F7FF0F4A102A0800F5CF24F02450D0
:10137000D8B412007FD6000E896E000E8A6E000E61
:101380008B6E000E8C6E000E8D6E92689368800ED0
:10139000946E000E956E000E966E000EC26E0F0ECD
:1013A000C16EFDEC0CF0060E266E130E256EAE0E11
:1013B000E82EFED7252EFCD7262EFAD7A00E0E6ECD
:1013C000860E0F6E010E106E000E116EA6EC0CF064
:1013D000F29ED0EC0AF0FDEC0CF0100E266E390EE9
:1013E000256E0E0EE82EFED7252EFCD7262EFAD718
:1013F000CB0E266EEC0E256E840EE82EFED7252E23
:10140000FCD7262EFAD700D0CB0E266EEC0E256E1A
:10141000840EE82EFED7252EFCD7262EFAD700D034
:101420005AEC0BF03EC009F03FC00AF00E0E0C6EF5
:10143000100E0B6E44EC0DF009C025F00AC026F02A
:101440003CC009F03DC00AF0000E0C6E3C0E0B6E65
:1014500044EC0DF0095025260A5026223A50252446
:10146000386E3B502620396E36C009F037C00AF07E
:101470000E0E0C6E100E0B6E44EC0DF009C025F034
:101480000AC026F034C009F035C00AF0000E0C6E18
:101490003C0E0B6E44EC0DF0095025260A50262216
:1014A00032502524306E33502620316E38C025F05E
:1014B00039C026F0251E261E254A262A305025240E
:1014C0002E6E315026202F6EFDEC0CF0600E0F6E4C
:1014D000100E106E38C011F039C012F030C013F089
:1014E00031C014F02EC015F02FC016F035EC08F006
:1014F000800E8DEC0DF0410E256EEE0EE82EFED71F
:10150000252EFCD700D0660E266E760E256EC10EF7
:10151000E82EFED7252EFCD7262EFAD700F0000E97
:10152000396E000E386E000E316E000E306E800E79
:101530008DEC0DF0410E256EEE0EE82EFED7252E19
:10154000FCD700D0420E0F6E100E106E2DC011F0A1
:10155000126A2CC013F0146A2BC015F0166A35EC11
:1015600008F0C00E8DEC0DF0510E0F6E100E106EC7
:1015700029C011F0126A28C013F0146A27C015F0B0
:10158000166A35EC08F0330E266EBB0E256EE00EA3
:10159000E82EFED7252EFCD7262EFAD700EF00F036
:1015A000A9EC0DF0000E036ED00E026EA0EC0DF053
:1015B000000E036E000E026EA0EC0DF0A5EC0DF017
:1015C000A9EC0DF0000E036ED10E026EA0EC0DF032
:1015D000000E416E050E416401D00ED04150010D48
:1015E000270EF324D96E000EF420DA6E000E57ECAD
:1015F0000DF0DF6E412AEED7010E57EC0DF02D6E87
:10160000A5EC0DF029C00FF00F0E0F16000E046EA2
:10161000100E036E29C001F0026AE4EC0BF001C069
:1016200009F002C00AF0000E0C6E0A0E0B6E44ECBC
:101630000DF00F5009243E6E000E0A203F6E28C0A8
:101640000FF00F0E0F16000E046E100E036E28C062
:1016500001F0026AE4EC0BF001C009F002C00AF0EC
:10166000000E0C6E0A0E0B6E44EC0DF00F500924A8
:101670003C6E000E0A203D6E27C00FF00F0E0F16B5
:10168000000E046E100E036E27C001F0026AE4EC37
:101690000BF001C009F002C00AF0000E0C6E0A0E39
:1016A0000B6E44EC0DF00F5009243A6E000E0A2028
:1016B0003B6E1200A9EC0DF0000E036ED00E026E10
:1016C000A0EC0DF0000E036E000E026EA0EC0DF00B
:1016D000A5EC0DF0A9EC0DF0000E036ED10E026E1C
:1016E000A0EC0DF0000E416E050E416401D00ED04D
:1016F0004150010D270EF324D96E000EF420DA6E4E
:10170000000E57EC0DF0DF6E412AEED7010E57ECBC
:101710000DF02D6EA5EC0DF029C00FF00F0E0F1679
:10172000000E046E100E036E29C001F0026AE4EC94
:101730000BF001C009F002C00AF0000E0C6E0A0E98
:101740000B6E44EC0DF00F500924366E000E0A208B
:10175000376E28C00FF00F0E0F16000E046E100E1D
:10176000036E28C001F0026AE4EC0BF001C009F03E
:1017700002C00AF0000E0C6E0A0E0B6E44EC0DF067
:101780000F500924346E000E0A20356E27C00FF06A
:101790000F0E0F16000E046E100E036E27C001F020
:1017A000026AE4EC0BF001C009F002C00AF0000E7E
:1017B0000C6E0A0E0B6E44EC0DF00F500924326EC5
:1017C000000E0A20336E1200000E066E04AE06D024
:1017D000036C041ED8B0042A010E066E02AE06D0B9
:1017E000016C021ED8B0022A010E061A000E086E05
:1017F000000E076E03500410D8B41CD0010E056E05
:1018000004D0D89003360436052A04AEFAD7D8900F
:10181000073608360350015C04500258D8A005D0A2
:101820000350015E0450025A0780D89004320332FC
:10183000052EEDD70650D8B404D0076C081ED8B0DA
:10184000082A07C001F008C002F01200000E096E5D
:10185000000E0A6E000E0B6E000E0C6E0550061088
:1018600007100810D8B42AD0010E0D6E06D0D890FB
:1018700005360636073608360D2A08AEF8D7D89052
:1018800009360A360B360C360550015C06500258F4
:101890000750035808500458D8A009D00550015EDD
:1018A0000650025A0750035A0850045A0980D8902B
:1018B00008320732063205320D2EE1D709C001F099
:1018C0000AC002F00BC003F00CC004F01200026E5C
:1018D0000250F00B016E8C500F0B8C6E01508C106F
:1018E0008C6E000EF2BE010E406EF29E8C86530E80
:1018F000E82EFED700F08C96C80E00D0E82EFDD75B
:1019000040B002D0F29E01D0F28E0238F00B026E8F
:101910000250F00B016E8C500F0B8C6E01508C102E
:101920008C6E000EF2BE010E406EF29E8C86530E3F
:10193000E82EFED700F08C96C80E00D0E82EFDD71A
:1019400040B002D0F29E01D0F28E1200C69A948668
:101950009488800EC76E280EC66E000EC56E000EEF
:10196000016E5A0E026E620E036E020E046E0EC0FF
:1019700012F00FC013F010C014F011C015F0020ED9
:10198000D8901236133614361536E82EF9D712C011
:1019900005F013C006F014C007F015C008F026ECDF
:1019A0000CF00104C86E1200000E066E000E056EEB
:1019B00003500410D8B41CD0010E076E04D0D89088
:1019C00003360436072A04AEFAD7D8900536063611
:1019D0000350015C04500258D8A005D00350015EAA
:1019E0000450025A0580D89004320332072EEDD7F6
:1019F00005C001F006C002F01200C30E046ECD0E49
:101A0000E82EFED7042EFCD700F0330E8DEC0DF03F
:101A1000320E8DEC0DF0280E8DEC0DF00F0E8DECCE
:101A20000DF0060E8DEC0DF0010E8DEC0DF0C30ED9
:101A3000046ECD0EE82EFED7042EFCD700F00F0E5C
:101A40008DEC0DF012000A500B10D8B418D0010E16
:101A50000C6E04D0D8900A360B360C2A0BAEFAD78F
:101A60000A50085C0B500958D8A004D00A50085EF0
:101A70000B50095AD8900B320A320C2EF1D708C0FD
:101A800008F009C009F0120009500B02F3CF0DF065
:101A9000F4CF0EF009500C02F3500E260A500B0240
:101AA000F3500E260DC009F00EC00AF01200026EAF
:101AB00097EC0DF0C58697EC0DF0C9CF03F097ECCD
:101AC0000DF002B002D0C59A01D0C58AC588035076
:101AD0001200036E000E026E3A0E036005D02F0E48
:101AE000036402D0010E026E02C001F00130120048
:101AF00000EE27F01C0EEE6AE806FDE1000EF86E1F
:101B00000001BBEF09F0036E8C84035067EC0CF00E
:101B1000C80E00D0E82EFDD71200036E8C9403503F
:101B200067EC0CF0C80E00D0E82EFDD71200C7B449
:101B3000FED7C5CF01F01F0E0116D8B41200F7D79B
:101B400097EC0DF002C0C9FF120097EC0DF0C584B0
:0A1B5000120097EC0DF0C5801200A2
:020000040020DA
:08000000FFFFFFFFFFFFFFFF00
:020000040030CA
:0E000000FF061F1EFF8381FF0F400FE00F4021
:00000001FF
