:0400000059EF0BF0B9
:10100000003132334134353642373839432A3023C0
:10101000440001000A006400E8031027313000009A
:10102000010210022872656D61696E204E7574733D
:101030003A256400646F6E650000000E896E000E34
:101040008A6E000E8B6E000E8C6E000E8D6E926896
:101050009368000E946E000E956E000E966E000E54
:10106000C26E0B0EC16EC08EC8EC0AF0A00E0E6EE2
:10107000860E0F6E010E106E000E116E71EC0AF0EE
:10108000A6EC0BF0000E036E100E026E9DEC0BF042
:10109000A2EC0BF0A6EC0BF0000E036E100E026E2D
:1010A0009DEC0BF0000E036E310E026E9DEC0BF00A
:1010B000A2EC0BF0C8EC0AF0310E0D6E100E0E6EA5
:1010C00023C00FF024C010F05AEC09F0060E1A6E7F
:1010D000130E196EAE0EE82EFED7192EFCD71A2E5F
:1010E000FAD713EC0BF0800E8AEC0BF0410E196E60
:1010F000EE0EE82EFED7192EFCD700D02A50235C26
:101100002450800A196E2B50800A1958D8A003D099
:10111000EEEC0AF021D0A6EC0BF0000E036E110EDF
:10112000026E9DEC0BF0010E6EEC0BF0286EA2EC43
:101130000BF0610E2818D8A402D0234A242A620E8C
:10114000286E310E0D6E100E0E6E23C00FF024C0EF
:1011500010F05AEC09F0C7D7000E246E000E236E73
:10116000EEEC0AF0C8EC0AF0340E0D6E100E0E6EA6
:101170005AEC09F0150E1A6E4B0E196EBE0EE82EC3
:10118000FED7192EFCD71A2EFAD700D0A00E0E6E5D
:10119000860E0F6E010E106E000E116E71EC0AF0CD
:1011A000A6EC0BF0000E036E100E026E9DEC0BF021
:1011B000A2EC0BF0A6EC0BF0000E036E100E026E0C
:1011C0009DEC0BF0000E036E320E026E9DEC0BF0E8
:1011D000A2EC0BF0290E1A6E960E196E7F0EE82EF9
:1011E000FED7192EFCD71A2EFAD700F013EC0BF00D
:1011F000C8EC0AF0000E206E000E1F6EC8EC0AF05C
:10120000310E0D6E100E0E6E21C00FF022C010F0C8
:101210005AEC09F020BE09D0300E1F5C750E205824
:10122000D8A003D0EEEC0AF02DD0214A222A000EDD
:10123000206E000E1F6E310E0D6E100E0E6E21C050
:101240000FF022C010F05AEC09F0C00E8AEC0BF03F
:10125000310E0D6E100E0E6E1FC00FF020C010F07C
:101260005AEC09F0800E8AEC0BF0410E196EEE0E6E
:10127000E82EFED7192EFCD700D0C80E1F26000E70
:101280002022C8D7C8EC0AF0250E0D6E100E0E6E87
:1012900021C00FF022C010F05AEC09F0330E1A6E84
:1012A000BB0E196EE00EE82EFED7192EFCD71A2EB3
:1012B000FAD7E8D70F0E126E000E136E84D0250EEB
:1012C0001818D8B404D0185080EC0BF07CD0000E65
:1012D000146E0DC0F6FF0EC0F7FF0D4A0E2AF86A15
:1012E0000800F5CF18F01850000AD8B41200640AAC
:1012F000D8B403D00D0AD8A466D012C0D9FF13C049
:10130000DAFFDECF16F0DDCF17F0020E1226000E48
:10131000132217AE06D0030E1412166C171ED8B087
:10132000172A010E186E050E1818D8B415D01850CB
:10133000020D120EF324F66E100EF420F76EF86A0A
:10134000000EF8220900F550165C0900F5501758F8
:10135000D8A002D0182AE7D714C011F0030E111636
:10136000D8B403D02D0E80EC0BF018C015F027D0A8
:101370001550020D120EF324F66E100EF420F76EC7
:10138000F86A000EF8220900F5CF03F00A00F5CF45
:1013900004F016C001F017C002F09FEC0AF001C083
:1013A00008F002C009F0000E0B6E0A0E0A6E38EC4F
:1013B0000BF00850300F186E185080EC0BF015062B
:1013C0001528D8A4D5D70DC0F6FF0EC0F7FF0D4ADB
:1013D0000E2AF86A0800F5CF18F01850D8B4120099
:1013E0006ED7000E096E000E0A6E000E0B6E000E18
:1013F0000C6E0550061007100810D8B42AD0010E44
:101400000D6E06D0D89005360636073608360D2AFA
:1014100008AEF8D7D89009360A360B360C36055088
:10142000015C065002580750035808500458D8A0D1
:1014300009D00550015E0650025A0750035A085061
:10144000045A0980D89008320732063205320D2E30
:10145000E1D709C001F00AC002F00BC003F00CC0D4
:1014600004F01200026E0250F00B016E8C500F0B54
:101470008C6E01508C108C6E000EF2BE010E276E29
:10148000F29E8C86530EE82EFED700F08C96C80E86
:1014900000D0E82EFDD727B002D0F29E01D0F28E08
:1014A0000238F00B026E0250F00B016E8C500F0BE5
:1014B0008C6E01508C108C6E000EF2BE010E276EE9
:1014C000F29E8C86530EE82EFED700F08C96C80E46
:1014D00000D0E82EFDD727B002D0F29E01D0F28EC8
:1014E0001200C69A94869488800EC76E280EC66E27
:1014F000000EC56E000E016E5A0E026E620E036E75
:10150000020E046E0EC012F00FC013F010C014F0E3
:1015100011C015F0020ED890123613361436153657
:10152000E82EF9D712C005F013C006F014C007F07A
:1015300015C008F0F1EC09F00104C86E1200000EAD
:10154000066E000E056E03500410D8B41CD0010EB8
:10155000076E04D0D89003360436072A04AEFAD7B3
:10156000D890053606360350015C04500258D8A0C6
:1015700005D00350015E0450025A0580D890043211
:101580000332072EEDD705C001F006C002F01200AD
:10159000C30E046ECD0EE82EFED7042EFCD700F04D
:1015A000330E8AEC0BF0320E8AEC0BF0280E8AEC2C
:1015B0000BF00F0E8AEC0BF0060E8AEC0BF0010E0E
:1015C0008AEC0BF0C30E046ECD0EE82EFED7042E6F
:1015D000FCD700F00F0E8AEC0BF01200A00E0E6E7E
:1015E000860E0F6E010E106E000E116E71EC0AF079
:1015F000A6EC0BF0000E036E100E026E9DEC0BF0CD
:10160000A2EC0BF0A6EC0BF0000E036E100E026EB7
:101610009DEC0BF0000E036E360E026E9DEC0BF08F
:10162000A2EC0BF01200A00E0E6E860E0F6E010ED5
:10163000106E000E116E71EC0AF0A6EC0BF0000EAD
:10164000036E100E026E9DEC0BF0A2EC0BF0A6ECFC
:101650000BF0000E036E100E026E9DEC0BF0000EF0
:10166000036E350E026E9DEC0BF0A2EC0BF0120037
:101670000A500B10D8B418D0010E0C6E04D0D890BC
:101680000A360B360C2A0BAEFAD70A50085C0B5000
:101690000958D8A004D00A50085E0B50095AD890B7
:1016A0000B320A320C2EF1D708C008F009C009F03D
:1016B0001200540EF66E170EF76E000EF86E09004B
:1016C000F5CF2AF00900F5CF2BF000EE1BF00F0E3E
:1016D000EE6AE806FDE100011DEF08F0026E94ECF1
:1016E0000BF0C58694EC0BF0C9CF03F094EC0BF033
:1016F00002B002D0C59A01D0C58AC5880350120035
:10170000036E8C84035032EC0AF0C80E00D0E82E31
:10171000FDD71200036E8C94035032EC0AF0C80E11
:1017200000D0E82EFDD71200C7B4FED7C5CF01F018
:101730001F0E0116D8B41200F7D794EC0BF002C0BC
:10174000C9FF120094EC0BF0C584120094EC0BF06E
:06175000C5801200040038
:020000040020DA
:08000000FFFFFFFFFFFFFFFF00
:020000040030CA
:0E000000FF061F1EFF8381FF0F400FE00F4021
:00000001FF
