:0400000007EF00F016
:0A000800568234ED08F01FEF0EF0F1
:101000000001000A006400E803102700010210023A
:1010100028423A25642C4E3A25642C533A25642CF8
:10102000573A2564007370616365725F696E746519
:1010300072727570746564007761736865725F6958
:101040006E7465727275707400626F6C745F696E35
:1010500074657272757074006E75745F696E746514
:07106000727275707400004C
:101068000600FACF18F0FBCF19F0E9CF1AF0EACF53
:101078001BF0E1CF1CF0E2CF1DF0D9CF1EF0DACF84
:101088001FF0F3CF20F0F4CF21F0F6CF22F0F7CF06
:1010980023F0F8CF24F0F5CF25F056C026F057C03E
:1010A80027F058C028F059C029F0F2A0A7D081AA8B
:1010B80003D0176A172A01D0176A1750546E556A59
:1010C80081AC03D0176A172A01D0176A1750526EDD
:1010D800536A81A803D0176A172A01D0176A1750D4
:1010E800506E516A81AE03D0176A172A01D0176A69
:1010F80017504E6E4F6A54045510D8A418D0000EDD
:101108003F6E000E3E6EB7EC0DF0490E0D6E100EE0
:101118000E6E66EC0AF0800E8CEC0EF0340E176E34
:10112800F20EE82EFED7172EFCD7464A472A52045D
:101138005310D8A418D0000E3D6E000E3C6EB7ECCC
:101148000DF0580E0D6E100E0E6E66EC0AF0800E45
:101158008CEC0EF0340E176EF20EE82EFED7172E1A
:10116800FCD7444A452A50045110D8A418D0000E80
:101178003B6E000E3A6E424A432AB7EC0DF0250E3C
:101188000D6E100E0E6E66EC0AF0800E8CEC0EF0F2
:10119800340E176EF20EE82EFED7172EFCD74E042B
:1011A8004F10D8A418D0000E396E000E386EB7EC68
:1011B8000DF0380E0D6E100E0E6E66EC0AF0800EF5
:1011C8008CEC0EF0340E176EF20EE82EFED7172EAA
:1011D800FCD7404A412AB7EC0DF02C0E0D6E100ECC
:1011E8000E6E66EC0AF0800E8CEC0EF0340E176E64
:1011F800F20EE82EFED7172EFCD7F29029C059F030
:1012080028C058F027C057F026C056F025C0F5FF73
:1012180024C0F8FF23C0F7FF22C0F6FF21C0F4FF67
:1012280020C0F3FF1FC0DAFF1EC0D9FF1DC0E2FFB8
:101238001CC0E1FF1BC0EAFF1AC0E9FF19C0FBFF91
:1012480018C0FAFF56921100D38CD38AD388D38260
:101258009B8C000E896E000E8A6E000E8B6E000E3F
:101268008C6E000E8D6E92689368000E946E000E60
:10127800956E000E966E000EC26E0F0EC16EC08E79
:10128800F28E91EC0DF03CEC0EF08B809490F2868F
:10129800110E0001806F100E816F46C082F047C0AA
:1012A80083F044C084F045C085F042C086F043C056
:1012B80087F040C088F041C089F0D1EC09F091EC8A
:1012C8000DF0938A938E938C93884AC091F04BC00B
:1012D80092F009EC0DF0000E456E000E446E4AC007
:1012E80091F04BC092F095EC0CF04AC091F04BC0D5
:1012F80092F021EC0CF04AC091F04BC092F0ADECAA
:101308000BF00D0E0001946F2D0E936FD70EE82E83
:10131800FED7932FFCD7942FFAD700D04CC091F06A
:101328004DC092F0CFEC0CF04CC091F04DC092F053
:101338005BEC0CF04CC091F04DC092F0E7EC0BF078
:101348004CC091F04DC092F073EC0BF091EC0DF0A5
:10135800F296110E0001806F100E816F46C082F068
:1013680047C083F044C084F045C085F042C086F091
:1013780043C087F040C088F041C089F0D1EC09F043
:10138800800E78EC0EF0340E0001936FF10EE82E0B
:10139800FED7932FFCD700D0DCD7820E00018A6FCE
:1013A800000E8B6F81D0250E9019D8B404D09051BF
:1013B8006EEC0EF079D0000E00018C6F80C0F6FF45
:1013C80081C0F7FF804B812B0800F5CF90F090513A
:1013D800000AD8B41200640AD8B403D00D0AD8A4FD
:1013E80063D08AC0D9FF8BC0DAFFDECF8EF0DDCFA5
:1013F8008FF0020E8A27000E8B238FAF06D0030EC4
:101408008C138E6D8F1FD8B08F2B010E906F050E29
:101418009019D8B412D09051020D010EF324F66E33
:10142800100EF420F76E0900F5508E5D0900F55096
:101438008F59D8A002D0902BEAD78CC036F0030E73
:101448003616D8B403D02D0E6EEC0EF090C08DF089
:1014580026D000018D51020D010EF324F66E100EF8
:10146800F420F76E0900F5CF2CF00A00F5CF2DF027
:101478008EC02AF08FC02BF03FEC0DF02AC031F05F
:101488002BC032F0000E346E0A0E336EDDEC0DF018
:101498003150300F0001906F90516EEC0EF000014A
:1014A8008D078D29D8A4D5D780C0F6FF81C0F7FF56
:1014B8000001804B812B0800F5CF90F09051D8B4F3
:1014C800120071D70F0E106E000E116E7DD0250E12
:1014D8001618D8B404D0165082EC0EF075D0000E51
:1014E800126E0DC0F6FF0EC0F7FF0D4A0E2A080057
:1014F800F5CF16F01650000AD8B41200640AD8B412
:1015080003D00D0AD8A460D010C0D9FF11C0DAFFEB
:10151800DECF14F0DDCF15F0020E1026000E1122DA
:1015280015AE06D0030E1212146C151ED8B0152A6B
:10153800010E166E050E1618D8B412D01650020DEC
:10154800010EF324F66E100EF420F76E0900F55024
:10155800145C0900F5501558D8A002D0162AEAD70D
:1015680012C00FF0030E0F16D8B403D02D0E82EC64
:101578000EF016C013F024D01350020D010EF32400
:10158800F66E100EF420F76E0900F5CF03F00A008E
:10159800F5CF04F014C001F015C002F068EC0DF0AE
:1015A80001C008F002C009F0000E0B6E0A0E0A6EA8
:1015B800FEEC0DF00850300F166E165082EC0EF04F
:1015C80013061328D8A4D8D70DC0F6FF0EC0F7FF0E
:1015D8000D4A0E2A0800F5CF16F01650D8B412009E
:1015E80076D72B6E2B50F00B2A6E8C500F0B8C6E0F
:1015F8002A508C108C6E000EF2BE010E496EF29EBF
:101608008C86420EE82EFED700D08C96A00E00D015
:10161800E82EFDD749B002D0F29E01D0F28E2B38C9
:10162800F00B2B6E2B50F00B2A6E8C500F0B8C6E20
:101638002A508C108C6E000EF2BE010E496EF29E7E
:101648008C86420EE82EFED700D08C96A00E00D0D5
:10165800E82EFDD749B002D0F29E01D0F28E1200DA
:10166800026E0250F00B016E8C500F0B8C6E015005
:101678008C108C6E000EF2BE010E496EF29E8C86A6
:10168800420EE82EFED700D08C96A00E00D0E82E91
:10169800FDD749B002D0F29E01D0F28E0238F00B8D
:1016A800026E0250F00B016E8C500F0B8C6E0150C5
:1016B8008C108C6E000EF2BE010E496EF29E8C8666
:1016C800420EE82EFED700D08C96A00E00D0E82E51
:1016D800FDD749B002D0F29E01D0F28E12000B0E57
:1016E80051EC0EF091EC0DF0800E78EC0EF0340E0B
:1016F800376EF20EE82EFED7372EFCD70001915137
:10170800385C3950800A376E9251800A3758D8A011
:1017180004D00C0E51EC0EF01200640E3826000EA8
:101728003922110E0001806F100E816F46C082F0C1
:1017380047C083F044C084F045C085F042C086F0BD
:1017480043C087F040C088F041C089F0D1EC09F06F
:10175800C9D70B0E51EC0EF0000E416E000E406E14
:1017680091EC0DF0800E78EC0EF0340E376EF20E20
:10177800E82EFED7372EFCD700019151405C41502E
:10178800800A376E9251800A3758D8A004D00C0EC0
:1017980051EC0EF01200110E0001806F100E816FD7
:1017A80046C082F047C083F044C084F045C085F04D
:1017B80042C086F043C087F040C088F041C089F03D
:1017C800D1EC09F0CDD7390E51EC0EF091EC0DF0BB
:1017D800800E78EC0EF0340E376EF20EE82EFED73F
:1017E800372EFCD7000191513A5C3B50800A376E86
:1017F8009251800A3758D8A004D00A0E51EC0EF046
:101808001200640E3A26000E3B22110E0001806F72
:10181800100E816F46C082F047C083F044C084F048
:1018280045C085F042C086F043C087F040C088F0CC
:1018380041C089F0D1EC09F0C9D7390E51EC0EF04E
:10184800000E436E000E426E91EC0DF0800E78ECA7
:101858000EF0340E376EF20EE82EFED7372EFCD778
:1018680000019151425C4350800A376E9251800AC0
:101878003758D8A004D00A0E51EC0EF01200110E01
:101888000001806F100E816F46C082F047C083F060
:1018980044C084F045C085F042C086F043C087F05C
:1018A80040C088F041C089F0D1EC09F0CDD7370E9F
:1018B80051EC0EF091EC0DF0800E78EC0EF0340E39
:1018C800376EF20EE82EFED7372EFCD70001915165
:1018D8003C5C3D50800A376E9251800A3758D8A038
:1018E80004D0380E51EC0EF01200640E3C26000EA7
:1018F8003D22110E0001806F100E816F46C082F0EC
:1019080047C083F044C084F045C085F042C086F0EB
:1019180043C087F040C088F041C089F0D1EC09F09D
:10192800C9D7370E51EC0EF0000E456E000E446E0E
:1019380091EC0DF0800E78EC0EF0340E376EF20E4E
:10194800E82EFED7372EFCD700019151445C455054
:10195800800A376E9251800A3758D8A004D0380EC2
:1019680051EC0EF01200110E0001806F100E816F05
:1019780046C082F047C083F044C084F045C085F07B
:1019880042C086F043C087F040C088F041C089F06B
:10199800D1EC09F0CDD7350E51EC0EF091EC0DF0ED
:1019A800800E78EC0EF0340E376EF20EE82EFED76D
:1019B800372EFCD7000191513E5C3F50800A376EAC
:1019C8009251800A3758D8A004D0360E51EC0EF048
:1019D8001200640E3E26000E3F22110E0001806F99
:1019E800100E816F46C082F047C083F044C084F077
:1019F80045C085F042C086F043C087F040C088F0FB
:101A080041C089F0D1EC09F0C9D7350E51EC0EF080
:101A180091EC0DF0800E78EC0EF0340E376EF20E6D
:101A2800E82EFED7372EFCD700019151465C47506F
:101A3800800A376E9251800A3758D8A004D0360EE3
:101A480051EC0EF01200110E0001806F100E816F24
:101A580046C082F047C083F044C084F045C085F09A
:101A680042C086F043C087F040C088F041C089F08A
:101A7800D1EC09F0CDD7000E306E000E2F6E2C5031
:101A88002D10D8B41CD0010E2E6E04D0D8902C3650
:101A98002D362E2A2DAEFAD7D8902F3630362C5028
:101AA8002A5C2D502B58D8A005D02C502A5E2D50DA
:101AB8002B5A2F80D8902D322C322E2EEDD72FC0B6
:101AC8002AF030C02BF01200000E066E000E056ED4
:101AD80003500410D8B41CD0010E076E04D0D8905F
:101AE80003360436072A04AEFAD7D89005360636E8
:101AF8000350015C04500258D8A005D00350015E81
:101B08000450025A0580D89004320332072EEDD7CC
:101B180005C001F006C002F012009C0E2D6ED70E13
:101B2800E82EFED72D2EFCD700F0330E78EC0EF001
:101B3800320E78EC0EF0280E78EC0EF00F0E78ECE2
:101B48000EF0060E78EC0EF0010E78EC0EF09C0EFE
:101B58002D6ED70EE82EFED72D2EFCD700F00F0ED7
:101B680078EC0EF012009C0E046ED70EE82EFED70D
:101B7800042EFCD700F0330E8CEC0EF0320E8CECF9
:101B88000EF0280E8CEC0EF00F0E8CEC0EF0060EFC
:101B98008CEC0EF0010E8CEC0EF09C0E046ED70E41
:101BA800E82EFED7042EFCD700F00F0E8CEC0EF0BA
:101BB800120033503410D8B418D0010E356E04D04A
:101BC800D89033363436352A34AEFAD73350315CB0
:101BD80034503258D8A004D03350315E3450325A81
:101BE800D89034323332352EF1D731C031F032C08B
:101BF80032F012000A500B10D8B418D0010E0C6E37
:101C080004D0D8900A360B360C2A0BAEFAD70A50F5
:101C1800085C0B500958D8A004D00A50085E0B5035
:101C2800095AD8900B320A320C2EF1D708C008F0A6
:101C380009C009F012003E0EF66E1D0EF76E000E7A
:101C4800F86E00EE4AF010EE0CF00900F5CFEEFF4A
:101C5800E550E150FAE100EE38F0120EEE6AE806BF
:101C6800FDE156905692000EF86E000128EF09F03B
:101C7800A00E2A6E860E2B6E010E2C6E000E2D6E97
:101C880062EC0EF0AEEC0EF0000E2C6E100E2B6E09
:101C9800A5EC0EF0AAEC0EF012002D6EAEEC0EF0D4
:101CA800000E2C6E100E2B6EA5EC0EF02DC02BF036
:101CB8002C6AA5EC0EF0AAEC0EF01200C69A9486D7
:101CC8009488800EC76E280EC66E000EC56E800EF4
:101CD800C86E12002C6E8C842C50F5EC0AF0A00E05
:101CE80000D0E82EFDD712002C6E8C942C50F5EC09
:101CF8000AF0A00E00D0E82EFDD71200036E8C84E7
:101D0800035034EC0BF0A00E00D0E82EFDD71200E3
:101D1800036E8C94035034EC0BF0A00E00D0E82E28
:101D2800FDD71200C7B4FED7C5CF2AF01F0E2A165A
:101D3800D8B41200F7D704001027010001000100F1
:101D4800010096EC0EF02BC0C9FF120096EC0EF0C5
:0C1D5800C584120096EC0EF0C58012004D
:020000040020DA
:08000000FFFFFFFFFFFFFFFF00
:020000040030CA
:0E000000FF081F1EFF8381FF0F400FE00F401F
:00000001FF
