:04000000ACEF0BF066
:1010000000D300940082004B00FF00000000FF00AE
:101010000000FFFF00008CFF000000FF00FFFFFF4B
:10102000008080800000000000C7C5C4C3C2C1C0EA
:10103000B4B3B2B13A3938363534302C2B2A29289A
:10104000262120131211100100C7C5C4C3C2C1C09C
:10105000B4B3B2B13A3938363534302C2B2A29287A
:101060002621201312111001008080A080008C80A6
:101070008C8295909592040E57EC0BF0020E1B6E2D
:10108000040E1A6EBA0EE82EFED71A2EFCD71B2EAF
:10109000FAD700D0010E046E470EF66E100EF76EF2
:1010A0000800F55073EC0BF0070E1B6E990E1A6ECC
:1010B000490EE82EFED71A2EFCD71B2EFAD700F0C9
:1010C000010E046E450EF66E100EF76E0800F55018
:1010D00073EC0BF0070E1B6E990E1A6E490EE82E7C
:1010E000FED71A2EFCD71B2EFAD700F0010E046E85
:1010F000330EF66E100EF76E0800F55073EC0BF021
:10110000000E046E000E73EC0BF0000E046E060E63
:1011100073EC0BF0000E046E030E73EC0BF0010E7B
:10112000046E320EF66E100EF76E0800F55073EC7A
:101130000BF0000E046E010E73EC0BF0000E046E4B
:101140002C0E73EC0BF0000E046E2D0E73EC0BF0F6
:10115000010E046E310EF66E100EF76E0800F5509B
:1011600073EC0BF0000E046E010E73EC0BF0000E2E
:10117000046E2C0E73EC0BF0000E046E2D0E73EC4F
:101180000BF0010E046E300EF66E100EF76E0800B6
:10119000F55073EC0BF0000E046E000E73EC0BF0C8
:1011A000010E046E2F0EF66E100EF76E0800F5504D
:1011B00073EC0BF0000E046EA20E73EC0BF0000E3D
:1011C000046E020E73EC0BF0000E046E840E73ECD2
:1011D0000BF0010E046E2E0EF66E100EF76E080068
:1011E000F55073EC0BF0000E046EC50E73EC0BF0B3
:1011F000010E046E2D0EF66E100EF76E0800F550FF
:1012000073EC0BF0000E046E0A0E73EC0BF0000E84
:10121000046E000E73EC0BF0010E046E2C0EF66ED5
:10122000100EF76E0800F55073EC0BF0000E046E14
:101230008A0E73EC0BF0000E046E2A0E73EC0BF0AA
:10124000010E046E2B0EF66E100EF76E0800F550B0
:1012500073EC0BF0000E046E8A0E73EC0BF0000EB4
:10126000046E2A0E73EC0BF0010E046E2A0EF66E5D
:10127000100EF76E0800F55073EC0BF0000E046EC4
:101280003C0E73EC0BF0010E046E420EF66E100E67
:10129000F76E0800F55073EC0BF0120E2FEC0BF00C
:1012A000010E046E400EF66E100EF76E0800F5503B
:1012B00073EC0BF0000E046E010E73EC0BF0010EDC
:1012C000046E360EF66E100EF76E0800F55073ECD5
:1012D0000BF0010E046E430EF66E100EF76E080052
:1012E000F55073EC0BF0268C268E268A26982696CF
:1012F0002694010E046E370EF66E100EF76E08007F
:10130000F55073EC0BF0000E046E265073EC0BF0EE
:101310006A0EF66E100EF76E0800F5CF07F0000E9D
:10132000086E690EF66E100EF76E0800F5CF09F024
:10133000250EF66E100EF76E0900F5CF0AF00900C3
:10134000F5CF0BF00900F5CF0CF00A00F5CF0DF04A
:10135000000EBDEC09F0010E046E3E0EF66E100E8E
:10136000F76E0800F55073EC0BF0820E1A6EDE0E6D
:10137000E82EFED71A2EFCD71200196E26BC26AA1C
:1013800005D0030E0826030E092615D026AE08D078
:10139000020E0826020E0926030E1926030E0ED091
:1013A00026AC07D0020E0826020E0926192A072AA3
:1013B00006D0082A092A020E1926020E0726010E57
:1013C000046E3C0EF66E100EF76E0800F55073ECCE
:1013D0000BF0000E046E000E73EC0BF0000E046EAA
:1013E000195073EC0BF0000E046E000E73EC0BF052
:1013F000000E046E070473EC0BF0010E046E3D0E3C
:10140000F66E100EF76E0800F55073EC0BF0000E40
:10141000046E000E73EC0BF0000E046E085073ECBB
:101420000BF0000E046E000E73EC0BF0000E046E59
:10143000090473EC0BF0010E046E3B0EF66E100EF9
:10144000F76E0800F55073EC0BF019500718D8A48C
:1014500014D008500918D8A410D0000E046E0A50F9
:1014600073EC0BF0000E046E0B5073EC0BF0000EDF
:10147000046E0C5073EC0BF0120019500E6E0F6AD4
:101480000E1E0F1E0E4A0F2A07500E24016E000E6C
:101490000F20026E0850106E116A101E111E104AA5
:1014A000112A09501024036E000E1120046E87ECDF
:1014B0000BF001C012F002C013F00AC016F00BC00E
:1014C00017F00CC018F08C908C82000E156E000E78
:1014D000146E0BD01650B2EC0BF01750B2EC0BF0B0
:1014E0001850B2EC0BF0144A152A1250145C135029
:1014F0001558D8A0EFD78C801200000E896E000E10
:101500008A6E000E8B6E000E8C6E000E8D6E9268D1
:101510009368800E946E010E956E040E966E000E0A
:10152000C26E0F0EC16E37EC08F0000E236E000E77
:10153000246E000E256E6A0EF66E100EF76E080011
:10154000F5CF07F0000E086E690EF66E100EF76EFE
:101550000800F5CF09F0190EF66E100EF76E0900AF
:10156000F5CF0AF00900F5CF0BF00900F5CF0CF02C
:101570000A00F5CF0DF0000EBDEC09F01A0E226E38
:101580005E0E216E6E0EE82EFED7212EFCD7222E87
:10159000FAD700D01A0E226E5E0E216E6E0EE82E65
:1015A000FED7212EFCD7222EFAD700D0000E1A6EBD
:1015B0001D0EF66E100EF76E0900F5CF1BF0090038
:1015C000F5CF1CF00900F5CF1DF00A00F5CF1EF095
:1015D000000EF8EC0AF01A0E226E5E0E216E6E0EF0
:1015E000E82EFED7212EFCD7222EFAD700D0A3D783
:1015F000206E6A0EF66E100EF76E0900F550205C34
:10160000D8A009D06A0EF66E100EF76E0800F5CF5E
:101610001FF01F04206E690EF66E100EF76E0900A3
:10162000F5501A5CD8A009D06A0EF66E100EF76E4F
:101630000800F5CF1FF01F041A6E20C007F01AC073
:1016400008F01AC009F01BC00AF01CC00BF01DC046
:101650000CF01EC00DF02050BDEC09F01200076E1A
:101660000DD0000E096E030E03D0000E096E050E9C
:10167000086E0DD0000E096E060EFAD707500C0A40
:10168000D8B4EFD71C0AD8B4F0D7020AF3D7010EAA
:10169000046E340EF66E100EF76E0800F55073EC03
:1016A0000BF0000E046E085073EC0BF01200016E8C
:1016B000C69A000EC76E07D0110E03D0120E01D0CD
:1016C000100EC66E0BD00150040AD8B4F9D7140A14
:1016D000D8B4F2D7500AD8B4F1D7F2D7949A9488F4
:1016E0009496C68A1200066E0404D8B403D0056A24
:1016F000052A01D0056A05468C500518FD0B051812
:101700008C6E8C900650B2EC0BF08C801200015065
:101710000302F3CF05F0F4CF06F001500402F350BA
:10172000062602500302F350062605C001F006C04B
:1017300002F01200026E02C0C9FF9EB602D0010E76
:1017400001D0000E016EC7B002D0010E01D0000E14
:101750000110F3E1C9501200266A000EF86E000174
:0E1760007DEF0AF0036E03509AEC0BF01200BE
:020000040020DA
:08000000FFFFFFFFFFFFFFFF00
:020000040030CA
:0E000000FF061F1EFF8381FF0F400FE00F4021
:00000001FF
