:0400000007EF00F016
:0A00080051822DED09F07BEF0BF0A3
:101000000001000A006400E803102700010210023A
:0D101000284E5F636F756E743A2564000012
:10101E003C0E3F6E000E406E7DD0250E4518D8B4A6
:10102E0004D0455094EC0BF075D0000E416E3AC0D2
:10103E00F6FF3BC0F7FF3A4A3B2A0800F5CF45F0D2
:10104E004550000AD8B41200640AD8B403D00D0A71
:10105E00D8A460D03FC0D9FF40C0DAFFDECF43F046
:10106E00DDCF44F0020E3F26000E402244AE06D0E5
:10107E00030E4112436C441ED8B0442A010E456E35
:10108E00050E4518D8B412D04550020D010EF324AA
:10109E00F66E100EF420F76E0900F550435C090051
:1010AE00F5504458D8A002D0452AEAD741C03EF0A8
:1010BE00030E3E16D8B403D02D0E94EC0BF045C0A3
:1010CE0042F024D04250020D010EF324F66E100EA3
:1010DE00F420F76E0900F5CF30F00A00F5CF31F0AD
:1010EE0043C02EF044C02FF075EC0AF02EC035F040
:1010FE002FC036F0000E386E0A0E376E13EC0BF062
:10110E003550300F456E455094EC0BF04206422898
:10111E00D8A4D8D73AC0F6FF3BC0F7FF3A4A3B2ACD
:10112E000800F5CF45F04550D8B4120076D70F0E13
:10113E00126E000E136E7DD0250E1818D8B404D082
:10114E001850A8EC0BF075D0000E146E0DC0F6FF03
:10115E000EC0F7FF0D4A0E2A0800F5CF18F01850F2
:10116E00000AD8B41200640AD8B403D00D0AD8A469
:10117E0060D012C0D9FF13C0DAFFDECF16F0DDCF7C
:10118E0017F0020E1226000E132217AE06D0030E13
:10119E001412166C171ED8B0172A010E186E050EF3
:1011AE001818D8B412D01850020D010EF324F66E92
:1011BE00100EF420F76E0900F550165C0900F5507C
:1011CE001758D8A002D0182AEAD714C011F0030E6F
:1011DE001116D8B403D02D0EA8EC0BF018C015F0D4
:1011EE0024D01550020D010EF324F66E100EF420CD
:1011FE00F76E0900F5CF03F00A00F5CF04F016C024
:10120E0001F017C002F09EEC0AF001C008F002C017
:10121E0009F0000E0B6E0A0E0A6E34EC0BF008503D
:10122E00300F186E1850A8EC0BF015061528D8A420
:10123E00D8D70DC0F6FF0EC0F7FF0D4A0E2A0800D4
:10124E00F5CF18F01850D8B4120076D70600FACFA2
:10125E001AF0FBCF1BF0E9CF1CF0EACF1DF0E1CF67
:10126E001EF0E2CF1FF0D9CF20F0DACF21F0F3CF6E
:10127E0022F0F4CF23F0F6CF24F0F7CF25F0F8CFFD
:10128E0026F0F5CF27F051C028F052C029F053C0F8
:10129E002AF054C02BF0F2A027D0938881A803D057
:1012AE00196A192A01D0196A19502C6E2D6A2C5000
:1012BE002D10D8A418D0EDEC0AF04B4A4C2A190E7A
:1012CE000D6E100E0E6E4BC00FF04CC010F09EEC5B
:1012DE0008F0800EB2EC0BF0340E196EF20EE82E02
:1012EE00FED7192EFCD7F2902BC054F02AC053F023
:1012FE0029C052F028C051F027C0F5FF26C0F8FFD4
:10130E0025C0F7FF24C0F6FF23C0F4FF22C0F3FF71
:10131E0021C0DAFF20C0D9FF1FC0E2FF1EC0E1FFCF
:10132E001DC0EAFF1CC0E9FF1BC0FBFF1AC0FAFF7D
:10133E0051921100D38CD38AD388D3829B8C000E0A
:10134E00896E000E8A6E000E8B6E000E8C6E000E75
:10135E008D6E92689368000E946E000E956E000E60
:10136E00966E000EC26E0F0EC16EC08EF28EC7EC60
:10137E000AF055EC0BF08B809490F286C7EC0AF0D5
:10138E00370E6AEC0BF0938881A803D0466A462A82
:10139E0001D0466A46500001806F816BC7EC0AF09F
:1013AE00190E3A6E100E3B6E4BC03CF04CC03DF029
:1013BE000FEC08F0E8D7110E3A6E100E3B6E4BC0D4
:1013CE003CF04CC03DF00FEC08F0800E9EEC0BF0A4
:1013DE00340E466EF20EE82EFED7462EFCD7EBD715
:1013EE002F6E2F50F00B2E6E8C500F0B8C6E2E50CE
:1013FE008C108C6E000EF2BE010E506EF29E8C861C
:10140E00420EE82EFED700D08C96A00E00D0E82E0D
:10141E00FDD750B002D0F29E01D0F28E2F38F00BD5
:10142E002F6E2F50F00B2E6E8C500F0B8C6E2E508D
:10143E008C108C6E000EF2BE010E506EF29E8C86DB
:10144E00420EE82EFED700D08C96A00E00D0E82ECD
:10145E00FDD750B002D0F29E01D0F28E1200026E75
:10146E000250F00B016E8C500F0B8C6E01508C10D5
:10147E008C6E000EF2BE010E506EF29E8C86420EE7
:10148E00E82EFED700D08C96A00E00D0E82EFDD709
:10149E0050B002D0F29E01D0F28E0238F00B026EE6
:1014AE000250F00B016E8C500F0B8C6E01508C1095
:1014BE008C6E000EF2BE010E506EF29E8C86420EA7
:1014CE00E82EFED700D08C96A00E00D0E82EFDD7C9
:1014DE0050B002D0F29E01D0F28E1200000E346E89
:1014EE00000E336E30503110D8B41CD0010E326E57
:1014FE0004D0D89030363136322A31AEFAD7D89061
:10150E003336343630502E5C31502F58D8A005D09B
:10151E0030502E5E31502F5A3380D89031323032C7
:10152E00322EEDD733C02EF034C02FF01200000E45
:10153E00066E000E056E03500410D8B41CD0010EBA
:10154E00076E04D0D89003360436072A04AEFAD7B5
:10155E00D890053606360350015C04500258D8A0C8
:10156E0005D00350015E0450025A0580D890043213
:10157E000332072EEDD705C001F006C002F01200AF
:10158E009C0E316ED70EE82EFED7312EFCD700F012
:10159E00330E9EEC0BF0320E9EEC0BF0280E9EECF2
:1015AE000BF00F0E9EEC0BF0060E9EEC0BF0010EE8
:1015BE009EEC0BF09C0E316ED70EE82EFED7312E20
:1015CE00FCD700F00F0E9EEC0BF012009C0E046E7A
:1015DE00D70EE82EFED7042EFCD700F0330EB2EC59
:1015EE000BF0320EB2EC0BF0280EB2EC0BF00F0E2D
:1015FE00B2EC0BF0060EB2EC0BF0010EB2EC0BF0EF
:10160E009C0E046ED70EE82EFED7042EFCD700F0EB
:10161E000F0EB2EC0BF0120037503810D8B418D0B1
:10162E00010E396E04D0D89037363836392A38AE96
:10163E00FAD73750355C38503658D8A004D03750CA
:10164E00355E3850365AD89038323732392EF1D777
:10165E0035C035F036C036F012000A500B10D8B433
:10166E0018D0010E0C6E04D0D8900A360B360C2A08
:10167E000BAEFAD70A50085C0B500958D8A004D00C
:10168E000A50085E0B50095AD8900B320A320C2EB3
:10169E00F1D708C008F009C009F01200A00E2E6E96
:1016AE00860E2F6E010E306E000E316E88EC0BF032
:1016BE00CEEC0BF0000E306E100E2F6EC5EC0BF054
:1016CE00CAEC0BF01200316ECEEC0BF0000E306E49
:1016DE00100E2F6EC5EC0BF031C02FF0306AC5EC3A
:1016EE000BF0CAEC0BF0120000EE47F00A0EEE6A99
:1016FE00E806FDE151905192000EF86E0001A1EF47
:10170E0009F0C69A94869488800EC76E280EC66E0F
:10171E00000EC56E800EC86E1200306E8C84305076
:10172E00F7EC09F0A00E00D0E82EFDD71200306EB7
:10173E008C943050F7EC09F0A00E00D0E82EFDD7B7
:10174E001200036E8C84035036EC0AF0A00E00D00B
:10175E00E82EFDD71200036E8C94035036EC0AF07F
:10176E00A00E00D0E82EFDD71200C7B4FED7C5CF0D
:10177E002EF01F0E2E16D8B41200F7D7BCEC0BF0BD
:10178E002FC0C9FF1200BCEC0BF0C5841200BCECDC
:06179E000BF0C5801200F3
:020000040020DA
:08000000FFFFFFFFFFFFFFFF00
:020000040030CA
:0E000000FF081F1EFF8381FF0F400FE00F401F
:00000001FF
