:0400000033EF09F0E1
:10100000003132334134353642373839432A3023C0
:0910100044000001021002280056
:10101A00F20ED36E000E896E000E8A6E000E8B6E73
:10102A00000E8C6E000E8D6E92689368800E946E20
:10103A00000E956E000E966E000EC26E0F0EC16EF9
:10104A000DEC09F0A00E0E6E860E0F6E010E106EDC
:10105A00000E116EDFEC08F059EC09F0000E036E79
:10106A00100E026E50EC09F055EC09F0000E166EE7
:10107A00198059EC09F0000E036E100E026E50EC46
:10108A0009F0000E036E310E026E50EC09F055ECB9
:10109A0009F059EC09F0000E036E100E026E50ECC6
:1010AA0009F0000E036E320E026E50EC09F055EC98
:1010BA0009F0DFD7000E096E000E0A6E000E0B6EE5
:1010CA00000E0C6E0550061007100810D8B42AD06E
:1010DA00010E0D6E06D0D89005360636073608364C
:1010EA000D2A08AEF8D7D89009360A360B360C36D0
:1010FA000550015C0650025807500358085004581E
:10110A00D8A009D00550015E0650025A0750035A6A
:10111A000850045A0980D89008320732063205323C
:10112A000D2EE1D709C001F00AC002F00BC003F08E
:10113A000CC004F01200026E0250F00B016E8C50CB
:10114A000F0B8C6E01508C108C6E000EF2BE010ECD
:10115A00176EF29E8C86420EE82EFED700D08C9631
:10116A00A00E00D0E82EFDD717B002D0F29E01D013
:10117A00F28E0238F00B026E0250F00B016E8C50A8
:10118A000F0B8C6E01508C108C6E000EF2BE010E8D
:10119A00176EF29E8C86420EE82EFED700D08C96F1
:1011AA00A00E00D0E82EFDD717B002D0F29E01D0D3
:1011BA00F28E1200C69A94869488800EC76E280E04
:1011CA00C66E000EC56E000E016E480E026EE80E67
:1011DA00036E010E046E0EC012F00FC013F010C0A1
:1011EA0014F011C015F0020ED890123613361436C8
:1011FA001536E82EF9D712C005F013C006F014C050
:10120A0007F015C008F05FEC08F00104C86E120080
:10121A009C0E046ED70EE82EFED7042EFCD700F0E3
:10122A00330E3DEC09F0320E3DEC09F0280E3DEC90
:10123A0009F00F0E3DEC09F0060E3DEC09F0010E27
:10124A003DEC09F09C0E046ED70EE82EFED7042E54
:10125A00FCD700F00F0E3DEC09F01200196A186A6B
:10126A00176A000EF86E100EF76E00010DEF08F007
:10127A00036E8C940350A0EC08F0A00E00D0E82E68
:10128A00FDD71200C7B4FED7C5CF01F01F0E011655
:10129A00D8B41200F7D747EC09F002C0C9FF120010
:1012AA0047EC09F0C584120047EC09F0C58012002A
:020000040020DA
:08000000FFFFFFFFFFFFFFFF00
:020000040030CA
:0E000000FF081F1EFF8381FF0F400FE00F401F
:00000001FF
