:0400000007EF00F016
:100008006C82FFED0BF0AEEF15F0630E016E000E83
:10001800026EFA0E036EFF0E046E71EC16F00150BC
:100028000210D8A423D068C056F069C057F068C041
:10003800D3F069C0D4F0D8905834D96E5934DA6EF8
:10004800360ED926000EDA22DECF07F0DDCF08F013
:10005800D89007360836A00E0724D96E000E08205F
:10006800DA6E56C0DEFF57C0DDFF1200630E016E68
:10007800000E026ED50E036EFF0E046E71EC16F0C4
:1000880001500210D8A423D068C054F069C055F0BC
:1000980068C0D3F069C0D4F0D8905834D96E5934B8
:1000A800DA6E360ED926000EDA22DECF07F0DDCF63
:1000B80008F0D89007360836900E0724D96E000E3F
:1000C8000820DA6E54C0DEFF55C0DDFF1200630E53
:1000D800016E000E026EF30E036EFF0E046E71ECDD
:1000E80016F001500210D8A423D068C052F069C09D
:1000F80053F068C0D3F069C0D4F0D8905834D96EA2
:100108005934DA6E360ED926000EDA22DECF07F021
:10011800DDCF08F0D89007360836000E0724D96ED0
:10012800010E0820DA6E52C0DEFF53C0DDFF120058
:10013800630E016E000E026EDD0E036EFF0E046E7E
:1001480071EC16F001500210D8A423D068C050F00A
:1001580069C051F068C0D3F069C0D4F0D890583461
:10016800D96E5934DA6E360ED926000EDA22DECF71
:1001780007F0DDCF08F0D89007360836800E072440
:10018800D96E000E0820DA6E50C0DEFF51C0DDFFC8
:100198001200630E016E000E026ED40E036EFF0E87
:1001A800046E71EC16F001500210D8A443D068C058
:1001B80056F069C057F068C054F069C055F0D8903F
:1001C80068340001D36F6934D46FD8905834D96E2D
:1001D8005934DA6E360ED926000EDA22DECF07F051
:1001E800DDCF08F0D89007360836A00E0724D96E60
:1001F800000E0820DA6E56C0DEFF57C0DDFFD8902B
:100208005834D96E5934DA6E360ED926000EDA22F1
:10021800DECF07F0DDCF08F0D89007360836900E0D
:100228000724D96E000E0820DA6E54C0DEFF55C0D0
:10023800DDFF1200630E016E000E026ED80E036E13
:10024800FF0E046E71EC16F001500210D8A443D0D2
:1002580068C056F069C057F068C052F069C053F0E2
:10026800D89068340001D36F6934D46FD89058346B
:10027800D96E5934DA6E360ED926000EDA22DECF60
:1002880007F0DDCF08F0D89007360836A00E07240F
:10029800D96E000E0820DA6E56C0DEFF57C0DDFFAB
:1002A800D8905834D96E5934DA6E360ED926000EE5
:1002B800DA22DECF07F0DDCF08F0D890073608360F
:1002C800000E0724D96E010E0820DA6E52C0DEFF38
:1002D80053C0DDFF1200630E016E000E026EDC0ECD
:1002E800036EFF0E046E71EC16F001500210D8A4D4
:1002F80043D068C056F069C057F068C050F069C074
:1003080051F0D89068340001D36F6934D46FD89015
:100318005834D96E5934DA6E360ED926000EDA22E0
:10032800DECF07F0DDCF08F0D89007360836A00EEC
:100338000724D96E000E0820DA6E56C0DEFF57C0BB
:10034800DDFFD8905834D96E5934DA6E360ED92676
:10035800000EDA22DECF07F0DDCF08F0D89007369E
:100368000836800E0724D96E000E0820DA6E50C0B9
:10037800DEFF51C0DDFF1200630E016E000E026E3B
:10038800D30E036EFF0E046E71EC16F001500210CE
:10039800D8A44CD0D8906834566E6934576E68C06B
:1003A80054F069C055F068C001F069C002F0000E51
:1003B800046E030E036E55EC17F001C0D3F002C0B3
:1003C800D4F0D8905834D96E5934DA6E360ED9260E
:1003D800000EDA22DECF07F0DDCF08F0D89007361E
:1003E8000836A00E0724D96E000E0820DA6E56C013
:1003F800DEFF57C0DDFFD8905834D96E5934DA6E15
:10040800360ED926000EDA22DECF07F0DDCF08F04F
:10041800D89007360836900E0724D96E000E0820AB
:10042800DA6E54C0DEFF55C0DDFF1200630E016EA8
:10043800000E026ED70E036EFF0E046E71EC16F0FE
:1004480001500210D8A44CD0D8906834566E693444
:10045800576E68C052F069C053F068C001F069C0B7
:1004680002F0000E046E030E036E55EC17F001C087
:10047800D3F002C0D4F0D8905834D96E5934DA6E1B
:10048800360ED926000EDA22DECF07F0DDCF08F0CF
:10049800D89007360836A00E0724D96E000E08201B
:1004A800DA6E56C0DEFF57C0DDFFD8905834D96EDB
:1004B8005934DA6E360ED926000EDA22DECF07F06E
:1004C800DDCF08F0D89007360836000E0724D96E1D
:1004D800010E0820DA6E52C0DEFF53C0DDFF1200A5
:1004E800630E016E000E026EDB0E036EFF0E046ECD
:1004F80071EC16F001500210D8A44CD0D890683492
:10050800566E6934576E68C050F069C051F068C0C3
:1005180001F069C002F0000E046E030E036E55EC84
:1005280017F001C0D3F002C0D4F0D8905834D96E77
:100538005934DA6E360ED926000EDA22DECF07F0ED
:10054800DDCF08F0D89007360836A00E0724D96EFC
:10055800000E0820DA6E56C0DEFF57C0DDFFD890C7
:100568005834D96E5934DA6E360ED926000EDA228E
:10057800DECF07F0DDCF08F0D89007360836800EBA
:100588000724D96E000E0820DA6E50C0DEFF51C075
:10059800DDFF1200630E016E000E026EB10E036ED7
:1005A800FF0E046E71EC16F001500210D8A469D049
:1005B80068C056F069C057F068C050F069C051F083
:1005C80068C054F069C055F068C001F069C002F015
:1005D800000E046E030E036E55EC17F001C0D3F045
:1005E80002C0D4F0D8905834D96E5934DA6E360E29
:1005F800D926000EDA22DECF07F0DDCF08F0D8903A
:1006080007360836A00E0724D96E000E0820DA6EC9
:1006180056C0DEFF57C0DDFFD8905834D96E593424
:10062800DA6E360ED926000EDA22DECF07F0DDCFDD
:1006380008F0D89007360836800E0724D96E000EC9
:100648000820DA6E50C0DEFF51C0DDFFD890583464
:10065800D96E5934DA6E360ED926000EDA22DECF7C
:1006680007F0DDCF08F0D89007360836900E07243B
:10067800D96E000E0820DA6E54C0DEFF55C0DDFFCB
:100688001200630E016E000E026EBB0E036EFF0EAB
:10069800046E71EC16F001500210D8A469D068C03D
:1006A80056F069C057F068C052F069C053F068C08E
:1006B80054F069C055F068C001F069C002F0000E3E
:1006C800046E030E036E55EC17F001C0D3F002C0A0
:1006D800D4F0D8905834D96E5934DA6E360ED926FB
:1006E800000EDA22DECF07F0DDCF08F0D89007360B
:1006F8000836A00E0724D96E000E0820DA6E56C000
:10070800DEFF57C0DDFFD8905834D96E5934DA6E01
:10071800360ED926000EDA22DECF07F0DDCF08F03C
:10072800D89007360836000E0724D96E010E082027
:10073800DA6E52C0DEFF53C0DDFFD8905834D96E50
:100748005934DA6E360ED926000EDA22DECF07F0DB
:10075800DDCF08F0D89007360836900E0724D96EFA
:10076800000E0820DA6E54C0DEFF55C0DDFF12000F
:10077800630E016E000E026EDF0E036EFF0E046E36
:1007880071EC16F001500210D8A44CD068C056F095
:1007980069C057F0D8906834506E6934516E68C09B
:1007A80001F069C002F0000E046E030E036E55ECF2
:1007B80017F001C0D3F002C0D4F0D8905834D96EE5
:1007C8005934DA6E360ED926000EDA22DECF07F05B
:1007D800DDCF08F0D89007360836A00E0724D96E6A
:1007E800000E0820DA6E56C0DEFF57C0DDFFD89035
:1007F8005834D96E5934DA6E360ED926000EDA22FC
:10080800DECF07F0DDCF08F0D89007360836800E27
:100818000724D96E000E0820DA6E50C0DEFF51C0E2
:10082800DDFF1200630E016E000E026EBF0E036E36
:10083800FF0E046E71EC16F001500210D8A46AD0B5
:1008480068C056F069C057F068C054F069C055F0E8
:10085800D8906834506E6934516E68C007F069C02A
:1008680008F0D89007360836D8900736083607C0FB
:10087800D3F008C0D4F0D8905834D96E5934DA6E11
:10088800360ED926000EDA22DECF07F0DDCF08F0CB
:10089800D89007360836A00E0724D96E000E082017
:1008A800DA6E56C0DEFF57C0DDFFD8905834D96ED7
:1008B8005934DA6E360ED926000EDA22DECF07F06A
:1008C800DDCF08F0D89007360836900E0724D96E89
:1008D800000E0820DA6E54C0DEFF55C0DDFFD89048
:1008E8005834D96E5934DA6E360ED926000EDA220B
:1008F800DECF07F0DDCF08F0D89007360836800E37
:100908000724D96E000E0820DA6E50C0DEFF51C0F1
:10091800DDFF1200630E016E000E026EC40E036E40
:10092800FF0E046E71EC16F001500210D8A46AD0C4
:1009380068C056F069C057F068C052F069C053F0FB
:10094800D8906834506E6934516E68C007F069C039
:1009580008F0D89007360836D8900736083607C00A
:10096800D3F008C0D4F0D8905834D96E5934DA6E20
:10097800360ED926000EDA22DECF07F0DDCF08F0DA
:10098800D89007360836A00E0724D96E000E082026
:10099800DA6E56C0DEFF57C0DDFFD8905834D96EE6
:1009A8005934DA6E360ED926000EDA22DECF07F079
:1009B800DDCF08F0D89007360836000E0724D96E28
:1009C800010E0820DA6E52C0DEFF53C0DDFFD8905A
:1009D8005834D96E5934DA6E360ED926000EDA221A
:1009E800DECF07F0DDCF08F0D89007360836800E46
:1009F8000724D96E000E0820DA6E50C0DEFF51C001
:100A0800DDFF1200630E016E000E026EBA0E036E59
:100A1800FF0E046E71EC16F001500210D8A46AD0D3
:100A2800D8906834566E6934576E68C052F069C001
:100A380053F068C050F069C051F068C007F069C051
:100A480008F0D89007360836D8900736083607C019
:100A5800D3F008C0D4F0D8905834D96E5934DA6E2F
:100A6800360ED926000EDA22DECF07F0DDCF08F0E9
:100A7800D89007360836A00E0724D96E000E082035
:100A8800DA6E56C0DEFF57C0DDFFD8905834D96EF5
:100A98005934DA6E360ED926000EDA22DECF07F088
:100AA800DDCF08F0D89007360836000E0724D96E37
:100AB800010E0820DA6E52C0DEFF53C0DDFFD89069
:100AC8005834D96E5934DA6E360ED926000EDA2229
:100AD800DECF07F0DDCF08F0D89007360836800E55
:100AE8000724D96E000E0820DA6E50C0DEFF51C010
:100AF800DDFF1200630E016E000E026EB00E036E73
:100B0800FF0E046E71EC16F001500210D8A46AD0E2
:100B1800D8906834566E6934576E68C054F069C00E
:100B280055F068C050F069C051F068C007F069C05E
:100B380008F0D89007360836D8900736083607C028
:100B4800D3F008C0D4F0D8905834D96E5934DA6E3E
:100B5800360ED926000EDA22DECF07F0DDCF08F0F8
:100B6800D89007360836A00E0724D96E000E082044
:100B7800DA6E56C0DEFF57C0DDFFD8905834D96E04
:100B88005934DA6E360ED926000EDA22DECF07F097
:100B9800DDCF08F0D89007360836900E0724D96EB6
:100BA800000E0820DA6E54C0DEFF55C0DDFFD89075
:100BB8005834D96E5934DA6E360ED926000EDA2238
:100BC800DECF07F0DDCF08F0D89007360836800E64
:100BD8000724D96E000E0820DA6E50C0DEFF51C01F
:100BE800DDFF1200630E016E000E026EB50E036E7D
:100BF800FF0E046E71EC16F001500210D8A46AD0F2
:100C080068C056F069C057F0D8906834546E69349B
:100C1800556E68C050F069C051F068C007F069C0EF
:100C280008F0D89007360836D8900736083607C037
:100C3800D3F008C0D4F0D8905834D96E5934DA6E4D
:100C4800360ED926000EDA22DECF07F0DDCF08F007
:100C5800D89007360836A00E0724D96E000E082053
:100C6800DA6E56C0DEFF57C0DDFFD8905834D96E13
:100C78005934DA6E360ED926000EDA22DECF07F0A6
:100C8800DDCF08F0D89007360836900E0724D96EC5
:100C9800000E0820DA6E54C0DEFF55C0DDFFD89084
:100CA8005834D96E5934DA6E360ED926000EDA2247
:100CB800DECF07F0DDCF08F0D89007360836800E73
:100CC8000724D96E000E0820DA6E50C0DEFF51C02E
:100CD800DDFF1200630E016E000E026EAB0E036E96
:100CE800FF0E046E71EC16F001500210D8A455D016
:100CF80068C056F069C057F068C001F069C002F0DA
:100D0800000E046E030E036E55EC17F001C054F08C
:100D180002C055F068C007F069C008F0D8900736DF
:100D28000836D8900736083607C0D3F008C0D4F084
:100D3800D8905834D96E5934DA6E360ED926000E4A
:100D4800DA22DECF07F0DDCF08F0D8900736083674
:100D5800A00E0724D96E000E0820DA6E56C0DEFFFA
:100D680057C0DDFFD8905834D96E5934DA6E360E34
:100D7800D926000EDA22DECF07F0DDCF08F0D890B2
:100D880007360836900E0724D96E000E0820DA6E52
:100D980054C0DEFF55C0DDFF1200630E016E000E69
:100DA800026EC90E036EFF0E046E71EC16F0015050
:100DB8000210D8A4120068C056F069C057F068C085
:100DC80001F069C002F0000E046E030E036E55ECCC
:100DD80017F001C050F002C051F068C007F069C0B8
:100DE80008F0D89007360836D8900736083607C076
:100DF800D3F008C0D4F0D8905834D96E5934DA6E8C
:100E0800360ED926000EDA22DECF07F0DDCF08F045
:100E1800D89007360836A00E0724D96E000E082091
:100E2800DA6E56C0DEFF57C0DDFFD8905834D96E51
:100E38005934DA6E360ED926000EDA22DECF07F0E4
:100E4800DDCF08F0D89007360836800E0724D96E13
:100E5800000E0820DA6E50C0DEFF51C0DDFF120020
:100E6800000E896E000E8A6E000E8B6E000E8C6E60
:100E7800000E8D6E92689368000E946E000E956E4B
:100E8800000E966E000EC26E0F0EC16EF086F28EC8
:100E980000EC16F046504710D8A4BFD100EC16F06D
:100EA8005C505D10D8A423D0800E94EC17F0410E4E
:100EB8000101896FEE0EE82EFED7892FFCD700F0CE
:100EC8002D0E0001F36FFF0EF46F6AEC11F0330E74
:100ED80001018A6FBB0E896FDF0EE82EFED7892FBE
:100EE800FCD78A2FFAD700D0C00E94EC17F05C0418
:100EF8005D10D8A424D000EC16F03C0E0001F36F6E
:100F0800FF0EF46F6AEC11F0C00E94EC17F0F50EBA
:100F18000001F36FFF0EF46FE20EF56F000EF66F2F
:100F28006AEC11F01A0E01018A6F5E0E896F6E0E5F
:100F3800E82EFED7892FFCD78A2FFAD700F0020EA9
:100F48005C185D10D8A416D000EC16F0890E0001CC
:100F5800F36FFF0EF46F6AEC11F01A0E01018A6F3D
:100F68005E0E896F6E0EE82EFED7892FFCD78A2F6A
:100F7800FAD700F0030E5C185D10D8A491D700ECE6
:100F880016F09F0E0001F36FFF0EF46F6AEC11F07C
:100F9800660E01018A6F760E896FC10EE82EFED7A4
:100FA800892FFCD78A2FFAD700EC16F00D0E000116
:100FB800F36FFF0EF46F5AC0F5F05BC0F6F06AEC01
:100FC80011F0330E01018A6FBB0E896FDF0EE82E18
:100FD800FED7892FFCD78A2FFAD700D0000E5F6E74
:100FE800000E5E6E6DD000EC16F0CE0E0001F36FB1
:100FF800FF0EF46F6AEC11F0F80E0001F36FFE0EAD
:10100800F46F5EC0F5F05FC0F6F06AEC11F0E50E23
:101018000001F36FFF0EF46F6AEC11F0F50E00019A
:10102800F36FFF0EF46F5EC0E7F05FC0E8F0000EEC
:10103800EA6F050EE96F41EC17F0580E0001E7253D
:10104800F56F010EE821F66F6AEC11F0F80E000159
:10105800F36FFF0EF46F6AEC11F0F80E0001F36FF6
:10106800FE0EF46FD8905E34D96E5F34DA6E200EBF
:10107800D926010EDA22DECFF5F0DDCFF6F06AECE4
:1010880011F0330E01018A6FBB0E896FDF0EE82E57
:10109800FED7892FFCD78A2FFAD700D0C00E94EC40
:1010A80017F0330E01018A6FBB0E896FDF0EE82E31
:1010B800FED7892FFCD78A2FFAD700D05E4A5F2A3D
:1010C8005A505E5C5B505F58D8A08DD7000E5F6E9B
:1010D800000E5E6E5F5005E1080E5E5CD8B099D0D8
:1010E80001D097D000EC16F0F80E0001F36FFE0E59
:1010F800F46FD8905E34D96E5F34DA6EB00ED926AC
:10110800000EDA22DECFF5F0DDCFF6F06AEC11F052
:10111800E30E0001F36FFF0EF46F6AEC11F0F80EA6
:101128000001F36FFE0EF46FD8905E34D96E5F3411
:10113800DA6EA00ED926000EDA22DECFF5F0DDCF6A
:10114800F6F06AEC11F0E70E0001F36FFF0EF46F92
:101158006AEC11F0F80E0001F36FFE0EF46FD890F0
:101168005E34D96E5F34DA6E900ED926000EDA221C
:10117800DECFF5F0DDCFF6F06AEC11F0F20E0001EB
:10118800F36FFF0EF46F6AEC11F0F80E0001F36FC5
:10119800FE0EF46FD8905E34D96E5F34DA6E000EAE
:1011A800D926010EDA22DECFF5F0DDCFF6F06AECB3
:1011B80011F0EB0E0001F36FFF0EF46F6AEC11F003
:1011C800F80E0001F36FFE0EF46FD8905E34D96EFE
:1011D8005F34DA6E800ED926000EDA22DECFF5F003
:1011E800DDCFF6F06AEC11F0330E01018A6FBB0E09
:1011F800896FDF0EE82EFED7892FFCD78A2FFAD702
:1012080000D0C00E94EC17F05E4A5F2A5F5001E1EF
:1012180063D7000E476E020E466E46044710D8A4E8
:101228003AD200EC16F06A506B10D8A434D000EC17
:1012380016F0F80E0001F36FFE0EF46FA0EC14F038
:10124800EAC0F5F0EBC0F6F06AEC11F0060E010109
:101258008A6F130E896FAD0EE82EFED7892FFCD743
:101268008A2FFAD700D0800E94EC17F0410E0101B6
:10127800896FEE0EE82EFED7892FFCD700F0A0EC80
:1012880014F00001EA05EB11D8A4D3D7000E6B6E59
:10129800010E6A6EFAD16A046B10D8A4F6D1310E29
:1012A80088EC17F00B0E01018A6F260E896F5D0E10
:1012B800E82EFED7892FFCD78A2FFAD700D00B0E3D
:1012C80001018A6F260E896F5D0EE82EFED7892FE1
:1012D800FCD78A2FFAD700D000EC16F0000E5F6E0C
:1012E800000E5E6E5F5005E1080E5E5CD8B0CDD191
:1012F80001D0CBD1D8905E34D96E5F34DA6EB00E9F
:10130800D926000EDA22DE04DE10D8A48AD100EC39
:1013180016F000EC16F0FC0E0001F36FFF0EF46FF0
:101328006AEC11F0F80E0001F36FFE0EF46F5EC068
:10133800F5F05FC0F6F06AEC11F0E50E0001F36F0E
:10134800FF0EF46F6AEC11F0290E01018A6F960EF8
:10135800896F7F0EE82EFED7892FFCD78A2FFAD700
:1013680000EC16F0800E94EC17F0410E0101896F25
:10137800EE0EE82EFED7892FFCD700F0D8905E3409
:10138800D96E5F34DA6EA00ED926000EDA22DE504E
:101398004E5C4F50800A01018B6FDE50800A8B59DA
:1013A800D8A06ED0D8905E34D96E5F34DA6E000E55
:1013B800D926010EDA22DE504C5C4D50800A8B6F24
:1013C800DE50800A8B59D8A05BD0D8905E34D96E95
:1013D8005F34DA6E900ED926000EDA22DE504A5CAF
:1013E8004B50800A8B6FDE50800A8B59D8A048D0AA
:1013F800D8905E34D96E5F34DA6E800ED926000E2E
:10140800DA22DE50485C4950800A8B6FDE50800A31
:101418008B59D8A035D0E70E0001F36FFE0EF46F9C
:101428004EC0F5F04FC0F6F04CC0F7F04DC0F8F0E4
:101438004AC0F9F04BC0FAF048C0FBF049C0FCF0D4
:101448006AEC11F0330E01018A6FBB0E896FDF0E53
:10145800E82EFED7892FFCD78A2FFAD700D0000EA6
:101468004F6E000E4E6E000E4D6E000E4C6E000E4E
:101478004B6E000E4A6E000E496E000E486E00D18B
:10148800D8905E34D96E5F34DA6EA00ED926000E7D
:10149800DA22DE504E5C4F50800A01018B6FDE501D
:1014A800800A8B59D8B020D0E40E0001F36FFF0EEC
:1014B800F46F6AEC11F0F80E0001F36FFE0EF46F92
:1014C8004EC0F5F04FC0F6F06AEC11F0290E01019C
:1014D8008A6F960E896F7F0EE82EFED7892FFCD76C
:1014E8008A2FFAD74E4A4F2AD8905E34D96E5F3485
:1014F800DA6E000ED926010EDA22DE504C5C4D5011
:10150800800A01018B6FDE50800A8B59D8B020D039
:10151800EF0E0001F36FFF0EF46F6AEC11F0F80E96
:101528000001F36FFE0EF46F4CC0F5F04DC0F6F0FD
:101538006AEC11F0290E01018A6F960E896F7F0EF1
:10154800E82EFED7892FFCD78A2FFAD74C4A4D2A86
:10155800D8905E34D96E5F34DA6E900ED926000EBC
:10156800DA22DE504A5C4B50800A01018B6FDE5054
:10157800800A8B59D8B020D0E80E0001F36FFF0E17
:10158800F46F6AEC11F0F80E0001F36FFE0EF46FC1
:101598004AC0F5F04BC0F6F06AEC11F0290E0101D3
:1015A8008A6F960E896F7F0EE82EFED7892FFCD79B
:1015B8008A2FFAD74A4A4B2AD8905E34D96E5F34BC
:1015C800DA6E800ED926000EDA22DE50485C4950C9
:1015D800800A01018B6FDE50800A8B59D8B0C2D6C1
:1015E800EC0E0001F36FFF0EF46F6AEC11F0F80EC9
:1015F8000001F36FFE0EF46F48C0F5F049C0F6F035
:101608006AEC11F0290E01018A6F960E896F7F0E20
:10161800E82EFED7892FFCD78A2FFAD7484A492ABD
:10162800A1D600EC16F0FC0E0001F36FFF0EF46F6C
:101638006AEC11F0F80E0001F36FFE0EF46F5EC055
:10164800F5F05FC0F6F06AEC11F0E50E0001F36FFB
:10165800FF0EF46F6AEC11F0510E0001F36FFF0EEC
:10166800F46F6AEC11F0990E01018A6F310E896FDF
:10167800A20EE82EFED7892FFCD78A2FFAD700F0C2
:101688005E4A5F2A5F5001E12FD6CBEC13F0000EC3
:10169800476E030E466E030E46184710D8A44EEF49
:1016A80007F000EC16F096EC16F00B0E01018A6FAD
:1016B800260E896F5D0EE82EFED7892FFCD78A2F5C
:1016C800FAD700D04CEC16F0100E01018A6F390ED3
:1016D800896F0D0EE82EFED7892FFCD78A2FFAD7EF
:1016E80000D007D078EC17F00001CD4BCE2B4E4A36
:1016F8004F2A0001CEBFF6D7CE5104E1280ECD5DAA
:10170800D8A0F0D768EC17F06D0E0001F36FFF0E4C
:10171800F46F4EC0F5F04FC0F6F06AEC11F0990E78
:1017280001018A6F310E896FA20EE82EFED7892F2C
:10173800FCD78A2FFAD700F0800E94EC17F0410EF0
:101748000101896FEE0EE82EFED7892FFCD700F035
:1017580000EC16F04A0E0001F36FFF0EF46F6AEC0E
:1017680011F0330E01018A6FBB0E896FDF0EE82E70
:10177800FED7892FFCD78A2FFAD700D0800E94EC99
:1017880017F0410E0101896FEE0EE82EFED7892F62
:10179800FCD700F0000E0001CC6F010ECB6FFB0EE2
:1017A800F36FFE0EF46F6AEC11F0330E01018A6FCD
:1017B800BB0E896FDF0EE82EFED7892FFCD78A2F44
:1017C800FAD700D0800E94EC17F0410E0101896F12
:1017D800EE0EE82EFED7892FFCD700F00001C905D0
:1017E800CA11D8A4D7D72EEC13F0000E476E000EFE
:1017F800466E4EEF07F00600FACF20F0FBCF21F03F
:10180800E9CF22F0EACF23F0E1CF24F0E2CF25F0B0
:10181800D9CF26F0DACF27F0F3CF28F0F4CF29F08C
:10182800F6CF2AF0F7CF2BF0F8CF2CF0F5CF2DF02C
:101838006CC02EF06DC02FF06EC030F06FC031F06C
:10184800F0A0E8D381380F0B0F0B356E3550010D22
:101858005F0EF324F66EFE0EF420F76EF86A000EA3
:10186800F8220800F5CF34F0410E3418D8A405D07A
:10187800D1C05CF0D2C05DF0CCD30001CB05CC1157
:10188800D8A409D0310E3418D8A405D0000ECA6FD8
:10189800010EC96FBED35C505D10D8A4C9D0340EF8
:1018A8003418D8A41FD0000E5B6E040E5A6E5CC0AC
:1018B800D1F05DC0D2F0000E5D6E010E5C6EC00E00
:1018C800AAEC17F03550010D5F0EF324F66EFE0EEC
:1018D800F420F76EF86A000EF8220800F550A0EC24
:1018E80017F09FD0350E3418D8A41FD0000E5B6EA9
:1018F800050E5A6E5CC0D1F05DC0D2F0000E5D6E70
:10190800010E5C6EC00EAAEC17F03550010D5F0E8B
:10191800F324F66EFE0EF420F76EF86A000EF82235
:101928000800F550A0EC17F07CD0360E3418D8A477
:101938001FD0000E5B6E060E5A6E5CC0D1F05DC003
:10194800D2F0000E5D6E010E5C6EC00EAAEC17F0B0
:101958003550010D5F0EF324F66EFE0EF420F76E7F
:10196800F86A000EF8220800F550A0EC17F059D0DC
:10197800370E3418D8A41FD0000E5B6E070E5A6EAF
:101988005CC0D1F05DC0D2F0000E5D6E010E5C6EE1
:10199800C00EAAEC17F03550010D5F0EF324F66E59
:1019A800FE0EF420F76EF86A000EF8220800F550D3
:1019B800A0EC17F036D0380E3418D8A41FD0000E7B
:1019C8005B6E080E5A6E5CC0D1F05DC0D2F0000E9E
:1019D8005D6E010E5C6EC00EAAEC17F03550010D5D
:1019E8005F0EF324F66EFE0EF420F76EF86A000E12
:1019F800F8220800F550A0EC17F013D026EC16F0EA
:101A08001E0E0D6EFF0E0E6E53EC12F0330E1C6E92
:101A1800BB0E1B6EE00EE82EFED71B2EFCD71C2E2D
:101A2800FAD75AC001F05BC002F034EC10F0F1D2E2
:101A38005C045D10D8A4A5D1410E3418D8A404D0F4
:101A4800D1C05CF0D2C05DF0310E3418D8A41DD0DE
:101A5800C00EAAEC17F0420EA0EC17F0DD0E076ED0
:101A6800000E086EFA0E096EFF0E0A6EBAEC16F03A
:101A7800E20E016E000E026EDD0E036E000E046EA5
:101A880020EC17F00001D94BDA2B320E3418D8A409
:101A98001DD0C00EAAEC17F04E0EA0EC17F0DD0E0C
:101AA800076E000E086ED50E096EFF0E0A6EBAECB0
:101AB80016F0E20E016E000E026EDD0E036E000ED1
:101AC800046E20EC17F00001D94BDA2B330E3418D2
:101AD800D8A41DD0C00EAAEC17F0530EA0EC17F036
:101AE800DD0E076E000E086EF30E096EFF0E0A6E0D
:101AF800BAEC16F0E20E016E000E026EDD0E036EF9
:101B0800000E046E20EC17F00001D94BDA2B340ECE
:101B18003418D8A41DD0C00EAAEC17F0570EA0ECAC
:101B280017F0DD0E076E000E086EDD0E096EFF0E53
:101B38000A6EBAEC16F0E20E016E000E026EDD0EB1
:101B4800036E000E046E20EC17F00001D94BDA2B5F
:101B58003550010D5F0EF324F66EFE0EF420F76E7D
:101B6800F86A000EF8220800F5502A0AD8A4DCD03A
:101B7800330E1C6EBB0E1B6EE00EE82EFED71B2E1E
:101B8800FCD71C2EFAD70001D94BDA2B000E336E86
:101B9800000E326E33BE08D0335005E1140E325CAD
:101BA800D8B089D001D087D0E20E076E000E086E3B
:101BB80032C001F033C002F0000E046E050E036E51
:101BC80055EC17F0830E0124096EFE0E02200A6EF2
:101BD800000E0C6E040E0B6E1BEC14F00750081070
:101BE800D8A462D058C001F059C002F0000E046EAB
:101BF800050E036E55EC17F0580E0124076E010E02
:101C08000220086EE20E096E000E0A6EBAEC16F09B
:101C1800630E076E000E086EE20E096E000E0A6E65
:101C2800BAEC16F0000E0001D66F010ED56F000E4B
:101C38005D6E020E5C6E26EC16F0770E0D6EFF0ED2
:101C48000E6E53EC12F01A0E1C6E5E0E1B6E6E0EAC
:101C5800E82EFED71B2EFCD71C2EFAD700D0F50E87
:101C68000D6EFF0E0E6EE20E0F6E000E106E53EC30
:101C780012F0E20E076E000E086E2C0E096EFF0EB3
:101C88000A6EBAEC16F0330E1C6EBB0E1B6EE00E1D
:101C9800E82EFED71B2EFCD71C2EFAD7000E00010B
:101CA800DA6F000ED96F07D0324A332A33BE7CD799
:101CB800335001E173D70001D505D611D8B430D01F
:101CC80026EC16F0620E0D6EFF0E0E6E53EC12F03F
:101CD800F50E0D6EFF0E0E6EE20E0F6E000E106EFC
:101CE80053EC12F0E20E076E000E086E2C0E096E11
:101CF800FF0E0A6EBAEC16F0330E1C6EBB0E1B6E8E
:101D0800E00EE82EFED71B2EFCD71C2EFAD7000EAD
:101D18000001DA6F000ED96F000ED66F000ED56F76
:101D2800000ED66F000ED56F0001DABF72D1DA51FE
:101D380004E1050ED95DD8A06CD126EC16F0980EFA
:101D48000D6EFF0E0E6E53EC12F01A0E1C6E5E0E28
:101D58001B6E6E0EE82EFED71B2EFCD71C2EFAD754
:101D680000D0E20E076E000E086E2C0E096EFF0EF4
:101D78000A6EBAEC16F0000E0001DA6F000ED96F89
:101D880048D1020E5C185D10D8A42ED1000E0001B7
:101D9800DA6F000ED96FC00EAAEC17F03550010D9E
:101DA8005F0EF324F66EFE0EF420F76EF86A000E4E
:101DB800F8220800F550A0EC17F01A0E1C6E5E0E03
:101DC8001B6E6E0EE82EFED71B2EFCD71C2EFAD7E4
:101DD80000D03550010D5F0EF324F66EFE0EF42090
:101DE800F76EF86A000EF8220800F550310AD8B4E8
:101DF8005AD03550010D5F0EF324F66EFE0EF42016
:101E0800F76EF86A000EF8220800F550320AD8B4C6
:101E18004AD03550010D5F0EF324F66EFE0EF42005
:101E2800F76EF86A000EF8220800F550330AD8B4A5
:101E38003AD03550010D5F0EF324F66EFE0EF420F5
:101E4800F76EF86A000EF8220800F550340AD8B484
:101E58002AD0CAD0000E696E010E0FD0000E696E2E
:101E6800020E0BD0000E696E030E07D0000E696ECD
:101E7800040E03D0000E696E050E686E31D026EC94
:101E880016F0560E0D6EFF0E0E6E53EC12F0330E5A
:101E98001C6EBB0E1B6EE00EE82EFED71B2EFCD769
:101EA8001C2EFAD71DD03550010D5F0EF324F66EA7
:101EB800FE0EF420F76EF86A000EF8220800F550BE
:101EC800310AD8B4C7D7030AD8B4C8D7010AD8B4D6
:101ED800C9D7070AD8B4CAD7010AD8B4CBD7CFD73D
:101EE80009EC00F020EC15F001500210D8A428D01D
:101EF80026EC16F0800EAAEC17F0410E1B6EEE0EC3
:101F0800E82EFED71B2EFCD700D0800E0D6EFF0EDC
:101F18000E6E53EC12F01A0E1C6E5E0E1B6E6E0ED9
:101F2800E82EFED71B2EFCD71C2EFAD700D0000EA9
:101F38005D6E020E5C6E000E696E000E686E54D007
:101F4800FF0E1B6EFF0E1C6E5AC01DF05BC01EF00C
:101F58001B501D261C501E221D50585C5950800ACB
:101F68001F6E1E50800A1F58D8A012D0D89058341F
:101F7800D96E5934DA6E200ED926010EDA2268C0DD
:101F8800DEFF69C0DDFF000E5D6E030E5C6E2CD0B7
:101F980020EC15F001040210D8A426D0000E5D6EC6
:101FA800010E5C6E26EC16F0A50E0D6EFF0E0E6E81
:101FB80053EC12F0330E1C6EBB0E1B6EE00EE82EB7
:101FC800FED71B2EFCD71C2EFAD7D8905834D96EC2
:101FD8005934DA6E200ED926010EDA2268C0DEFFE7
:101FE80069C0DDFF584A592A000E576E000E566E1A
:101FF800000E556E000E546E000E536E000E526E9B
:10200800000E516E000E506E000E0001D46F000ECF
:10201800D36FF09031C06FF030C06EF02FC06DF00C
:102028002EC06CF02DC0F5FF2CC0F8FF2BC0F7FFB9
:102038002AC0F6FF29C0F4FF28C0F3FF27C0DAFF43
:1020480026C0D9FF25C0E2FF24C0E1FF23C0EAFF74
:1020580022C0E9FF21C0FBFF20C0FAFF6C921100EB
:102068001CD1000E0001B36F010EB26F000EB76FE6
:10207800010EB66F000EBB6F010EBA6F000EBF6F78
:10208800010EBE6F000E376E010E366E000E396EF1
:10209800030E386E000E3B6E050E3A6E000E3D6E56
:1020A800070E3C6E1200000E0001B16F010EB06FFA
:1020B800000EB36F010EB26F000EB76F010EB66F50
:1020C800000EB96F010EB86F000EBD6F010EBC6F28
:1020D800000E376E000E366E000E396E010E386E29
:1020E800000E3B6E030E3A6E000E3D6E040E3C6E03
:1020F800000E3F6E060E3E6E1200000E0001B16F1C
:10210800010EB06F000EB36F010EB26F000EB56F07
:10211800010EB46F000EB96F010EB86F000EBB6FE1
:10212800010EBA6F000EBD6F010EBC6F000E376E48
:10213800000E366E000E396E010E386E000E3B6EC4
:10214800020E3A6E000E3D6E040E3C6E000E3F6E9F
:10215800050E3E6E000E416E060E406E1200000E19
:102168000001B16F010EB06F000EB36F010EB26FB8
:10217800000EB56F010EB46F000EB76F010EB66F8B
:10218800000EB96F010EB86F000EBB6F010EBA6F6B
:10219800000EBD6F010EBC6F000E376E000E366E5E
:1021A800000E396E010E386E000E3B6E020E3A6E4E
:1021B800000E3D6E030E3C6E000E3F6E040E3E6E2A
:1021C800000E416E050E406E000E436E060E426E06
:1021D8001200000E0001B16F010EB06F000EB36F58
:1021E800010EB26F000EB56F010EB46F000EB76F1F
:1021F800010EB66F000EB96F010EB86F000EBB6FFF
:10220800010EBA6F000EBD6F010EBC6F000EBF6FDE
:10221800010EBE6F000E376E000E366E000E396E60
:10222800010E386E000E3B6E020E3A6E000E3D6EC9
:10223800030E3C6E000E3F6E040E3E6E000E416EA5
:10224800050E406E000E436E060E426E000E456E81
:10225800070E446E1200000E0001B16F000EB06F41
:10226800000EB36F000EB26F000EB56F000EB46FA4
:10227800000EB76F000EB66F000EB96F000EB86F84
:10228800000EBB6F000EBA6F000EBD6F000EBC6F64
:10229800000EBF6F000EBE6F120001C003F002C037
:1022A80004F00450000AD8A4D6D70350040AD8B4BE
:1022B800D8D6010AD8B4F7D6030AD8B41ED7010A6B
:1022C800D8B44DD70F0AD8B484D7C5D7F50E0101B5
:1022D800826F000E836FD3D0250E8819D8B404D02E
:1022E800885188EC17F0CBD0000E0101806F40D0E8
:1022F80082C1D9FF83C1DAFFDECF84F1DDCF85F15A
:10230800020E8227000E832384518511D8A41BD086
:10231800910E846FFF0E856F16D084C1F6FF85C1BC
:10232800F7FF000EF86E0F0EF76403D00800F550A3
:1023380005D0F6CFE9FFF7CFEAFFEF5088EC17F0AA
:102348000101844B852B84C1F6FF85C1F7FF000E80
:10235800F86E0F0EF76403D00800F55005D0F6CFDD
:10236800E9FFF7CFEAFFEF500009D8B488D0D5D7F6
:10237800F3C0F6FFF4C0F7FF0001F34BF42BF86A43
:102388000800F5CF88F101018851000AD8B412007D
:10239800640AD8B407D00D0AD8B404D01A0AD8B43D
:1023A800A7D76DD082C1D9FF83C1DAFFDECF86F10E
:1023B800DDCF87F1020E01018227000E832387AF4C
:1023C80006D0030E8013866D871FD8B0872B010EA9
:1023D800886F050E8819D8B415D08851020D700E73
:1023E800F324F66EFE0EF420F76EF86A000EF8225B
:1023F8000900F550865D0900F5508759D8A002D02C
:10240800882BE7D780C1FDF0030E0001FD17D8B473
:1024180003D02D0E88EC17F088C181F12BD0010173
:102428008151020D700EF324F66EFE0EF420F76E45
:10243800F86A000EF8220900F5CFE9F00A00F5CF96
:10244800EAF086C1E7F087C1E8F084EC15F0E7C050
:10245800EEF0E8C0EFF0000E0001F16F0A0EF06F29
:10246800DDEC16F00001EE51300F0101886F885144
:1024780088EC17F0010181078129D8A4D0D7F3C0CF
:10248800F6FFF4C0F7FF0001F34BF42BF86A0800DD
:10249800F5CF88F101018851D8B412001DD70F0E6D
:1024A800146E000E156EC8D0250E1A18D8B404D0B4
:1024B8001A50A0EC17F0C0D0000E126E3FD014C016
:1024C800D9FF15C0DAFFDECF16F0DDCF17F0020E08
:1024D8001426000E152216501710D8A41AD0910EE3
:1024E800166EFF0E176E15D016C0F6FF17C0F7FF51
:1024F800000EF86E0F0EF76403D00800F55005D0F3
:10250800F6CFE9FFF7CFEAFFEF50A0EC17F0164A35
:10251800172A16C0F6FF17C0F7FF000EF86E0F0E49
:10252800F76403D00800F55005D0F6CFE9FFF7CFE0
:10253800EAFFEF500009D8B47FD0D6D70DC0F6FF18
:102548000EC0F7FF0D4A0E2AF86A0800F5CF1AF0F8
:102558001A50000AD8B41200640AD8B407D00D0A79
:10256800D8B404D01A0AD8B4AAD766D014C0D9FFF0
:1025780015C0DAFFDECF18F0DDCF19F0020E1426F1
:10258800000E152219AE06D0030E1212186C191E71
:10259800D8B0192A010E1A6E050E1A18D8B415D01B
:1025A8001A50020D700EF324F66EFE0EF420F76E2C
:1025B800F86A000EF8220900F550185C0900F55079
:1025C8001958D8A002D01A2AE7D712C011F0030E62
:1025D8001116D8B403D02D0EA0EC17F01AC013F0C2
:1025E80027D01350020D700EF324F66EFE0EF42061
:1025F800F76EF86A000EF8220900F5CF03F00A001A
:10260800F5CF04F018C001F019C002F0D7EC15F0AE
:1026180001C008F002C009F0000E0B6E0A0E0A6E27
:10262800FFEC16F00850300F1A6E1A50A0EC17F095
:1026380013061328D8A4D5D70DC0F6FF0EC0F7FF90
:102648000D4A0E2AF86A0800F5CF1AF01A50D8B4C5
:1026580012002AD7000E6B6E000E6A6E000E476ECF
:10266800000E466E000E5D6E000E5C6E000E5B6E18
:10267800000E5A6E000E596E000E586E000E0001C4
:10268800D66F000ED56F000E696E000E686E000ED4
:10269800D46F000ED36F000E576E000E566E000EEC
:1026A800556E000E546E000E536E000E526E000EE4
:1026B800516E000E506E000E4F6E000E4E6E000EE4
:1026C8004D6E000E4C6E000E4B6E000E4A6E000EE4
:1026D800496E000E486E000E5F6E000E5E6E5F5013
:1026E80055E1080E5E5CD8B01200D8905E34D96E01
:1026F8005F34DA6EB00ED926000EDA22000EDE6ED6
:10270800000EDD6ED8905E34D96E5F34DA6E360E08
:10271800D926000EDA22000EDE6E000EDD6ED8908D
:102728005E34D96E5F34DA6EA00ED926000EDA2236
:10273800000EDE6E000EDD6ED8905E34D96E5F340A
:10274800DA6E900ED926000EDA22000EDE6E000E2A
:10275800DD6ED8905E34D96E5F34DA6E000ED926FD
:10276800010EDA22000EDE6E000EDD6ED8905E34A9
:10277800D96E5F34DA6E800ED926000EDA22000E8A
:10278800DE6E000EDD6E5E4A5F2AA9D71200000ECB
:102798000001F66F000EF56FF6BF06D0F65146E160
:1027A800080EF55DD8B01200F5C0E7F0F6C0E8F005
:1027B800000EEA6F050EE96F41EC17F0300E0001CC
:1027C800E725ED6F010EE821EE6FF5C0E7F0F6C0E2
:1027D800E8F0000EEA6F050EE96F41EC17F0580EAD
:1027E8000001E725EF6F010EE821F06F000EF26F90
:1027F800050EF16F53EC15F0D8900001F535D96E40
:10280800F635DA6E200ED926010EDA22D890F53583
:10281800E16EF635E26E100EE126010EE222DECF01
:10282800E6FFDDCFE5FFF54BF62BB6D7120035D026
:1028380007C0D9FF08C0DAFFDF50D8B410D007C0EE
:10284800D9FF08C0DAFFDF500D6E09C0F6FF0AC0D5
:10285800F7FFF86A0800F5500D18D8B41AD009C067
:10286800F6FF0AC0F7FFF86A0800F5500D6E0E6A09
:102878000D1E0E1E0D4A0E2A07C0D9FF08C0DAFF2A
:10288800DF500F6E0F500D24076E000E0E20086EDD
:102898001200074A082A094A0A2A0B06D8A00C0679
:1028A8000B28C6E10C28D8A4C3D7000E086E000E6A
:1028B800076E12000001E86F0001E851F00BE76FA6
:1028C8008C500F0B8C6EE7518C108C6E000EF2BE84
:1028D800010E626EF29E8C86530EE82EFED700F033
:1028E8008C96C80E00D0E82EFDD762B002D0F29EBA
:1028F80001D0F28E0001E839F00BE86FE851F00BD7
:10290800E76F8C500F0B8C6EE7518C108C6E000E9D
:10291800F2BE010E626EF29E8C86530EE82EFED732
:1029280000F08C96C80E00D0E82EFDD762B002D019
:10293800F29E01D0F28E12004CEC16F00B0E000144
:10294800ED6F260EEC6F5D0EE82EFED7EC2FFCD750
:10295800ED2FFAD700D096EC16F00B0E0001ED6FB4
:10296800260EEC6F5D0EE82EFED7EC2FFCD7ED2F70
:10297800FAD700D09288000E80B8010E0001EE6FE1
:10298800EE51010D7A0EF324F66EFE0EF420F76E6A
:10299800F86A000EF8220800F550310AD8A409D0C8
:1029A800000E6B6E010E6A6E000EEB6F010EEA6F81
:1029B8001200000EEB6F000EFAD7026E0250F00BF9
:1029C800016E8C500F0B8C6E01508C108C6E000EAB
:1029D800F2BE010E626EF29E8C86530EE82EFED772
:1029E80000F08C96C80E00D0E82EFDD762B002D059
:1029F800F29E01D0F28E0238F00B026E0250F00BFC
:102A0800016E8C500F0B8C6E01508C108C6E000E6A
:102A1800F2BE010E626EF29E8C86530EE82EFED731
:102A280000F08C96C80E00D0E82EFDD762B002D018
:102A3800F29E01D0F28E120057BE06D0575025E103
:102A4800030E565CD8B021D055BE06D055501DE1B6
:102A5800040E545CD8B019D053BE06D0535015E1BB
:102A6800030E525CD8B011D051BE06D051500DE1C2
:102A7800050E505CD8B009D00001D4BF0BD0D4519A
:102A880004E1050ED35DD8A005D0000E026E000E3D
:102A9800016E1200000E026E010E016E1200EDC0F2
:102AA800F3F0EEC0F4F015D00001F107D8A0F2075A
:102AB800EFC0D9FFF0C0DAFFEF4BF02BF3C0E1FF16
:102AC800F4C0E2FFF34BF42BDFCFE7FFE750D8B4B5
:102AD8000ED00001F151F211D8B409D0E5D7F3C0F6
:102AE800D9FFF4C0DAFF000EDF6EF34BF42BF107C9
:102AF800D8A0F207F129F3E1F229D8B41200EFD7F0
:102B0800000E0001ED6F000EEC6FE951EA11D8B428
:102B18001CD0010EEB6F04D0D890E937EA37EB2BC5
:102B2800EAAFFAD7D890EC37ED37E951E75DEA51CB
:102B3800E859D8A005D0E951E75FEA51E85BEC8194
:102B4800D890EA33E933EB2FEDD7ECC0E7F0EDC0CE
:102B5800E8F01200680EF66E2F0EF76E000EF86E93
:102B68000900F5CF6AF00900F5CF6BF002EE00F02E
:102B7800C80EEE6AE806FDE101EE00F0800EEE6A8E
:102B8800E806FDE100EE80F0670EEE6AE806FDE17A
:102B980000EE36F0340EEE6AE806FDE16C906C92B9
:102BA800000134EF07F0000E066E000E056E0350AC
:102BB8000410D8B41CD0010E076E04D0D890033688
:102BC8000436072A04AEFAD7D890053606360350DD
:102BD800015C04500258D8A005D00350015E04508F
:102BE800025A0580D89004320332072EEDD705C06B
:102BF80001F006C002F01200C30E0001EA6FCD0E0C
:102C0800E82EFED7EA2FFCD7330E94EC17F0320EDD
:102C180094EC17F0280E94EC17F00F0E94EC17F0C4
:102C2800060E94EC17F0010E94EC17F0C30E000199
:102C3800EA6FCD0EE82EFED7EA2FFCD70F0E94ECE4
:102C480017F01200C30E046ECD0EE82EFED7042E28
:102C5800FCD700F0330EAAEC17F0320EAAEC17F0EE
:102C6800280EAAEC17F00F0EAAEC17F0060EAAEC25
:102C780017F0010EAAEC17F0C30E046ECD0EE82E65
:102C8800FED7042EFCD700F00F0EAAEC17F01200A6
:102C9800000E0001E96F000EE86FE9511DE1320EE8
:102CA800E85DD8B012008C8295921D0E0001E76F86
:102CB800910EE82EFED7E72FFCD78C929592E80E5E
:102CC8000001E76F290EE82EFED7E72FFCD700D0CA
:102CD8000001E84BE92BE1D7120004D0014A022A8F
:102CE800034A042A01C0D9FF02C0DAFFDF50056E8B
:102CF80003C0F6FF04C0F7FFF86A0800F5500008A3
:102D08000524066E0650D8A407D001C0D9FF02C01A
:102D1800DAFFDF50D8A4E2D70650016E026A01BE7E
:102D280002061200000E5F6E000E5E6E5F501DE11F
:102D3800320E5E5CD8B012008C8295920B0E0001A8
:102D4800E76F620EE82EFED7E72FFCD700F08C92D3
:102D58009592FA0E0001E76F580EE82EFED7E72F7E
:102D6800FCD700F05E4A5F2AE1D7120007C00BF0DB
:102D780008C00CF004D00B4A0C2A094A0A2A09C0D8
:102D8800F6FF0AC0F7FF000EF86E0BC0D9FF0CC0A3
:102D9800DAFF0F0EF76403D00800F55005D0F6CF20
:102DA800E9FFF7CFEAFFEF50DF6EDF50D8B412002B
:102DB800E2D70001F051F111D8B418D0010EF26F2A
:102DC80004D0D890F037F137F22BF1AFFAD7F051A1
:102DD800EE5DF151EF59D8A004D0F051EE5FF151FA
:102DE800EF5BD890F133F033F22FF1D7EEC0EEF06D
:102DF800EFC0EFF012000A500B10D8B418D0010E33
:102E08000C6E04D0D8900A360B360C2A0BAEFAD7C3
:102E18000A50085C0B500958D8A004D00A50085E24
:102E28000B50095AD8900B320A320C2EF1D708C031
:102E380008F009C009F0120001C005F002C006F050
:102E480002D0054A062A05C0D9FF06C0DAFFDF50BE
:102E5800D8B405D0F6D7054A062A034A042A03C07F
:102E6800D9FF04C0DAFF05C0E1FF06C0E2FFDFCFEB
:102E7800E7FFE750D8B41200EED70001E751E903A5
:102E8800F3CFEBF0F4CFECF0E751EA03F350EC2783
:102E9800E851E903F350EC27EBC0E7F0ECC0E8F0A9
:102EA800120001500302F3CF05F0F4CF06F00150F1
:102EB8000402F350062602500302F350062605C00A
:102EC80001F006C002F012008B9094900B0E0001E6
:102ED800E86F260EE76F5D0EE82EFED7E72FFCD7CA
:102EE800E82FFAD700D012008B8094900B0E0001C7
:102EF800E86F260EE76F5D0EE82EFED7E72FFCD7AA
:102F0800E82FFAD700D012000001E96F8C84000185
:102F1800E9515EEC14F0C80E00D0E82EFDD712007F
:102F28000001E96F8C940001E9515EEC14F0C80EC1
:102F380000D0E82EFDD71200036E8C840350E1EC1C
:102F480014F0C80E00D0E82EFDD71200036E8C9442
:102F58000350E1EC14F0C80E00D0E82EFDD71200A3
:022F6800010066
:10FE5E00003132334134353642373839432A302374
:10FE6E00440001000A006400E8031027303100004E
:10FE7E00010210022842000000004E000000005354
:10FE8E00000000005700000000424E0000004253E8
:10FE9E00000000425700000042424E000042425312
:10FEAE0000004242570000424E5700004253570096
:10FEBE00004257570000424E5757004253575700C3
:10FECE00424253570042424E5700424E4E57004256
:10FEDE004E4E4E004257575700423A256420533A31
:10FEEE002564204E3A256420573A256400313A2085
:10FEFE006F7065726174696F6E2074696D650061F3
:10FF0E007373656D626C7920737465703A25640045
:10FF1E0057726F6E67206E756D626572212000617B
:10FF2E007373656D626C7920737465703A006661E7
:10FF3E007374656E6572207365743A00796F7527F8
:10FF4E00726520646F6E650057726F6E6720696E02
:10FF5E007075740077726F6E67207365742100720E
:10FF6E00656D61696E3A256400636F7272656374C4
:10FF7E002100544F4F204D414E59006E756D6265F4
:10FF8E00723A00286E756C6C290077726F6E67215D
:10FF9E0000446F6E6521006F6B61792100424E4EF9
:10FFAE004E0042424E5700424E4E57004242535769
:10FFBE0000424E575700425357570042575757006B
:10FFCE00737465700042424E0042425300424257E3
:10FFDE00004257570020423A00204E3A0020573A2E
:10FFEE0000533A002053002573002C0042004300BA
:01FFFE000002
:020000040020DA
:08000000FFFFFFFFFFFFFFFF00
:020000040030CA
:0E000000FF061F1EFF8381FF0F400FE00F4021
:00000001FF
