:040000008DEF08F088
:101000000048656C6C6F20576F726C6421203A2920
:101010000000026E0250F00B016E8C500F0B8C6EB4
:1010200001508C108C6E8C96100EE82EFED700D0DE
:101030008C86420EE82EFED700D00238F00B026EEE
:101040000250F00B016E8C500F0B8C6E01508C1007
:101050008C6E8C96100EE82EFED700D08C86420E39
:10106000E82EFED700D01200270E046EF50EE82EF3
:10107000FED7042EFCD700F0330E83EC08F0320EBE
:1010800083EC08F0280E83EC08F00F0E83EC08F0D8
:10109000060E83EC08F0010E83EC08F0270E046EB8
:1010A000F50EE82EFED7042EFCD700F01200060E37
:1010B000066E000E076E03D0085079EC08F004C0ED
:1010C000F6FF05C0F7FF044A052A0800F5CF08F02F
:1010D0000850D8B41200F0D7F20ED36E000E956E01
:1010E00034EC08F0010E046E100E056E57EC08F09B
:1010F000FFD7036E8C84035009EC08F0420EE82EF3
:10110000FED700D01200036E8C94035009EC08F057
:10111000420EE82EFED700D01200000EF86E100E20
:08112000F76E00016CEF08F00E
:020000040020DA
:08000000FFFFFFFFFFFFFFFF00
:020000040030CA
:0E000000FF481F1EFF8381FF0FC00FE00F405F
:00000001FF
