:0400000007EF00F016
:100008007F8209ED00F0DFEF1CF00600FACF30F038
:10001800FBCF31F0E9CF32F0EACF33F0E1CF34F063
:10002800E2CF35F0D9CF36F0DACF37F0F3CF38F06A
:10003800F4CF39F0F6CF3AF0F7CF3BF0F8CF3CF0F9
:10004800F5CF3DF07FC03EF080C03FF081C040F06A
:1000580082C041F0F0A003EF07F081380F0B0F0BBF
:10006800446E4450010DCD0EF324F66EFC0EF420C0
:10007800F76EF86A000EF8220800F5CF45F0000187
:10008800B551B611D8A49DD0310E4518D8A48BD03F
:100098004FEC21F0000E0001BC6F000EBB6FBC518D
:1000A80001E17BD001EF07F0A00E0E6E860E0F6EF9
:1000B800010E106E000E116EA8EC20F023EC23F058
:1000C800000E036ED00E026E0EEC23F0000E036ECF
:1000D800000E026E0EEC23F01FEC23F023EC23F04D
:1000E800000E036ED10E026E0EEC23F0000E6B6E46
:1000F800050E6B6401D00ED06B50010D900EF324E9
:10010800D96E000EF420DA6E000E88EC22F0DF6E55
:100118006B2AEED7010E88EC22F00001966F1FECD7
:1001280023F0800EF0EC22F0340E2B6EF20EE82E47
:10013800FED72B2EFCD7DE0E0D6EFE0E0E6E96C071
:100148000FF0106A95C011F0126A94C013F0146A87
:10015800E7EC16F0C00EF0EC22F0ED0E0D6EFE0E80
:100168000E6E92C00FF0106A91C011F0126A90C022
:1001780013F0146AE7EC16F0090E2C6E1E0E2B6EA7
:10018800E40EE82EFED72B2EFCD72C2EFAD700D063
:100198000001BB4BBC2BBC5112E1030EBB5DD8A0C8
:1001A80083D701EF07F0320E4518D8A40AD0000E05
:1001B800B66F010EB56F000EB86F010E51D201EF88
:1001C80007F068046910D8A44DD2310E4518D8A498
:1001D8008AD04FEC21F0000E0001BC6F000EBB6FFF
:1001E800BC5101E17AD001EF07F0A00E0E6E860E29
:1001F8000F6E010E106E000E116EA8EC20F023ECAD
:1002080023F0000E036ED00E026E0EEC23F0000EEB
:10021800036E000E026E0EEC23F01FEC23F023ECAD
:1002280023F0000E036ED10E026E0EEC23F0000ECA
:100238006B6E050E6B6401D00ED06B50010D900EE5
:10024800F324D96E000EF420DA6E000E88EC22F04A
:10025800DF6E6B2AEED7010E88EC22F00001966F54
:100268001FEC23F0800EF0EC22F0340E2B6EF20E11
:10027800E82EFED72B2EFCD7DE0E0D6EFE0E0E6E70
:1002880096C00FF0106A95C011F0126A94C013F06E
:10029800146AE7EC16F0C00EF0EC22F0ED0E0D6ECD
:1002A800FE0E0E6E92C00FF0106A91C011F0126A25
:1002B80090C013F0146AE7EC16F0190E2C6E5A0E63
:1002C8002B6EB20EE82EFED72B2EFCD72C2EFAD78B
:1002D8000001BB4BBC2BBC5104E1030EBB5DD8A095
:1002E80084D701EF07F0320E4518D8A499D06EC113
:1002F80001F06FC102F00E0E046E100E036E75EC65
:1003080022F001C02BF002C02CF06CC101F06DC1CD
:1003180002F0000E046E3C0E036E75EC22F00150E4
:100328002B2602502C2201016A512B24686F6B5135
:100338002C20696F66C101F067C102F00E0E046ED1
:10034800100E036E75EC22F001C02BF002C02CF0E9
:1003580064C101F065C102F0000E046E3C0E036E2C
:1003680075EC22F001502B2602502C22010162511B
:100378002B24606F63512C20616F68C12BF069C119
:100388002CF02B1E2C1E2B4A2C2A60512B24626E1B
:1003980061512C20636E4FEC21F0630E0D6EFE0E42
:1003A8000E6EE7EC16F0C00EF0EC22F0340E0D6E77
:1003B800FF0E0E6E62C001F063C002F0000E046E04
:1003C8003C0E036E4AEC1FF001C00FF002C010F0A3
:1003D80062C001F063C002F0000E046E3C0E036EB2
:1003E8000DEC20F001C011F002C012F0E7EC16F09D
:1003F800800EF0EC22F0340E2B6EF20EE82EFED7B3
:100408002B2EFCD7090E2C6E1E0E2B6EE40EE82E3A
:10041800FED72B2EFCD72C2EFAD700D001EF07F0F1
:10042800330E4518D8A410D14FEC21F0310E0D6EC3
:10043800FE0E0E6EAFC00FF0B0C010F0E7EC16F075
:10044800000E0001BC6F000EBB6FBC5169E1080EC5
:10045800BB5DD8B065D0800EF0EC22F0340E2B6E68
:10046800F20EE82EFED72B2EFCD7050E2C6E0F0EA3
:100478002B6EF10EE82EFED72B2EFCD72C2EFAD79A
:1004880000F0780E0D6EFD0E0E6EBBC00FF0BCC0F6
:1004980010F0D8900001BB35D96EBC35DA6E300E3D
:1004A800D926010EDA22DECF11F0DDCF12F0D89076
:1004B800BB35D96EBC35DA6E100ED926010EDA229C
:1004C800DECF13F0DDCF14F0D890BB35D96EBC3534
:1004D800DA6E200ED926010EDA22DECF15F0DDCF36
:1004E80016F0D890BB35D96EBC35DA6E000ED92619
:1004F800010EDA22DECF17F0DDCF18F0E7EC16F0A8
:10050800050E2C6E0F0E2B6EF10EE82EFED72B2E3D
:10051800FCD72C2EFAD700F00001BB4BBC2B95D78B
:10052800210E2C6E780E2B6E980EE82EFED72B2EF1
:10053800FCD72C2EFAD700D04FEC21F0B10E0D6E5F
:10054800FE0E0E6EA5C00FF0A6C010F0E7EC16F078
:10055800050E2C6E0F0E2B6EF10EE82EFED72B2EED
:10056800FCD72C2EFAD700F04FEC21F0180E0D6EA8
:10057800FF0E0E6EA3C00FF0A4C010F0E7EC16F04B
:10058800050E2C6E0F0E2B6EF10EE82EFED72B2EBD
:10059800FCD72C2EFAD700F04FEC21F00F0E0D6E81
:1005A800FE0E0E6EA1C00FF0A2C010F0E7EC16F020
:1005B8000D0E2C6E2D0E2B6ED80EE82EFED72B2E80
:1005C800FCD72C2EFAD74FEC21F0200E0D6EFE0E24
:1005D8000E6E9FC00FF0A0C010F0E7EC16F00D0EE5
:1005E8002C6E2D0E2B6ED80EE82EFED72B2EFCD798
:1005F8002C2EFAD74FEC21F0010EF0EC22F09C0ED5
:100608002B6ED70EE82EFED72B2EFCD700F04D0E02
:100618000D6EFF0E0E6EE7EC16F0050E2C6E0F0E2B
:100628002B6EF10EE82EFED72B2EFCD72C2EFAD7E8
:1006380000F0800EF0EC22F0340E2B6EF20EE82E55
:10064800FED72B2EFCD7D9D3340E4518D8A40AD000
:10065800000E0001B46F010EB36F000EB86F000EEC
:10066800B76FCBD30001B151B211D8A4CED0340E9C
:100678004518D8A41FD0000EB06F040EAF6FB1C0DC
:1006880088F1B2C089F1000EB26F010EB16FC00ED1
:10069800F0EC22F04450010DCD0EF324F66EFC0E62
:1006A800F420F76EF86A000EF8220800F550E6EC20
:1006B80022F0A4D0350E4518D8A420D0000E000191
:1006C800B06F050EAF6FB1C088F1B2C089F1000EEE
:1006D800B26F010EB16FC00EF0EC22F04450010D64
:1006E800CD0EF324F66EFC0EF420F76EF86A000EB9
:1006F800F8220800F550E6EC22F080D0360E4518B6
:10070800D8A420D0000E0001B06F060EAF6FB1C0A4
:1007180088F1B2C089F1000EB26F010EB16FC00E40
:10072800F0EC22F04450010DCD0EF324F66EFC0ED1
:10073800F420F76EF86A000EF8220800F550E6EC8F
:1007480022F05CD0370E4518D8A420D0000E000146
:10075800B06F070EAF6FB1C088F1B2C089F1000E5B
:10076800B26F010EB16FC00EF0EC22F04450010DD3
:10077800CD0EF324F66EFC0EF420F76EF86A000E28
:10078800F8220800F550E6EC22F038D0380E45186B
:10079800D8A420D0000E0001B06F080EAF6FB1C012
:1007A80088F1B2C089F1000EB26F010EB16FC00EB0
:1007B800F0EC22F04450010DCD0EF324F66EFC0E41
:1007C800F420F76EF86A000EF8220800F550E6ECFF
:1007D80022F014D04FEC21F0930E0D6EFE0E0E6E2B
:1007E800E7EC16F0290E2C6E960E2B6E7F0EE82E77
:1007F800FED72B2EFCD72C2EFAD700F0AFC001F075
:10080800B0C002F0F4EC18F0F8D20001B105B21152
:10081800D8A499D1410E4518D8A41CD0C00EF0EC2C
:1008280022F0420EE6EC22F0E40E076E010E086E8E
:10083800FC0E096EFF0E0A6E9AEC21F0C10E016ED5
:10084800000E026EE40E036E010E046E00EC22F040
:10085800604A612A420E4518D8A41CD0C00EF0EC9C
:1008680022F04E0EE6EC22F0E40E076E010E086E42
:10087800E90E096EFF0E0A6E9AEC21F0C10E016EA8
:10088800000E026EE40E036E010E046E00EC22F000
:10089800604A612A430E4518D8A41CD0C00EF0EC5B
:1008A80022F0530EE6EC22F0E40E076E010E086EFD
:1008B800ED0E096EFF0E0A6E9AEC21F0C10E016E64
:1008C800000E026EE40E036E010E046E00EC22F0C0
:1008D800604A612A440E4518D8A41CD0C00EF0EC1A
:1008E80022F0570EE6EC22F0E40E076E010E086EB9
:1008F800F10E096EFF0E0A6E9AEC21F0C10E016E20
:10090800000E026EE40E036E010E046E00EC22F07F
:10091800604A612A4450010DCD0EF324F66EFC0E98
:10092800F420F76EF86A000EF8220800F5502A0A3B
:10093800D8A4DED0040E2C6E400E2B6E260EE82EA8
:10094800FED72B2EFCD72C2EFAD700D0604A612A6E
:10095800000E436E000E426E43BE08D0435005E1C0
:10096800140E425CD8B08AD001D088D0C10E076E70
:10097800000E086E42C001F043C002F0000E046E83
:10098800050E036E75EC22F0000E0124096EFD0EB3
:1009980002200A6E000E0C6E040E0B6EC5EC1EF0E3
:1009A80007500810D8A463D05EC001F05FC002F001
:1009B800000E046E050E036E75EC22F0BC0E0124C9
:1009C800076E010E0220086EC10E096E000E0A6E37
:1009D8009AEC21F0700E076E000E086EC10E096EBB
:1009E800000E0A6E9AEC21F0000E01018D6F010EC7
:1009F8008C6F000E0001B26F020EB16F4FEC21F048
:100A0800850E0D6EFF0E0E6EE7EC16F0040E2C6EC2
:100A1800400E2B6E260EE82EFED72B2EFCD72C2E42
:100A2800FAD700D0F70E0D6EFF0E0E6EC10E0F6EC8
:100A3800000E106EE7EC16F0C10E076E000E086E81
:100A4800A10E096EFE0E0A6E9AEC21F0050E2C6EB0
:100A58000F0E2B6EF10EE82EFED72B2EFCD72C2E68
:100A6800FAD700F0000E616E000E606E07D0424AA1
:100A7800432A43BE7BD7435001E172D701018C055D
:100A88008D11D8B431D04FEC21F0700E0D6EFF0EE1
:100A98000E6EE7EC16F0F70E0D6EFF0E0E6EC10E21
:100AA8000F6E000E106EE7EC16F0C10E076E000E0A
:100AB800086EA10E096EFE0E0A6E9AEC21F0050E64
:100AC8002C6E0F0E2B6EF10EE82EFED72B2EFCD7B8
:100AD8002C2EFAD700F0000E616E000E606E000E2C
:100AE80001018D6F000E8C6F000E8D6F000E8C6FE4
:100AF80061BE83D1615004E1050E605CD8A07DD150
:100B08004FEC21F0B80E0D6EFF0E0E6EE7EC16F0EE
:100B1800050E2C6E0F0E2B6EF10EE82EFED72B2E27
:100B2800FCD72C2EFAD700F0C10E076E000E086E07
:100B3800A10E096EFE0E0A6E9AEC21F0000E616E8F
:100B4800000E606E5AD1020E0001B119B211D8A47C
:100B580025D1000E616E000E606EC00EF0EC22F022
:100B68004450010DCD0EF324F66EFC0EF420F76E02
:100B7800F86A000EF8220800F550E6EC22F0530E51
:100B88000D6EFE0E0E6EE7EC16F0150E2C6E4B0E6B
:100B98002B6EBE0EE82EFED72B2EFCD72C2EFAD7A6
:100BA80000D04450010DCD0EF324F66EFC0EF42057
:100BB800F76EF86A000EF8220800F550310AD8B42A
:100BC8005BD04450010DCD0EF324F66EFC0EF420DC
:100BD800F76EF86A000EF8220800F550320AD8B409
:100BE8004BD04450010DCD0EF324F66EFC0EF420CC
:100BF800F76EF86A000EF8220800F550330AD8B4E8
:100C08003BD04450010DCD0EF324F66EFC0EF420BB
:100C1800F76EF86A000EF8220800F550340AD8B4C6
:100C28002BD0BCD0000E766E010E0FD0000E766E63
:100C3800020E0BD0000E766E030E07D0000E766EF5
:100C4800040E03D0000E766E050E756E32D04FEC92
:100C580021F0590E0D6EFF0E0E6EE7EC16F0290E00
:100C68002C6E960E2B6E7F0EE82EFED72B2EFCD701
:100C78002C2EFAD700F01DD04450010DCD0EF324D0
:100C8800F66EFC0EF420F76EF86A000EF8220800E3
:100C9800F550310AD8B4C6D7030AD8B4C7D7010A61
:100CA800D8B4C8D7070AD8B4C9D7010AD8B4CAD79C
:100CB800CED7F4EC07F045EC20F001500210D8A490
:100CC80028D04FEC21F0800EF0EC22F0340E2B6E81
:100CD800F20EE82EFED72B2EFCD78E0E0D6EFF0ED1
:100CE8000E6EE7EC16F0150E2C6E4B0E2B6EBE0E2C
:100CF800E82EFED72B2EFCD72C2EFAD700D0000ECC
:100D08000001B26F020EB16F000E766E000E756EA6
:100D180045D0FF0E2B6EFF0E2C6EAFC02DF0B0C06D
:100D28002EF02B502D262C502E222D505E5C5F501D
:100D3800800A2F6E2E50800A2F58D8A013D0D89032
:100D48005E34D96E5F34DA6E500ED926010EDA227F
:100D580075C0DEFF76C0DDFF000E0001B26F030E26
:100D6800B16F1CD045EC20F001040210D8A416D0B5
:100D7800000E0001B26F010EB16F4FEC21F0D89058
:100D88005E34D96E5F34DA6E500ED926010EDA223F
:100D980075C0DEFF76C0DDFF5E4A5F2A030E0001E4
:100DA800B119B211D8A414D04450010DCD0EF324BA
:100DB800F66EFC0EF420F76EF86A000EF8220800B2
:100DC800F550230AD8A404D0000EB26F040EB16FF8
:100DD800000E5D6E000E5C6E000E5B6E000E5A6EAD
:100DE800000E596E000E586E000E576E000E566EAD
:100DF800000E01018B6F000E8A6FF090CBD0F2A02D
:100E0800B6D081AA03D02B6A2B2A01D02B6A2B508B
:100E18000101866F876B81AC03D02B6A2B2A01D026
:100E28002B6A2B500101846F856B81A803D02B6A34
:100E38002B2A01D02B6A2B500101826F836B81AE64
:100E480003D02B6A2B2A01D02B6A2B500101806F0B
:100E5800816B86058711D8A41AD0000E00019E6FF9
:100E6800000E9D6F4FEC21F0CF0E0D6EFE0E0E6E34
:100E7800E7EC16F0800EF0EC22F0340E2B6EF20E3A
:100E8800E82EFED72B2EFCD70001AD4BAE2B01016F
:100E980084058511D8A41AD0000E00019C6F000E9D
:100EA8009B6F4FEC21F0260E0D6EFF0E0E6EE7ECD9
:100EB80016F0800EF0EC22F0340E2B6EF20EE82EB7
:100EC800FED72B2EFCD70001A94BAA2B01018205C6
:100ED8008311D8A419D0000E00019A6F000E996FE3
:100EE800AB4BAC2B4FEC21F0A00E0D6EFD0E0E6E31
:100EF800E7EC16F0800EF0EC22F0340E2B6EF20EBA
:100F0800E82EFED72B2EFCD7010180058111D8A42D
:100F18001AD0000E0001986F000E976F4FEC21F069
:100F2800B30E0D6EFD0E0E6EE7EC16F0800EF0ECB3
:100F380022F0340E2B6EF20EE82EFED72B2EFCD7A5
:100F48000001A74BA82B4FEC21F0A70E0D6EFD0E4C
:100F58000E6EE7EC16F0800EF0EC22F0340E2B6EDD
:100F6800F20EE82EFED72B2EFCD7F29013D0F2BA51
:100F7800F2A410D06A2A120E6A6403D0010E00018E
:100F8800BD6F140E6A6405D0000E6A6E010E000172
:100F9800BE6FF29441C082F040C081F03FC080F043
:100FA8003EC07FF03DC0F5FF3CC0F8FF3BC0F7FFF7
:100FB8003AC0F6FF39C0F4FF38C0F3FF37C0DAFF94
:100FC80036C0D9FF35C0E2FF34C0E1FF33C0EAFFC5
:100FD80032C0E9FF31C0FBFF30C0FAFF7F92110039
:100FE800700E016E000E026EFC0E036EFF0E046E94
:100FF80075EC21F001500210D8A423D075C05CF024
:1010080076C05DF075C08AF176C08BF1D8905E34F9
:10101800D96E5F34DA6E460ED926000EDA22DECF9C
:1010280007F0DDCF08F0D89007360836300E0724D1
:10103800D96E010E0820DA6E5CC0DEFF5DC0DDFFF0
:101048001200700E016E000E026EE90E036EFF0EA6
:10105800046E75EC21F001500210D8A423D075C09D
:101068005AF076C05BF075C08AF176C08BF1D890E3
:101078005E34D96E5F34DA6E460ED926000EDA2257
:10108800DECF07F0DDCF08F0D89007360836100E0F
:101098000724D96E010E0820DA6E5AC0DEFF5BC045
:1010A800DDFF1200700E016E000E026EED0E036E73
:1010B800FF0E046E75EC21F001500210D8A423D065
:1010C80075C058F076C059F075C08AF176C08BF1BA
:1010D800D8905E34D96E5F34DA6E460ED926000E8B
:1010E800DA22DECF07F0DDCF08F0D89007360836D1
:1010F800200E0724D96E010E0820DA6E58C0DEFFD4
:1011080059C0DDFF1200700E016E000E026EF10E66
:10111800036EFF0E046E75EC21F001500210D8A486
:1011280023D075C056F076C057F075C08AF176C0E6
:101138008BF1D8905E34D96E5F34DA6E460ED926BC
:10114800000EDA22DECF07F0DDCF08F0D8900736A0
:101158000836000E0724D96E010E0820DA6E56C034
:10116800DEFF57C0DDFF1200700E016E000E026E2A
:10117800E80E036EFF0E046E75EC21F001500210AC
:10118800D8A443D075C05CF076C05DF075C05AF045
:1011980076C05BF0D890753401018A6F76348B6F16
:1011A800D8905E34D96E5F34DA6E460ED926000EBA
:1011B800DA22DECF07F0DDCF08F0D8900736083600
:1011C800300E0724D96E010E0820DA6E5CC0DEFFEF
:1011D8005DC0DDFFD8905E34D96E5F34DA6E460E9E
:1011E800D926000EDA22DECF07F0DDCF08F0D8903E
:1011F80007360836100E0724D96E010E0820DA6E5D
:101208005AC0DEFF5BC0DDFF1200700E016E000EDB
:10121800026EEC0E036EFF0E046E75EC21F00150A9
:101228000210D8A443D075C05CF076C05DF075C0DC
:1012380058F076C059F0D890753401018A6F763429
:101248008B6FD8905E34D96E5F34DA6E460ED9262D
:10125800000EDA22DECF07F0DDCF08F0D89007368F
:101268000836300E0724D96E010E0820DA6E5CC0ED
:10127800DEFF5DC0DDFFD8905E34D96E5F34DA6E74
:10128800460ED926000EDA22DECF07F0DDCF08F0B1
:10129800D89007360836200E0724D96E010E08208C
:1012A800DA6E58C0DEFF59C0DDFF1200700E016E05
:1012B800000E026EF00E036EFF0E046E75EC21F048
:1012C80001500210D8A443D075C05CF076C05DF020
:1012D80075C056F076C057F0D890753401018A6F02
:1012E80076348B6FD8905E34D96E5F34DA6E460EE2
:1012F800D926000EDA22DECF07F0DDCF08F0D8902D
:1013080007360836300E0724D96E010E0820DA6E2B
:101318005CC0DEFF5DC0DDFFD8905E34D96E5F34FF
:10132800DA6E460ED926000EDA22DECF07F0DDCFC0
:1013380008F0D89007360836000E0724D96E010E3B
:101348000820DA6E56C0DEFF57C0DDFF1200700EAF
:10135800016E000E026EE70E036EFF0E046E75EC52
:1013680021F001500210D8A44CD0D89075345C6E8E
:1013780076345D6E75C05AF076C05BF075C001F0CA
:1013880076C002F0000E046E030E036E75EC22F0B8
:1013980001C08AF102C08BF1D8905E34D96E5F34F7
:1013A800DA6E460ED926000EDA22DECF07F0DDCF40
:1013B80008F0D89007360836300E0724D96E010E8B
:1013C8000820DA6E5CC0DEFF5DC0DDFFD8905E34B9
:1013D800D96E5F34DA6E460ED926000EDA22DECFD9
:1013E80007F0DDCF08F0D89007360836100E07242E
:1013F800D96E010E0820DA6E5AC0DEFF5BC0DDFF31
:101408001200700E016E000E026EEB0E036EFF0EE0
:10141800046E75EC21F001500210D8A44CD0D8907D
:1014280075345C6E76345D6E75C058F076C059F0D0
:1014380075C001F076C002F0000E046E030E036E54
:1014480075EC22F001C08AF102C08BF1D8905E34AD
:10145800D96E5F34DA6E460ED926000EDA22DECF58
:1014680007F0DDCF08F0D89007360836300E07248D
:10147800D96E010E0820DA6E5CC0DEFF5DC0DDFFAC
:10148800D8905E34D96E5F34DA6E460ED926000ED7
:10149800DA22DECF07F0DDCF08F0D890073608361D
:1014A800200E0724D96E010E0820DA6E58C0DEFF20
:1014B80059C0DDFF1200700E016E000E026EEF0EB5
:1014C800036EFF0E046E75EC21F001500210D8A4D3
:1014D8004CD0D89075345C6E76345D6E75C056F01D
:1014E80076C057F075C001F076C002F0000E046EA9
:1014F800030E036E75EC22F001C08AF102C08BF175
:10150800D8905E34D96E5F34DA6E460ED926000E56
:10151800DA22DECF07F0DDCF08F0D890073608369C
:10152800300E0724D96E010E0820DA6E5CC0DEFF8B
:101538005DC0DDFFD8905E34D96E5F34DA6E460E3A
:10154800D926000EDA22DECF07F0DDCF08F0D890DA
:1015580007360836000E0724D96E010E0820DA6E09
:1015680056C0DEFF57C0DDFF1200700E016E000E80
:10157800026EC50E036EFF0E046E75EC21F001506D
:101588000210D8A469D075C05CF076C05DF075C053
:1015980056F076C057F075C05AF076C05BF075C04B
:1015A80001F076C002F0000E046E030E036E75ECB7
:1015B80022F001C08AF102C08BF1D8905E34D96E56
:1015C8005F34DA6E460ED926000EDA22DECF07F037
:1015D800DDCF08F0D89007360836300E0724D96ECC
:1015E800010E0820DA6E5CC0DEFF5DC0DDFFD8901A
:1015F8005E34D96E5F34DA6E460ED926000EDA22D2
:10160800DECF07F0DDCF08F0D89007360836000E99
:101618000724D96E010E0820DA6E56C0DEFF57C0C7
:10162800DDFFD8905E34D96E5F34DA6E460ED92667
:10163800000EDA22DECF07F0DDCF08F0D8900736AB
:101648000836100E0724D96E010E0820DA6E5AC02B
:10165800DEFF5BC0DDFF1200700E016E000E026E31
:10166800CF0E036EFF0E046E75EC21F001500210D0
:10167800D8A469D075C05CF076C05DF075C058F02C
:1016880076C059F075C056F076C057F075C001F0B5
:1016980076C002F0000E046E030E036E75EC22F0A5
:1016A80001C08AF102C08BF1D8905E34D96E5F34E4
:1016B800DA6E460ED926000EDA22DECF07F0DDCF2D
:1016C80008F0D89007360836300E0724D96E010E78
:1016D8000820DA6E5CC0DEFF5DC0DDFFD8905E34A6
:1016E800D96E5F34DA6E460ED926000EDA22DECFC6
:1016F80007F0DDCF08F0D89007360836200E07240B
:10170800D96E010E0820DA6E58C0DEFF59C0DDFF21
:10171800D8905E34D96E5F34DA6E460ED926000E44
:10172800DA22DECF07F0DDCF08F0D890073608368A
:10173800000E0724D96E010E0820DA6E56C0DEFFAF
:1017480057C0DDFF1200700E016E000E026EF30E20
:10175800036EFF0E046E75EC21F001500210D8A440
:101768004CD075C05CF076C05DF0D8907534566E7C
:101778007634576E75C001F076C002F0000E046E24
:10178800030E036E75EC22F001C08AF102C08BF1E2
:10179800D8905E34D96E5F34DA6E460ED926000EC4
:1017A800DA22DECF07F0DDCF08F0D890073608360A
:1017B800300E0724D96E010E0820DA6E5CC0DEFFF9
:1017C8005DC0DDFFD8905E34D96E5F34DA6E460EA8
:1017D800D926000EDA22DECF07F0DDCF08F0D89048
:1017E80007360836000E0724D96E010E0820DA6E77
:1017F80056C0DEFF57C0DDFF1200700E016E000EEE
:10180800026ED30E036EFF0E046E75EC21F00150CC
:101818000210D8A46AD075C05CF076C05DF075C0BF
:101828005AF076C05BF0D8907534566E7634576EA1
:1018380075C007F076C008F0D89007360836D890FB
:101848000736083607C08AF108C08BF1D8905E3495
:10185800D96E5F34DA6E460ED926000EDA22DECF54
:1018680007F0DDCF08F0D89007360836300E072489
:10187800D96E010E0820DA6E5CC0DEFF5DC0DDFFA8
:10188800D8905E34D96E5F34DA6E460ED926000ED3
:10189800DA22DECF07F0DDCF08F0D8900736083619
:1018A800100E0724D96E010E0820DA6E5AC0DEFF2A
:1018B8005BC0DDFFD8905E34D96E5F34DA6E460EB9
:1018C800D926000EDA22DECF07F0DDCF08F0D89057
:1018D80007360836000E0724D96E010E0820DA6E86
:1018E80056C0DEFF57C0DDFF1200700E016E000EFD
:1018F800026ED80E036EFF0E046E75EC21F00150D7
:101908000210D8A46AD075C05CF076C05DF075C0CE
:1019180058F076C059F0D8907534566E7634576EB4
:1019280075C007F076C008F0D89007360836D8900A
:101938000736083607C08AF108C08BF1D8905E34A4
:10194800D96E5F34DA6E460ED926000EDA22DECF63
:1019580007F0DDCF08F0D89007360836300E072498
:10196800D96E010E0820DA6E5CC0DEFF5DC0DDFFB7
:10197800D8905E34D96E5F34DA6E460ED926000EE2
:10198800DA22DECF07F0DDCF08F0D8900736083628
:10199800200E0724D96E010E0820DA6E58C0DEFF2B
:1019A80059C0DDFFD8905E34D96E5F34DA6E460ECA
:1019B800D926000EDA22DECF07F0DDCF08F0D89066
:1019C80007360836000E0724D96E010E0820DA6E95
:1019D80056C0DEFF57C0DDFF1200700E016E000E0C
:1019E800026ECE0E036EFF0E046E75EC21F00150F0
:1019F8000210D8A46AD0D89075345C6E76345D6EC7
:101A080075C058F076C059F075C056F076C057F0DA
:101A180075C007F076C008F0D89007360836D89019
:101A28000736083607C08AF108C08BF1D8905E34B3
:101A3800D96E5F34DA6E460ED926000EDA22DECF72
:101A480007F0DDCF08F0D89007360836300E0724A7
:101A5800D96E010E0820DA6E5CC0DEFF5DC0DDFFC6
:101A6800D8905E34D96E5F34DA6E460ED926000EF1
:101A7800DA22DECF07F0DDCF08F0D8900736083637
:101A8800200E0724D96E010E0820DA6E58C0DEFF3A
:101A980059C0DDFFD8905E34D96E5F34DA6E460ED9
:101AA800D926000EDA22DECF07F0DDCF08F0D89075
:101AB80007360836000E0724D96E010E0820DA6EA4
:101AC80056C0DEFF57C0DDFF1200700E016E000E1B
:101AD800026EC40E036EFF0E046E75EC21F0015009
:101AE8000210D8A46AD0D89075345C6E76345D6ED6
:101AF80075C05AF076C05BF075C056F076C057F0E6
:101B080075C007F076C008F0D89007360836D89028
:101B18000736083607C08AF108C08BF1D8905E34C2
:101B2800D96E5F34DA6E460ED926000EDA22DECF81
:101B380007F0DDCF08F0D89007360836300E0724B6
:101B4800D96E010E0820DA6E5CC0DEFF5DC0DDFFD5
:101B5800D8905E34D96E5F34DA6E460ED926000E00
:101B6800DA22DECF07F0DDCF08F0D8900736083646
:101B7800100E0724D96E010E0820DA6E5AC0DEFF57
:101B88005BC0DDFFD8905E34D96E5F34DA6E460EE6
:101B9800D926000EDA22DECF07F0DDCF08F0D89084
:101BA80007360836000E0724D96E010E0820DA6EB3
:101BB80056C0DEFF57C0DDFF1200700E016E000E2A
:101BC800026EC90E036EFF0E046E75EC21F0015013
:101BD8000210D8A46AD075C05CF076C05DF0D890C9
:101BE80075345A6E76345B6E75C056F076C057F011
:101BF80075C007F076C008F0D89007360836D89038
:101C08000736083607C08AF108C08BF1D8905E34D1
:101C1800D96E5F34DA6E460ED926000EDA22DECF90
:101C280007F0DDCF08F0D89007360836300E0724C5
:101C3800D96E010E0820DA6E5CC0DEFF5DC0DDFFE4
:101C4800D8905E34D96E5F34DA6E460ED926000E0F
:101C5800DA22DECF07F0DDCF08F0D8900736083655
:101C6800100E0724D96E010E0820DA6E5AC0DEFF66
:101C78005BC0DDFFD8905E34D96E5F34DA6E460EF5
:101C8800D926000EDA22DECF07F0DDCF08F0D89093
:101C980007360836000E0724D96E010E0820DA6EC2
:101CA80056C0DEFF57C0DDFF1200700E016E000E39
:101CB800026EBF0E036EFF0E046E75EC21F001502C
:101CC8000210D8A455D075C05CF076C05DF075C020
:101CD80001F076C002F0000E046E030E036E75EC80
:101CE80022F001C05AF002C05BF075C007F076C060
:101CF80008F0D89007360836D8900736083607C057
:101D08008AF108C08BF1D8905E34D96E5F34DA6EF0
:101D1800460ED926000EDA22DECF07F0DDCF08F016
:101D2800D89007360836300E0724D96E010E0820E1
:101D3800DA6E5CC0DEFF5DC0DDFFD8905E34D96E20
:101D48005F34DA6E460ED926000EDA22DECF07F0AF
:101D5800DDCF08F0D89007360836100E0724D96E64
:101D6800010E0820DA6E5AC0DEFF5BC0DDFF1200EC
:101D7800700E016E000E026EDD0E036EFF0E046E15
:101D880075EC21F001500210D8A4120075C05CF067
:101D980076C05DF075C001F076C002F0000E046EEA
:101DA800030E036E75EC22F001C056F002C057F026
:101DB80075C007F076C008F0D89007360836D89076
:101DC8000736083607C08AF108C08BF1D8905E3410
:101DD800D96E5F34DA6E460ED926000EDA22DECFCF
:101DE80007F0DDCF08F0D89007360836300E072404
:101DF800D96E010E0820DA6E5CC0DEFF5DC0DDFF23
:101E0800D8905E34D96E5F34DA6E460ED926000E4D
:101E1800DA22DECF07F0DDCF08F0D8900736083693
:101E2800000E0724D96E010E0820DA6E56C0DEFFB8
:101E380057C0DDFF1200D38CD38AD388D3829B8C02
:101E4800000E896E000E8A6E000E8B6E000E8C6E70
:101E5800000E8D6E92689368000E946E000E956E5B
:101E6800000E966E000EC26E0F0EC16EF086F28ED8
:101E780029EC21F00001B751B811D8A431D0730E64
:101E8800D46FFE0ED56FC3EC14F0C00EC6EC22F072
:101E98008C0E0001D46FFD0ED56FC3EC14F0050E47
:101EA8000001F66F0F0EF56FF10EE82EFED7F52F35
:101EB800FCD7F62FFAD7800EC6EC22F0340E0001BC
:101EC800F56FF10EE82EFED7F52FFCD700D00001F4
:101ED800B505B611D8A4D3D7000EB86F010EB76FE9
:101EE800B705B811D8A4DCD129EC21F00001B15113
:101EF800B211D8A422D0800EC6EC22F0340E000114
:101F0800F56FF10EE82EFED7F52FFCD700D0A20E04
:101F18000001D46FFE0ED56FC3EC14F0050E00015E
:101F2800F66F0F0EF56FF10EE82EFED7F52FFCD7E2
:101F3800F62FFAD7C00EC6EC22F00001B105B21197
:101F4800D8A423D029EC21F00A0E0001D46FFF0E8B
:101F5800D56FC3EC14F0C00EC6EC22F0F70E0001EA
:101F6800D46FFF0ED56FC10ED66F000ED76FC3ECBE
:101F780014F0050E0001F66F0F0EF56FF10EE82E46
:101F8800FED7F52FFCD7F62FFAD7020E0001B119AC
:101F9800B211D8A415D029EC21F0A90E0001D46FF4
:101FA800FF0ED56FC3EC14F0050E0001F66F0F0E8F
:101FB800F56FF10EE82EFED7F52FFCD7F62FFAD7DE
:101FC800030E0001B119B211D8A4A1D029EC21F057
:101FD800EC0E0001D46FFD0ED56FC3EC14F0050EA6
:101FE8000001F66F0F0EF56FF10EE82EFED7F52FF4
:101FF800FCD7F62FFAD729EC21F0310E0001D46F67
:10200800FE0ED56FAFC0D6F0B0C0D7F0C3EC14F059
:10201800090E0001F66F1E0EF56FE40EE82EFED7CE
:10202800F52FFCD7F62FFAD700F0000E0001BC6F91
:10203800000EBB6F66D029EC21F0E20E0001D46FD0
:10204800FF0ED56FC3EC14F0750E0001D46FFD0EB2
:10205800D56F010EBB25D66F000EBC21D76FC3EC20
:1020680014F0710E0001D46FFE0ED56FC3EC14F09E
:10207800BBC0CEF0BCC0CFF0000E0001D16F050E82
:10208800D06F4DEC22F0BC0E0001CE25F76F010E8B
:10209800CF21F86FF70ED46FFF0ED56FF7C0D6F0CB
:1020A800F8C0D7F0C3EC14F0FA0E0001D46FFF0E9D
:1020B800D56FC3EC14F0750E0001D46FFD0ED56F0B
:1020C800D890BB35D96EBC35DA6E500ED926010EC4
:1020D800DA22DECFD6F0DDCFD7F0C3EC14F0050E50
:1020E8000001F66F0F0EF56FF10EE82EFED7F52FF3
:1020F800FCD7F62FFAD7C00EC6EC22F00001BB4B76
:10210800BC2BAF51BB5DB051BC59D8A094D7040EBD
:10211800B119B211D8A4EAD629EC21F029EC21F0A2
:10212800FC0E0001D46FFE0ED56FC3EC14F021EC49
:1021380022F01BEC23F0000E0001C86FD00EC76F11
:1021480009EC23F0000E0001C86F000EC76F09EC00
:1021580023F017EC23F01BEC23F0000E0001C86FEE
:10216800D10EC76F09EC23F0000E0001BC6F000E02
:10217800BB6FBC5112E1060EBB5DD8B00ED0900EFD
:10218800BB25D96E000EBC21DA6E000E38EC22F0A9
:10219800DF6E0001BB4BBC2BECD7010E38EC22F0F4
:1021A8000001966F17EC23F092C0F5F00F0E0001B6
:1021B800F517000EC96F100EC86F92C0C6F0C76B36
:1021C8003FEC1EF0C6C0CEF0C7C0CFF0000E000135
:1021D800D16F0A0ED06F4DEC22F00001F551CE25DB
:1021E80001016E6F0001000ECF2101016F6F91C0D8
:1021F800F5F00F0E0001F517000EC96F100EC86F2D
:1022080091C0C6F0C76B3FEC1EF0C6C0CEF0C7C089
:10221800CFF0000E0001D16F0A0ED06F4DEC22F006
:102228000001F551CE2501016C6F0001000ECF2190
:1022380001016D6F90C0F5F00F0E0001F517000E4B
:10224800C96F100EC86F90C0C6F0C76B3FEC1EF088
:10225800C6C0CEF0C7C0CFF0000E0001D16F0A0E85
:10226800D06F4DEC22F00001F551CE2501016A6FC7
:102278000001000ECF2101016B6FD2EC22F0000E9D
:102288000001B86F020EB76F830ED46FFE0ED56FC4
:10229800C3EC14F0AFC0C6F0B0C0C7F02AEC1AF017
:1022A800020E0001B719B811D8A4E4D5F28E29ECB2
:1022B80021F0030E0001D46FFF0ED56FC3EC14F0AC
:1022C800050E0001F66F0F0EF56FF10EE82EFED722
:1022D800F52FFCD7F62FFAD721EC22F08B809490BB
:1022E800F096F28629EC21F0640E0001D46FFD0E01
:1022F800D56FADC0D6F0AEC0D7F0A9C0D8F0AAC08F
:10230800D9F0ABC0DAF0ACC0DBF0A7C0DCF0A8C0F5
:10231800DDF0C3EC14F0938A938E938C93880001BC
:10232800FE5161EC22F0310E0001BF6F10D01BECA2
:1023380023F0000E0001C86F110EC76F09EC23F0DF
:10234800010E38EC22F00001BF6F17EC23F0300EBD
:102358000001BF19D8A4EBD729EC21F0410E0001E8
:10236800D46FFF0ED56FC3EC14F0800EC6EC22F0CC
:10237800340E0001F56FF10EE82EFED7F52FFCD7CD
:1023880000D021EC22F0AFC0C6F0B0C0C7F02AECF4
:102398001AF0000E0001FA6F000EF96FACD029ECAC
:1023A80021F0C00E0001D46FFE0ED56FF9C0D6F033
:1023B800FAC0D7F0C3EC14F0D8900001F935D96E03
:1023C800FA35DA6E800ED926000EDA22DE04DE1027
:1023D800D8A45BD0000EAE6F000EAD6F000EAA6FD2
:1023E800000EA96F000EAC6F000EAB6F000EA86F49
:1023F800000EA76FBD05D8B40FD0D890F935D96EA7
:10240800FA35DA6E300ED926010EDA22DECFF0F078
:10241800DDCFF1F0CDEC1FF00001BD05D8B40FD031
:10242800D890F935D96EFA35DA6E100ED926010E24
:10243800DA22DECFF0F0DDCFF1F0B6EC1DF00001CE
:10244800BD05D8B40FD0D890F935D96EFA35DA6E03
:10245800200ED926010EDA22DECFF0F0DDCFF1F022
:1024680071EC1DF00001BD05D8B40FD0D890F93536
:10247800D96EFA35DA6E000ED926010EDA22DECFD1
:10248800F0F0DDCFF1F02CEC1DF0970E0001D46FC9
:10249800FF0ED56FF9C0D6F0FAC0D7F0C3EC14F030
:1024A8000001BD05D8B425D0FABF06D0FA5121E104
:1024B800070EF95DD8B01DD0FD5161EC22F015D0A2
:1024C8001BEC23F0000E0001C86F110EC76F09EC5A
:1024D80023F0010E38EC22F00001BF6F17EC23F057
:1024E800310E0001BF19D8B404D00001BD05D8A42D
:1024F800E7D7F94BFA2BBD05D8B408D0FABF4FD7A8
:10250800FA5104E1080EF95DD8A049D7FB5161ECF6
:1025180022F0660E0001F66F760EF56FC10EE82EFA
:10252800FED7F52FFCD7F62FFAD70001FC5161EC46
:1025380022F0D00E0001F56FC90EE82EFED7F52F58
:10254800FCD700D00001BE05D8B406D0F1C1F0F028
:10255800F2C1F1F05CEC1BF029EC21F0800EC6EC26
:1025680022F0340E0001F56FF10EE82EFED7F52F9C
:10257800FCD700D0650E0001D46FFF0ED56FC3ECF9
:1025880014F0150E0001F66F4B0EF56FBE0EE82E17
:10259800FED7F52FFCD7F62FFAD700F021EC22F062
:1025A8001BEC23F0000E0001C86FD00EC76F09ECBA
:1025B80023F0000E0001C86F000EC76F09EC23F06E
:1025C80017EC23F01BEC23F0000E0001C86FD10EAE
:1025D800C76F09EC23F0000E0001BC6F000EBB6F43
:1025E800BC5112E1060EBB5DD8B00ED0900EBB25D3
:1025F800D96E000EBC21DA6E000E38EC22F0DF6EC8
:102608000001BB4BBC2BECD7010E38EC22F00001CB
:10261800966F17EC23F092C0F5F00F0E0001F51736
:10262800000EC96F100EC86F92C0C6F0C76B3FECA2
:102638001EF0C6C0CEF0C7C0CFF0000E0001D16FAB
:102648000A0ED06F4DEC22F00001F551CE250101A4
:10265800666F0001000ECF210101676F91C0F5F090
:102668000F0E0001F517000EC96F100EC86F91C04C
:10267800C6F0C76B3FEC1EF0C6C0CEF0C7C0CFF0A7
:10268800000E0001D16F0A0ED06F4DEC22F0000150
:10269800F551CE250101646F0001000ECF21010123
:1026A800656F90C0F5F00F0E0001F517000EC96FA9
:1026B800100EC86F90C0C6F0C76B3FEC1EF0C6C0C6
:1026C800CEF0C7C0CFF0000E0001D16F0A0ED06F58
:1026D8004DEC22F00001F551CE250101626F000199
:1026E800000ECF210101636F29EC21F0650E000176
:1026F800D46FFF0ED56FC3EC14F0150E0001F66F02
:102708004B0EF56FBE0EE82EFED7F52FFCD7F62F31
:10271800FAD700F0800EC6EC22F0340E0001F56FF7
:10272800F10EE82EFED7F52FFCD700D0B10E000130
:10273800D46FFE0ED56FA5C0D6F0A6C0D7F0C3ECF7
:1027480014F00D0E0001F66F2D0EF56FD70EE82E62
:10275800FED7F52FFCD7F62FFAD700D0010EC6EC1E
:1027680022F09C0E0001F56FD70EE82EFED7F52F4C
:10277800FCD7800EC6EC22F0340E0001F56FF10E86
:10278800E82EFED7F52FFCD700D0180E0001D46F25
:10279800FF0ED56FA3C0D6F0A4C0D7F0C3EC14F0D9
:1027A8000D0E0001F66F2D0EF56FD70EE82EFED731
:1027B800F52FFCD7F62FFAD700D0010EC6EC22F081
:1027C8009C0E0001F56FD70EE82EFED7F52FFCD72B
:1027D800800EC6EC22F0340E0001F56FF10EE82EE3
:1027E800FED7F52FFCD700D00F0E0001D46FFE0ED8
:1027F800D56FA1C0D6F0A2C0D7F0C3EC14F00D0E6F
:102808000001F66F2D0EF56FD70EE82EFED7F52FC7
:10281800FCD7F62FFAD700D0010EC6EC22F09C0E9A
:102828000001F56FD70EE82EFED7F52FFCD7800EE6
:10283800C6EC22F0340E0001F56FF10EE82EFED73B
:10284800F52FFCD700D0200E0001D46FFE0ED56FF7
:102858009FC0D6F0A0C0D7F0C3EC14F00D0E000155
:10286800F66F2D0EF56FD70EE82EFED7F52FFCD795
:10287800F62FFAD700D0010EC6EC22F09C0E00010C
:10288800F56FD70EE82EFED7F52FFCD7800EC6ECD5
:1028980022F0340E0001F56FF10EE82EFED7F52F69
:1028A800FCD700D0F28E8B909490F296F086F28E40
:1028B800000E696E010E686E420E0001D46FFE0EA6
:1028C800D56FC3EC14F0C00EC6EC22F0C60E0001A2
:1028D800D46FFD0ED56FC3EC14F0190E0001F66F1E
:1028E8005A0EF56FB10EE82EFED7F52FFCD7F62F4E
:1028F800FAD700D029EC21F0800EC6EC22F0340E75
:102908000001F56FF10EE82EFED7F52FFCD700D0A9
:102918007B0E0001D46FFF0ED56FC3EC14F0C00E10
:10292800C6EC22F0A00E0001D46FFF0ED56FC3ECE9
:1029380014F0050E0001F66F0F0EF56FF10EE82E7C
:10294800FED7F52FFCD7F62FFAD7800EC6EC22F06B
:10295800340E0001F56FF10EE82EFED7F52FFCD7E7
:1029680000D00001B305B411D8A4A1D736EC1CF0EF
:10297800000E0001B86F000EB76F3EEF0FF0D60ED5
:102988000001E66F000EE76F0FD2250EEF19D8B4DD
:1029980004D0EF51BAEC22F007D2000E0001EE6F1E
:1029A800000EED6F000EEC6F04D00001EC85D44BE7
:1029B800D52BD4C0F6FFD5C0F7FFF86A0800F5504C
:1029C800300AD8B4F2D7D4C0F6FFD5C0F7FFF86AFA
:1029D8000800F5509AEC22F0D8A0AED0000E000105
:1029E800EE6F000EED6FEDC0CEF0EEC0CFF0000E32
:1029F8000001D16F0A0ED06F4DEC22F0CEC0EDF081
:102A0800CFC0EEF0D00E0001DE6FFF0EDF6FD4C036
:102A1800F6FFD5C0F7FFF86A0800F550E06FE16BE4
:102A2800DE51E027DF51E123E051ED27E151EE23AC
:102A3800D44BD52BD4C0F6FFD5C0F7FFF86A0800F1
:102A4800F5509AEC22F0D8A077D0CDD70001EC8FC2
:102A58008FD0E6C0D9FFE7C0DAFFDECFE4F0DDCFE4
:102A6800E5F0020EE627000EE723E451E511D8A4AD
:102A780004D0B10EE46FFF0EE56F000EE96F000E93
:102A8800E86F03D00001E84BE92BE851E425DE6F3D
:102A9800E951E521DF6FDEC0F6FFDFC0F7FF000E6A
:102AA800F86E0F0EF76403D00800F55005D0F6CF86
:102AB800E9FFF7CFEAFFEF500009D8A4E3D70001F8
:102AC800ED51E85DEE51E959D8B005D0E851ED5F18
:102AD800E951EE5B08D0000EEE6F000EED6F03D0EB
:102AE800200EBAEC22F00001ED07D8A0EE07ED2980
:102AF800F7E1EE29D8B417D0F3D7E4C0F6FFE5C064
:102B0800F7FF000EF86E0F0EF76403D00800F550BB
:102B180005D0F6CFE9FFF7CFEAFFEF50BAEC22F085
:102B28000001E44BE52BE807D8A0E907E829E5E12F
:102B3800E929D8B439D1E1D7D4C0F6FFD5C0F7FF19
:102B48000001D44BD52BF86A0800F5CFEFF0EF5110
:102B5800000AD8B41200640AD8B40AD00D0AD8B44E
:102B680007D01A0AD8B475D70B0AD8B46FD71CD1B6
:102B78000001ECBF15D0E6C0D9FFE7C0DAFFDECF11
:102B8800EAF0DDCFEBF0020EE627000EE723EBAF0D
:102B98004AD0030EEC13EA6DEB1FD8B0EB2B43D0F1
:102BA800E6C0D9FFE7C0DAFFDECFEAF0DDCFEBF011
:102BB800020EE627000EE72336D0010EEF6F050E52
:102BC800EF19D8B438D0EF51020DDE0EF324F66EAB
:102BD800FC0EF420F76EF86A000EF8220900F55092
:102BE800EA5D0900F550EB59D8A025D0EF2BE7D7BF
:102BF800010EEF6F040EEF19D8B41DD0EF51020D7E
:102C0800E80EF324F66EFC0EF420F76EF86A000E58
:102C1800F8220900F550EA5D0900F550EB59D8A0F3
:102C28000AD0EF2BE7D7EC51800B000AD8B4C5D7F0
:102C3800800AD8B4DDD7ED51EE11D8B409D0ECC074
:102C4800DEF0030EDE17D8B403D0ED07D8A0EE07E8
:102C5800800EEFBF7F0EDE6FED51EF5DEE51800A03
:102C6800DE59D8B007D0EF51ED5F000EEFBFFF0E71
:102C7800EE5B04D0000EEE6F000EED6FECA516D0E3
:102C8800ECC0DEF0030EDE17D8B403D02D0EBAEC7C
:102C980022F00001ED51EE11D8B420D0300EBAEC7C
:102CA80022F00001ED07D8A0EE07F4D7ED51EE11A0
:102CB800D8B40BD0200EBAEC22F00001ED07D8A052
:102CC800EE07ED51EE11D8A4F5D7ECC0DEF0030EF7
:102CD800DE17D8B403D02D0EBAEC22F0EFC0E3F023
:102CE8005ED00001E351020DDE0EF324F66EFC0EF9
:102CF800F420F76EF86A000EF8220900F5CFC8F044
:102D08000A00F5CFC9F0EAC0C6F0EBC0C7F0D6ECB0
:102D180020F0C6C0CDF0C7C0CEF0000E0001D06FC5
:102D28000A0ECF6FBDEC21F00001CD51300FEF6FCF
:102D380033D0EAC0C6F0EBC0C7F0E351020DE80E8D
:102D4800F324F66EFC0EF420F76EF86A000EF822F3
:102D58000900F5CFC8F00A00F5CFC9F0D6EC20F08D
:102D68000001C6510F0BE26FE251010DFE0EF32474
:102D7800F66EFD0EF420F76EF86A000EF8220800D1
:102D8800F5CFEFF009D00001EC51800B000AD8B460
:102D9800A8D7800AD8B4CDD7EF51BAEC22F00001F9
:102DA800E307E329D8A4EFD7D4C0F6FFD5C0F7FFCF
:102DB8000001D44BD52BF86A0800F5CFEFF0EF519E
:102DC800D8B41200E2D50F0E216E000E226EFAD191
:102DD800250E2A18D8B404D02A50E6EC22F0F2D1F5
:102DE800000E296E000E286E000E276E03D0278471
:102DF8000D4A0E2A0DC0F6FF0EC0F7FFF86A08004C
:102E0800F550300AD8B4F3D70DC0F6FF0EC0F7FF5F
:102E1800F86A0800F550ABEC22F0D8A0A6D0000E56
:102E2800296E000E286E28C001F029C002F0000E9D
:102E3800046E0A0E036E75EC22F001C028F002C081
:102E480029F0D00E196EFF0E1A6E0DC0F6FF0EC0D7
:102E5800F7FFF86A0800F5501B6E1C6A19501B260C
:102E68001A501C221B5028261C5029220D4A0E2AB3
:102E78000DC0F6FF0EC0F7FFF86A0800F550ABEC7E
:102E880022F0D8A072D0CFD7278E8AD021C0D9FF00
:102E980022C0DAFFDECF1FF0DDCF20F0020E2126A0
:102EA800000E22221F502010D8A404D0B10E1F6E8D
:102EB800FF0E206E000E246E000E236E02D0234AF1
:102EC800242A23501F24196E245020201A6E19C05A
:102ED800F6FF1AC0F7FF000EF86E0F0EF76403D066
:102EE8000800F55005D0F6CFE9FFF7CFEAFFEF501D
:102EF8000009D8A4E4D72850235C29502458D8B016
:102F080005D02350285E2450295A08D0000E296E77
:102F1800000E286E03D0200EE6EC22F02806D8A07A
:102F280029062828F8E12928D8B416D0F4D71FC0D4
:102F3800F6FF20C0F7FF000EF86E0F0EF76403D0FF
:102F48000800F55005D0F6CFE9FFF7CFEAFFEF50BC
:102F5800E6EC22F01F4A202A2306D8A024062328BC
:102F6800E6E12428D8B42ED1E2D70DC0F6FF0EC072
:102F7800F7FF0D4A0E2AF86A0800F5CF2AF02A5002
:102F8800000AD8B41200640AD8B40AD00D0AD8B41A
:102F980007D01A0AD8B47AD70B0AD8B475D712D181
:102FA80027BE15D021C0D9FF22C0DAFFDECF25F019
:102FB800DDCF26F0020E2126000E222226AE4AD0B0
:102FC800030E2712256C261ED8B0262A43D021C00E
:102FD800D9FF22C0DAFFDECF25F0DDCF26F0020EC2
:102FE8002126000E222236D0010E2A6E050E2A183E
:102FF800D8B438D02A50020DDE0EF324F66EFC0E3B
:10300800F420F76EF86A000EF8220900F550255CE6
:103018000900F5502658D8A025D02A2AE7D7010E4E
:103028002A6E040E2A18D8B41DD02A50020DE80EB4
:10303800F324F66EFC0EF420F76EF86A000EF82200
:103048000900F550255C0900F5502658D8A00AD08B
:103058002A2AE7D72750800B000AD8B4C5D7800A98
:10306800D8B4DDD728502910D8B409D027C019F012
:10307800030E1916D8B403D02806D8A02906800E46
:103088002ABE7F0E196E28502A5C2950800A1958CA
:10309800D8B007D02A50285E000E2ABEFF0E295A43
:1030A80004D0000E296E000E286E27A414D027C065
:1030B80019F0030E1916D8B403D02D0EE6EC22F041
:1030C80028502910D8B41ED0300EE6EC22F028067D
:1030D800D8A02906F5D728502910D8B40AD0200E30
:1030E800E6EC22F02806D8A0290628502910D8A4F2
:1030F800F6D727C019F0030E1916D8B403D02D0E31
:10310800E6EC22F02AC01EF059D01E50020DDE0E49
:10311800F324F66EFC0EF420F76EF86A000EF8221F
:103128000900F5CF03F00A00F5CF04F025C001F03F
:1031380026C002F000EC21F001C008F002C009F03E
:10314800000E0B6E0A0E0A6EDFEC21F00850300FED
:103158002A6E31D025C001F026C002F01E50020DA3
:10316800E80EF324F66EFC0EF420F76EF86A000EF3
:10317800F8220900F5CF03F00A00F5CF04F000ECBF
:1031880021F001500F0B1D6E1D50010DFE0EF32492
:10319800F66EFD0EF420F76EF86A000EF8220800AD
:1031A800F5CF2AF008D02750800B000AD8B4ADD745
:1031B800800AD8B4CFD72A50E6EC22F01E061E2883
:1031C800D8A4F1D70DC0F6FF0EC0F7FF0D4A0E2A9E
:1031D800F86A0800F5CF2AF02A50D8B41200F8D5BA
:1031E8001CD1000E0001816F010E806F000E856FEB
:1031F800010E846F000E896F010E886F000E8D6FAF
:10320800010E8C6F000E476E000E466E000E496E62
:10321800020E486E000E4B6E040E4A6E000E4D6E86
:10322800060E4C6E1200000E0001816F010E806FB9
:10323800000E836F010E826F000E876F010E866F7E
:10324800000E896F010E886F000E8D6F010E8C6F56
:10325800000E476E000E466E000E496E010E486E57
:10326800000E4B6E030E4A6E000E4D6E040E4C6E31
:10327800000E4F6E060E4E6E1200000E0001816F9A
:10328800010E806F000E836F010E826F000E856F36
:10329800010E846F000E896F010E886F000E8B6F10
:1032A800010E8A6F000E8D6F010E8C6F000E476E37
:1032B800000E466E000E496E010E486E000E4B6EF3
:1032C800020E4A6E000E4D6E040E4C6E000E4F6ECE
:1032D800050E4E6E000E516E060E506E1200000E58
:1032E8000001816F010E806F000E836F010E826FE7
:1032F800000E856F010E846F000E876F010E866FBA
:10330800000E896F010E886F000E8B6F010E8A6F99
:10331800000E8D6F010E8C6F000E476E000E466E0C
:10332800000E496E010E486E000E4B6E020E4A6E7C
:10333800000E4D6E030E4C6E000E4F6E040E4E6E58
:10334800000E516E050E506E000E536E060E526E34
:103358001200000E0001816F010E806F000E836F56
:10336800010E826F000E856F010E846F000E876F4D
:10337800010E866F000E896F010E886F000E8B6F2D
:10338800010E8A6F000E8D6F010E8C6F000E8F6F0D
:10339800010E8E6F000E476E000E466E000E496ECF
:1033A800010E486E000E4B6E020E4A6E000E4D6EF8
:1033B800030E4C6E000E4F6E040E4E6E000E516ED4
:1033C800050E506E000E536E060E526E000E556EB0
:1033D800070E546E1200000E0001816F000E806F00
:1033E800000E836F000E826F000E856F000E846FD3
:1033F800000E876F000E866F000E896F000E886FB3
:10340800000E8B6F000E8A6F000E8D6F000E8C6F92
:10341800000E8F6F000E8E6F120001C003F002C005
:1034280004F00450000AD8A4D6D70350040AD8B42C
:10343800D8D6010AD8B4F7D6030AD8B41ED7010AD9
:10344800D8B44DD70F0AD8B484D7C5D717D1000E32
:103458000001816F010E806F000E856F010E846F71
:10346800000E896F010E886F000E8D6F010E8C6F34
:10347800000E476E000E466E000E496E020E486E34
:10348800000E4B6E040E4A6E000E4D6E060E4C6E0C
:103498001200000E816F010E806F000E836F010E07
:1034A800826F000E876F010E866F000E896F010E06
:1034B800886F000E8D6F010E8C6F000E476E000E28
:1034C800466E000E496E010E486E000E4B6E030EDE
:1034D8004A6E000E4D6E040E4C6E000E4F6E060EB8
:1034E8004E6E1200000E816F010E806F000E836F0A
:1034F800010E826F000E856F010E846F000E896FBA
:10350800010E886F000E8B6F010E8A6F000E8D6F93
:10351800010E8C6F000E476E000E466E000E496E4F
:10352800010E486E000E4B6E020E4A6E000E4D6E76
:10353800040E4C6E000E4F6E050E4E6E000E516E50
:10354800060E506E1200000E816F010E806F000E85
:10355800836F010E826F000E856F010E846F000E5F
:10356800876F010E866F000E896F010E886F000E3F
:103578008B6F010E8A6F000E8D6F010E8C6F000E1F
:10358800476E000E466E000E496E010E486E000E24
:103598004B6E020E4A6E000E4D6E030E4C6E000E00
:1035A8004F6E040E4E6E000E516E050E506E000EDC
:1035B800536E060E526E1200000E816F010E806F60
:1035C800000E836F010E826F000E856F010E846FEF
:1035D800000E876F010E866F000E896F010E886FCF
:1035E800000E8B6F010E8A6F000E8D6F010E8C6FAF
:1035F800000E8F6F010E8E6F000E476E000E466E26
:10360800000E496E010E486E000E4B6E020E4A6E99
:10361800000E4D6E030E4C6E000E4F6E040E4E6E75
:10362800000E516E050E506E000E536E060E526E51
:10363800000E556E070E546E1200000E816F000EBC
:10364800806F000E836F000E826F000E856F000E74
:10365800846F000E876F000E866F000E896F000E54
:10366800886F000E8B6F000E8A6F000E8D6F000E34
:103678008C6F000E8F6F000E8E6F1200C6C0C8F0E0
:10368800C7C0C9F00001C951000AD8A4D6D7C8518B
:10369800040AD8B4DCD6010AD8B4FBD6030AD8B4D5
:1036A80021D7010AD8B44FD70F0AD8B485D7C5D7C0
:1036B800350E61EC22F0150E0001F36F4B0EF26F20
:1036C800BE0EE82EFED7F22FFCD7F32FFAD700F064
:1036D800370E61EC22F0150E0001F36F4B0EF26FFE
:1036E800BE0EE82EFED7F22FFCD7F32FFAD700F044
:1036F800390E61EC22F0150E0001F36F4B0EF26FDC
:10370800BE0EE82EFED7F22FFCD7F32FFAD700F023
:103718000B0E61EC22F07CD0010EF46F1E0E9D277B
:10372800000E9E231E0E9B27000E9C231E0E97271D
:10373800000E98231E0E9927000E9A2329EC21F0DB
:10374800800EC6EC22F0340E0001F26FF10EE82E66
:10375800FED7F22FFCD700D0640E0001D46FFD0E07
:10376800D56FADC0D6F0AEC0D7F0A9C0D8F0AAC00A
:10377800D9F0ABC0DAF0ACC0DBF0A7C0DCF0A8C071
:10378800DDF0C3EC14F000019D51F05DF151800AA9
:10379800F26F9E51800AF259D8B004D0360E61EC0F
:1037A80022F003D0000E0001F46F00019B51F05D80
:1037B800F151800AF26F9C51800AF259D8B004D0B6
:1037C800380E61EC22F003D0000E0001F46F000106
:1037D8009951F05DF151800AF26F9A51800AF259BD
:1037E800D8B004D00A0E61EC22F003D0000E00011C
:1037F800F46F00019751F05DF151800AF26F985112
:10380800800AF259D8B004D00C0E61EC22F003D033
:10381800000E0001F46F0001BE05D8B403D0F40512
:10382800D8A47AD7360E61EC22F0380E61EC22F07B
:103838000A0E61EC22F00C0E61EC22F0800EC6EC50
:1038480022F0340E0001F26FF10EE82EFED7F22FAF
:10385800FCD700D0D90E0001D46FFD0ED56FC3EC94
:1038680014F01200000E0001BA6F000EB96F000EBE
:10387800B86F000EB76F000EB26F000EB16F000E7A
:10388800B06F000EAF6F000E5F6E000E5E6E000E22
:1038980001018D6F000E8C6F000E766E000E756E36
:1038A800000E8B6F000E8A6F000E5D6E000E5C6E50
:1038B800000E5B6E000E5A6E000E596E000E586EAA
:1038C800000E576E000E566E000E0001AE6F000E11
:1038D800AD6F000EAC6F000EAB6F000EAA6F000E3E
:1038E800A96F000EA86F000EA76F000E0101696F87
:1038F800000E686F000E616F000E606F000E000111
:10390800BC6F000EBB6FBC5155E1080EBB5DD8B053
:103918001200D890BB35D96EBC35DA6E800ED92628
:10392800000EDA22000EDE6E000EDD6ED890BB357A
:10393800D96EBC35DA6E460ED926000EDA22000E94
:10394800DE6E000EDD6ED890BB35D96EBC35DA6EF2
:10395800300ED926010EDA22000EDE6E000EDD6E64
:10396800D890BB35D96EBC35DA6E100ED926010E4B
:10397800DA22000EDE6E000EDD6ED890BB35D96EF1
:10398800BC35DA6E200ED926010EDA22000EDE6E64
:10399800000EDD6ED890BB35D96EBC35DA6E000EE0
:1039A800D926010EDA22000EDE6E000EDD6EBB4B4C
:1039B800BC2BA9D71200060EF66E460EF76E000E47
:1039C800F86E01EEE9F010EE0CF00900F5CFEEFF0D
:1039D800E550E150FAE14E0EF66E460EF76E000E17
:1039E800F86E00EEFBF010EE04F00900F5CFEEFFE4
:1039F800E550E150FAE1260EF66E460EF76E000E1F
:103A0800F86E00EE77F010EE08F00900F5CFEEFF43
:103A1800E550E150FAE102EE00F0C80EEE6AE80661
:103A2800FDE101EE00F0E90EEE6AE806FDE100EEC8
:103A380080F0460EEE6AE806FDE100EE46F0310E33
:103A4800EE6AE806FDE17F907F9200011FEF0FF01C
:103A58000001F051F111D8B412000B0E61EC22F004
:103A6800000E0001A86F000EA76F25D029EC21F0E9
:103A7800800EC6EC22F0340E0001F26FF10EE82E33
:103A8800FED7F22FFCD700D0640E0001D46FFD0ED4
:103A9800D56FADC0D6F0AEC0D7F0A9C0D8F0AAC0D7
:103AA800D9F0ABC0DAF0ACC0DBF0A7C0DCF0A8C03E
:103AB800DDF0C3EC14F00001BD05D8B40AD0F05114
:103AC800A75DA851800AF26FF151800AF259D8A077
:103AD800CDD70C0E61EC22F012000001F051F1116B
:103AE800D8B41200390E61EC22F0000E0001AC6F60
:103AF800000EAB6F25D029EC21F0800EC6EC22F029
:103B0800340E0001F26FF10EE82EFED7F22FFCD72B
:103B180000D0640E0001D46FFD0ED56FADC0D6F095
:103B2800AEC0D7F0A9C0D8F0AAC0D9F0ABC0DAF0BF
:103B3800ACC0DBF0A7C0DCF0A8C0DDF0C3EC14F02B
:103B48000001BD05D8B40AD0F051AB5DAC51800A74
:103B5800F26FF151800AF259D8A0CDD70A0E61EC64
:103B680022F012000001F051F111D8B41200370E02
:103B780061EC22F0000E0001AA6F000EA96F25D09B
:103B880029EC21F0800EC6EC22F0340E0001F26F11
:103B9800F10EE82EFED7F22FFCD700D0640E0001FC
:103BA800D46FFD0ED56FADC0D6F0AEC0D7F0A9C0AA
:103BB800D8F0AAC0D9F0ABC0DAF0ACC0DBF0A7C02F
:103BC800DCF0A8C0DDF0C3EC14F00001BD05D8B4EA
:103BD8000AD0F051A95DAA51800AF26FF151800A0A
:103BE800F259D8A0CDD7380E61EC22F012000001AE
:103BF800C76F0001C751F00BC66F8C500F0B8C6E4E
:103C0800C6518C108C6E000EF2BE010EC06FF29E73
:103C18008C86420EE82EFED700D08C96A00E00D0DF
:103C2800E82EFDD70001C0B102D0F29E01D0F28E7D
:103C38000001C739F00BC76FC751F00BC66F8C5026
:103C48000F0B8C6EC6518C108C6E000EF2BE010EDE
:103C5800C06FF29E8C86420EE82EFED700D08C965E
:103C6800A00E00D0E82EFDD70001C0B102D0F29E10
:103C780001D0F28E1200000E0001CB6FC9AF06D042
:103C8800C86DC91FD8B0C92B010ECB6FC7AF06D0FE
:103C9800C66DC71FD8B0C72B010ECB1B000ECD6F4A
:103CA800000ECC6FC851C911D8B41CD0010ECA6F10
:103CB80004D0D890C837C937CA2BC9AFFAD7D8901B
:103CC800CC37CD37C851C65DC951C759D8A005D022
:103CD800C851C65FC951C75BCC81D890C933C833B6
:103CE800CA2FEDD7CB51D8B404D0CC6DCD1FD8B0E6
:103CF800CD2BCCC0C6F0CDC0C7F01200026E02506A
:103D0800F00B016E8C500F0B8C6E01508C108C6E6A
:103D1800000EF2BE010E0001C06FF29E8C86420EAC
:103D2800E82EFED700D08C96A00E00D0E82EFDD746
:103D38000001C0B102D0F29E01D0F28E0238F00B21
:103D4800026E0250F00B016E8C500F0B8C6E0150FE
:103D58008C108C6E000EF2BE010E0001C06FF29E38
:103D68008C86420EE82EFED700D08C96A00E00D08E
:103D7800E82EFDD70001C0B102D0F29E01D0F28E2C
:103D8800120035D007C0D9FF08C0DAFFDF50D8B419
:103D980010D007C0D9FF08C0DAFFDF500D6E09C088
:103DA800F6FF0AC0F7FFF86A0800F5500D18D8B4F6
:103DB8001AD009C0F6FF0AC0F7FFF86A0800F550E4
:103DC8000D6E0E6A0D1E0E1E0D4A0E2A07C0D9FF73
:103DD80008C0DAFFDF500F6E0F500D24076E000E7B
:103DE8000E20086E1200074A082A094A0A2A0B06FA
:103DF800D8A00C060B28C6E10C28D8A4C3D7000EFF
:103E0800086E000E076E1200000E0001CE6F000E45
:103E1800CF6F000ED06F000ED16FCA51CB11CC11ED
:103E2800CD11D8B42AD0010ED26F06D0D890CA3797
:103E3800CB37CC37CD37D22BCDAFF8D7D890CE37BC
:103E4800CF37D037D137CA51C65DCB51C759CC51BE
:103E5800C859CD51C959D8A009D0CA51C65FCB514C
:103E6800C75BCC51C85BCD51C95BCE81D890CD33EF
:103E7800CC33CB33CA33D22FE1D7CEC0C6F0CFC0B4
:103E8800C7F0D0C0C8F0D1C0C9F01200000E066E4D
:103E980004AE06D0036C041ED8B0042A010E066EC8
:103EA80002AE06D0016C021ED8B0022A010E061A14
:103EB800000E086E000E076E03500410D8B41CD014
:103EC800010E056E04D0D89003360436052A04AED8
:103ED800FAD7D890073608360350015C04500258C8
:103EE800D8A005D00350015E0450025A0780D8902C
:103EF80004320332052EEDD70650D8B404D0076C2F
:103F0800081ED8B0082A07C001F008C002F0120045
:103F1800000E096E000E0A6E000E0B6E000E0C6E7F
:103F28000550061007100810D8B42AD0010E0D6EDF
:103F380006D0D89005360636073608360D2A08AE5C
:103F4800F8D7D89009360A360B360C360550015C7E
:103F5800065002580750035808500458D8A009D0F2
:103F68000550015E0650025A0750035A0850045A79
:103F78000980D89008320732063205320D2EE1D773
:103F880009C001F00AC002F00BC003F00CC004F035
:103F980012000001F051F111D8B41200350E61EC95
:103FA80022F025D029EC21F0800EC6EC22F0340E48
:103FB8000001F26FF10EE82EFED7F22FFCD700D0E9
:103FC800640E0001D46FFD0ED56FADC0D6F0AEC043
:103FD800D7F0A9C0D8F0AAC0D9F0ABC0DAF0ACC00D
:103FE800DBF0A7C0DCF0A8C0DDF0C3EC14F00001E2
:103FF800BD05D8B40AD0F051AD5DAE51800AF26F5C
:10400800F151800AF259D8A0CDD7360E61EC22F0D2
:104018001200000E066E02AE06D0016C021ED8B069
:10402800022A010E066E04AE04D0036C041ED8B03A
:10403800042A03500410D8B418D0010E056E04D019
:10404800D89003360436052A04AEFAD70350015C2B
:1040580004500258D8A004D00350015E0450025AFC
:10406800D89004320332052EF1D70650D8B404D0C4
:10407800016C021ED8B0022A01C001F002C002F091
:1040880012005DBE06D05D5025E1030E5C5CD8B021
:1040980021D05BBE06D05B501DE1040E5A5CD8B03F
:1040A80019D059BE06D0595015E1030E585CD8B046
:1040B80011D057BE06D057500DE1050E565CD8B04A
:1040C80009D001018BBF0BD08B5104E1050E8A5D2D
:1040D800D8A005D0000E026E000E016E1200000E70
:1040E800026E010E016E1200C69A94869488800EA4
:1040F800C76E280EC66E000EC56E000E0001C66F94
:10410800480EC76FE80EC86F010EC96FD3C0D7F04D
:10411800D4C0D8F0D5C0D9F0D6C0DAF0020ED89005
:10412800D737D837D937DA37E82EF9D7D7C0CAF012
:10413800D8C0CBF0D9C0CCF0DAC0CDF008EC1FF075
:104148000001C605C86E1200C69A94869488800E2F
:10415800C76E280EC66E000EC56E000E016E480EA4
:10416800026EE80E036E010E046E0EC012F00FC050
:1041780013F010C014F011C015F0020ED8901236CA
:10418800133614361536E82EF9D712C005F013C0C9
:1041980006F014C007F015C008F08CEC1FF00104FD
:1041A800C86E1200000E0001CB6F000ECA6FC85116
:1041B800C911D8B41CD0010ECC6F04D0D890C83720
:1041C800C937CC2BC9AFFAD7D890CA37CB37C85123
:1041D800C65DC951C759D8A005D0C851C65FC951D5
:1041E800C75BCA81D890C933C833CC2FEDD7CAC0B2
:1041F800C6F0CBC0C7F01200000E066E000E056EAA
:1042080003500410D8B41CD0010E076E04D0D89007
:1042180003360436072A04AEFAD7D8900536063690
:104228000350015C04500258D8A005D00350015E29
:104238000450025A0580D89004320332072EEDD775
:1042480005C001F006C002F012009C0E0001C96F03
:10425800D70EE82EFED7C92FFCD7330EC6EC22F0B6
:10426800320EC6EC22F0280EC6EC22F00F0EC6EC79
:1042780022F0060EC6EC22F0010EC6EC22F09C0ECF
:104288000001C96FD70EE82EFED7C92FFCD70F0E35
:10429800C6EC22F012009C0E046ED70EE82EFED754
:1042A800042EFCD700F0330EF0EC22F0320EF0ECC6
:1042B80022F0280EF0EC22F00F0EF0EC22F0060EA1
:1042C800F0EC22F0010EF0EC22F09C0E046ED70EFA
:1042D800E82EFED7042EFCD700F00F0EF0EC22F0EB
:1042E800120004D0014A022A034A042A01C0D9FF55
:1042F80002C0DAFFDF50056E03C0F6FF04C0F7FF07
:10430800F86A0800F55000080524066E0650D8A47F
:1043180007D001C0D9FF02C0DAFFDF50D8A4E2D726
:104328000650016E026A01BE0206120007C00BF0B9
:1043380008C00CF004D00B4A0C2A094A0A2A09C002
:10434800F6FF0AC0F7FF000EF86E0BC0D9FF0CC0CD
:10435800DAFF0F0EF76403D00800F55005D0F6CF4A
:10436800E9FFF7CFEAFFEF50DF6EDF50D8B4120055
:10437800E2D70001CF51D011D8B418D0010ED16FB7
:1043880004D0D890CF37D037D12BD0AFFAD7CF5170
:10439800CD5DD051CE59D8A004D0CF51CD5FD051EA
:1043A800CE5BD890D033CF33D12FF1D7CDC0CDF05D
:1043B800CEC0CEF012000A500B10D8B418D0010E9F
:1043C8000C6E04D0D8900A360B360C2A0BAEFAD7EE
:1043D8000A50085C0B500958D8A004D00A50085E4F
:1043E8000B50095AD8900B320A320C2EF1D708C05C
:1043F80008F009C009F0120001C005F002C006F07B
:1044080002D0054A062A05C0D9FF06C0DAFFDF50E8
:10441800D8B405D0F6D7054A062A034A042A03C0A9
:10442800D9FF04C0DAFF05C0E1FF06C0E2FFDFCF15
:10443800E7FFE750D8B41200EED7A00E0001D36F03
:10444800860ED46F010ED56F000ED66F78EC20F073
:104458001BEC23F0000E0001C86F100EC76F09ECAB
:1044680023F017EC23F012000001C76FDCEC22F0F8
:10447800C586DCEC22F0C9CFC8F0DCEC22F00001E4
:10448800C7B102D0C59A01D0C58AC5880001C851F4
:1044980012000001CE51D003F3CFD2F0F4CFD3F005
:1044A800CE51D103F350D327CF51D003F350D327A4
:1044B800D2C0CEF0D3C0CFF012000001C96F1BEC00
:1044C80023F0000E0001C86F100EC76F09EC23F02F
:1044D800C9C0C7F00001C86B09EC23F017EC23F042
:1044E800120001500302F3CF05F0F4CF06F001509B
:1044F8000402F350062602500302F350062605C0B4
:1045080001F006C002F01200026EFAEC22F0C58635
:10451800FAEC22F0C9CF03F0FAEC22F002B002D094
:10452800C59A01D0C58AC588035012000001C86F1A
:10453800000E0001C76F3A0EC86105D02F0EC8657E
:1045480002D0010EC76FC7C0C6F0C6311200036E95
:10455800000E026E3A0E036005D02F0E036402D0DF
:10456800010E026E02C001F0013012000001C86F96
:104578008C840001C851FBEC1DF0A00E00D0E82E81
:10458800FDD712000001C86F8C940001C851FBECE4
:104598001DF0A00E00D0E82EFDD71200F28AF28E90
:1045A800D59CD59AD596D580D582D584D58E12003E
:1045B800C7B4FED7C5CFC6F01F0E0001C617D8B4C2
:1045C8001200F6D7036E8C84035082EC1EF0A00E06
:1045D80000D0E82EFDD71200036E8C94035082ECB5
:1045E8001EF0A00E00D0E82EFDD71200C7B4FED7EB
:1045F800C5CF01F01F0E0116D8B41200F7D704007A
:10460800040004000400B80B0500DCEC22F0C7C06D
:10461800C9FF1200FAEC22F002C0C9FF12000C0B0D
:104628000A3938373635DCEC22F0C5841200DCEC68
:1046380022F0C5801200FAEC22F0C5841200FAECD0
:0A46480022F0C58012000E0D313083
:10FCCC00003132334134353642373839432A302308
:10FCDC00440001000A006400E80310270100100032
:10FCEC0000010010451414001103183031000001FC
:10FCFC000210022842000000004E000000005300D9
:10FD0C000000005700000000424E0000004253006B
:10FD1C000000425700000042424E00004242530095
:10FD2C00004242570000424E570000425357000019
:10FD3C004257570000424E57570042535757004204
:10FD4C004253570042424E5700424E4E5700424ECD
:10FD5C004E4E004257575700423A25642C4E3A25D6
:10FD6C00642C533A25642C573A2564004325643A95
:10FD7C004225642C4E25642C5325642C5725640095
:10FD8C00323A456E74657220496E73747275637481
:10FD9C00696F6E007370616365725F696E74657212
:10FDAC00727570746564007761736865725F696EF3
:10FDBC007465727275707465640020323A204F70ED
:10FDCC0065726174696F6E2054696D650050726F55
:10FDDC006772616D205465726D696E617465730034
:10FDEC005072657373202320746F20737461727466
:10FDFC00210030313233343536373839616263643F
:10FE0C006566005370616365725F72656D61696EE2
:10FE1C003A2564005761736865725F72656D61693C
:10FE2C006E3A256400617373656D626C792073742E
:10FE3C0065703A256400313A204461746520616E26
:10FE4C00642054696D65000A2050726F636573738A
:10FE5C00696E672E2E2E006F7065726174696F6EFD
:10FE6C002074696D653A00313A6461746520616E85
:10FE7C00642074696D65007374617274206F7065B1
:10FE8C00726174696F6E0057726F6E67206E756D5C
:10FE9C00626572212000617373656D626C792073E9
:10FEAC007465703A00426F6C745F72656D61696E57
:10FEBC003A25640070726F63657373696E672043D3
:10FECC00256400626F6C745F696E74657272757014
:10FEDC007400253032782F253032782F2530327847
:10FEEC0000253032783A253032783A253032780095
:10FEFC006368616E6765206D6F64652032006661B2
:10FF0C007374656E6572207365743A004E75745F18
:10FF1C0072656D61696E3A2564006E75745F696E09
:10FF2C00746572727570740025646D696E20256439
:10FF3C007365637300433120697320666F756E645B
:10FF4C0000796F7527726520646F6E650057726F4C
:10FF5C006E6720696E707574005465726D696E61A0
:10FF6C007465210077726F6E67207365742100339E
:10FF7C003A73756D6D61727900636F72726563743B
:10FF8C002100544F4F204D414E5900646F6E652037
:10FF9C0043256400343A72657475726E006E756D2B
:10FFAC006265723A00286E756C6C290077726F6E00
:10FFBC00672100424E4E4E0042424E5700424E4E7A
:10FFCC0057004242535700424E575700425357571F
:10FFDC00004257575700737465700042424E0042FE
:10FFEC0042530042425700425757002573002C00E1
:03FFFC00420000C0
:020000040020DA
:08000000FFFFFFFFFFFFFFFF00
:020000040030CA
:0E000000FF081F1EFF8381FF0F400FE00F401F
:00000001FF
