:0400000051EF67F065
:10CB7600CE00D9EC65F0C5801200D9EC65F0C5840D
:10CB86001200FF0E21EC66F01200036E035021EC3A
:0ECB960066F01200D9EC65F002C0C9FF120073
:10CBA50048656C6C6F20776F726C642100C7B4FEAA
:10CBB500D7C5CF01F01F0E0116D8B41200F7D781E3
:10CBC500A2FED781380F0B0F0B016E81B2FED70184
:10CBD500501200036E8C940350DBEC68F0C80E0015
:10CBE500D0E82EFDD71200036E8C840350DBEC6871
:10CBF500F0C80E00D0E82EFDD71200036E000E021D
:10CC05006E3A0E036005D02F0E036402D0010E02AA
:10CC15006E02C001F001301200015002100310D85D
:10CC2500B406D0000E011A000E021A800E031A0176
:10CC3500C001F002C002F003C003F01200026E0250
:10CC4500C0C9FF9EB602D0010E01D0000E016EC70D
:10CC5500B002D0010E01D0000E0110F3E1C950124F
:10CC650000026ED9EC65F0C586D9EC65F0C9CF0335
:10CC7500F0D9EC65F002B002D0C59A01D0C58AC5DD
:10CC8500880350120009C001F00AC002F0036A8E41
:10CC95000E046E000E056E02EC6BF001C009F00289
:10CCA500C00AF003C00BF0120020EEDAF010EE0619
:10CCB500F00C0EDBCFE3FFE806FCE2060E016E008A
:10CCC5000E026E0D0E036EB5EC6AF012000F5011D8
:10CCD50002F3CF13F0F4CF14F00F501202F35014F7
:10CCE5002610501102F350142613C00FF014C01073
:10CCF500F01200066E0404D8B403D0056A052A01B3
:10CD0500D0056A05468C500518FD0B05188C6E8CF0
:10CD1500900650C8EC65F08C801200056E05C003C6
:10CD2500F00F0E0316D8900336D8900334C26EC2A6
:10CD350080C282C2B2FED7C350C4CF03F0046A03D7
:10CD4500C004F0036A0310016E0450026E12000164
:10CD55006EC69A000EC76E07D0110E03D0120E01D3
:10CD6500D0100EC66E0BD00150040AD8B4F9D714F2
:10CD75000AD8B4F2D7500AD8B4F1D7F2D7949A9416
:10CD8500889496C68A1200116E000E046E000E0578
:10CD95006E000E066E000E076E780EF66EFF0EF72D
:10CDA5006E0800F5506DEC6AF00DC004F00EC0057C
:10CDB500F00FC006F010C007F011506DEC6AF012CC
:10CDC500003D503E103F10D8B406D0000E3D1A006D
:10CDD5000E3E1A800E3F1A3AC02EF03BC02FF03C93
:10CDE500C030F03DC031F03EC032F03FC033F0E11D
:10CDF500EC70F02EC03AF02FC03BF030C03CF01282
:10CE050000C30E046ECD0EE82EFED7042EFCD7000F
:10CE1500F0330EECEC65F0320EECEC65F0280EEC20
:10CE2500EC65F00F0EECEC65F0060EECEC65F00130
:10CE35000EECEC65F0C30E046ECD0EE82EFED704A5
:10CE45002EFCD700F00F0EECEC65F01200076E0D0E
:10CE5500D0000E096E030E03D0000E096E050E08F4
:10CE65006E0DD0000E096E060EFAD707500C0AD8C3
:10CE7500B4EFD71C0AD8B4F0D7020AF3D7010E04D1
:10CE85006E2F0EF66EFF0EF76E0800F5507CEC6601
:10CE9500F0000E046E08507CEC66F01200A50EF64C
:10CEA5006ECB0EF76E000EF86E00EEDAF010EE0D9A
:10CEB500F00900F5CFEEFFE550E150FAE1760EF608
:10CEC5006ECB0EF76E000EF86E0900F5CF7AF009FD
:10CED50000F5CF7BF000EE80F05A0EEE6AE806FD15
:10CEE500E100EE6FF00B0EEE6AE806FDE1000EF8CC
:10CEF5006E000126EF6DF08E0E116E06D0D8900CE7
:10CF0500320B320A320932112A000E09140D6E0055
:10CF15000E0A140E6E000E0B140F6EFF0E0C14107D
:10CF25006E0D500E100F101010D8A4E8D709C001CF
:10CF3500F00AC002F00BC003F011C004F0000E05AA
:10CF45006E02EC6BF001C009F002C00AF003C00BE1
:10CF5500F01200C69A94869488800EC76E280EC675
:10CF65006E000EC56E000E016E5A0E026E620E0345
:10CF75006E020E046E0EC012F00FC013F010C01436
:10CF8500F011C015F0020ED890123613361436156E
:10CF950036E82EF9D712C005F013C006F014C00705
:10CFA500F015C008F01AEC69F00104C86E12006AA9
:10CFB500EC76F0010EECEC65F0C30E686ECD0EE874
:10CFC5002EFED7682EFCD700F0800EECEC65F04104
:10CFD5000E686EEE0EE82EFED7682EFCD700D09BAD
:10CFE5000E406EFF0E416E72EC7AF0C00EECEC65F1
:10CFF500F0F50E406EFF0E416E98C042F099C043A9
:10D00500F09AC044F072EC7AF081B21200FDD7A01C
:10D015000E0E6E860E0F6E010E106E000E116EACAA
:10D02500EC67F0BCEC65F0000E036ED00E026ECD21
:10D03500EC65F0000E036E000E026ECDEC65F0009F
:10D045000E166E060E166401D010D01650010DF5A1
:10D055000EF324F66EFE0EF420F76E0800F550026E
:10D065006E036ACDEC65F0162AECD7C0EC65F012BC
:10D07500000550061007100810D8B424D0010E0979
:10D085006E06D0D8900536063607360836092A08C2
:10D09500AEF8D70550015C065002580750035808F2
:10D0A500500458D8A008D00550015E0650025A0712
:10D0B50050035A0850045AD89008320732063205F0
:10D0C50032092EE7D701C001F002C002F003C00308
:10D0D500F004C004F01200E0EC72F0400E156E0092
:10D0E5000E166E800E176E140EF66EFF0EF76E0995
:10D0F50000F5CF18F00900F5CF19F00900F5CF1AA2
:10D10500F00A00F5CF1BF0000E21EC70F0800E1533
:10D115006E000E166E800E176EFC0EF66EFE0EF786
:10D125006E0900F5CF18F00900F5CF19F00900F5E3
:10D13500CF1AF00A00F5CF1BF0400E21EC70F0126B
:10D1450000000E066E02AE06D0016C021ED8B002BB
:10D155002A010E066E04AE04D0036C041ED8B0047A
:10D165002A03500410D8B418D0010E056E04D0D887
:10D175009003360436052A04AEFAD70350015C0441
:10D18500500258D8A004D00350015E0450025AD86A
:10D195009004320332052EF1D70650D8B404D001DD
:10D1A5006C021ED8B0022A01C001F002C002F012C2
:10D1B50000026E0250F00B016E8C500F0B8C6E014D
:10D1C500508C108C6E000EF2BE010E786EF29E8CA5
:10D1D50086530EE82EFED700F08C96C80E00D0E8D8
:10D1E5002EFDD778B002D0F29E01D0F28E0238F033
:10D1F5000B026E0250F00B016E8C500F0B8C6E0102
:10D20500508C108C6E000EF2BE010E786EF29E8C64
:10D2150086530EE82EFED700F08C96C80E00D0E897
:10D225002EFDD778B002D0F29E01D0F28E1200000A
:10D235000E096E000E0A6E000E0B6E000E0C6E05CA
:10D2450050061007100810D8B42AD0010E0D6E062E
:10D25500D0D89005360636073608360D2A08AEF8BA
:10D26500D7D89009360A360B360C360550015C06C0
:10D275005002580750035808500458D8A009D00543
:10D2850050015E0650025A0750035A0850045A09C5
:10D2950080D89008320732063205320D2EE1D709C3
:10D2A500C001F00AC002F00BC003F00CC004F0127C
:10D2B50000000E0C6E0AAE06D0096C0A1ED8B00A24
:10D2C5002A010E0C6E08AE06D0076C081ED8B008F1
:10D2D5002A010E0C1A000E0E6E000E0D6E09500A74
:10D2E50010D8B41CD0010E0B6E04D0D89009360AA4
:10D2F500360B2A0AAEFAD7D8900D360E36095007E6
:10D305005C0A500858D8A005D00950075E0A500895
:10D315005A0D80D8900A3209320B2EEDD70C50D811
:10D32500B404D00D6C0E1ED8B00E2A0DC007F00E39
:10D33500C008F01200000E016E5A0E026E620E0356
:10D345006E020E046E0FC013F010C014F011C0155C
:10D35500F012C016F0060ED8901336143615361690
:10D3650036E82EF9D713C005F014C006F015C0072E
:10D37500F016C008F059EC6BF00104AF6EAC9CAC34
:10D3850098AC8AAB9CAB8820EE08F07A50D9267B06
:10D3950050DA22010EDF6E20EE09F07A50D9267B95
:10D3A50050DA22010EDF6EBE0E0001D26F000E00B4
:10D3B50001D36F949C948EAB8E12000B0EC16E013F
:10D3C5000EECEC65F0C30E686ECD0EE82EFED76848
:10D3D5002EFCD700F0800EECEC65F0410E686EEE89
:10D3E5000EE82EFED7682EFCD700D0E10E406EFF6A
:10D3F5000E416E020E90EC66F001C042F002C04391
:10D40500F072EC7AF0C00EECEC65F0EB0E406EFFBE
:10D415000E416E030E90EC66F001C042F002C0436F
:10D42500F072EC7AF0060E696E130E686EAE0EE8B9
:10D435002EFED7682EFCD7692EFAD781A2C0D70F4A
:10D445000EC16E120003AE16D001C007F002C0086F
:10D45500F003C009F0071E081E091E072A000E0862
:10D46500220922000E0724016E000E0820026E809C
:10D475000E0920036E06AE16D004C007F005C008DD
:10D48500F006C009F0071E081E091E072A000E082F
:10D49500220922000E0724046E000E0820056E8066
:10D4A5000E0920066E000E011A000E021A800E03E8
:10D4B5001A000E041A000E051A800E061A045001F1
:10D4C5005C0550025806500358D8B002D0D89012C7
:10D4D50000D88012000A6E000E0C6E8D94C4EC65A7
:10D4E500F0FF0AD8A4FBD70A504009C8EC65F0073D
:10D4F5000E086E000E096E0BD008C0D9FF09C0DA00
:10D50500FFDF50C8EC65F00806D8A009060C2A0311
:10D515000E0C64F2D7860EF66EFF0EF76E0800F558
:10D52500500A6209D0850EF66EFF0EF76E0800F5FB
:10D5350050C8EC65F008D0880EF66EFF0EF76E0841
:10D5450000F550C8EC65F0000E0C6EC4EC65F00BF0
:10D555006E0C2A080E0C6003D00B28D8B4F6D78DB4
:10D56500840B50120020EE08F07A50D9267B50DA51
:10D5750022DF50D8B4F7D720EE08F07A50D9267BB1
:10D5850050DA22000EDF6E000E056EAC8A410E04E5
:10D595006EEE0EE82EFED7042EFCD700D023D0ACBD
:10D5A500B202D0010E01D0000E046E9EB802D00169
:10D5B5000E01D0000E0410F3E100F0000EF2BE01E2
:10D5C5000E796EF29E0550010DF3500124D96EF4CB
:10D5D500500220DA6EDF50AD6E79B002D0F29E01B6
:10D5E500D0F28E052A0350055CD8A0D9D720EE08C5
:10D5F500F07A50D9267B50DA22010EDF6E12000434
:10D6050050D8B405D0015002100310D8A40CD00096
:10D615000E016E000E026E000E036E1200042AD873
:10D6250090033202320132000E0114066E000E0222
:10D6350014076EFE0E0314086E065007100810D866
:10D64500B40CD0ECD7042A010E0126000E022200EC
:10D655000E0322D890033202320132000E01140665
:10D665006E000E0214076EFF0E0314086E065007B7
:10D67500100810D8B406D0E6D70406D890013602B3
:10D6850036033602BE03D0020E0460F6D704A002AC
:10D695009ED8900432045003120550D8A4038E017D
:10D6A500C001F002C002F003C003F01200000E0A30
:10D6B5006E08AE0AD0081E071E061E056C000E0673
:10D6C5002207220822010E0A6E04AE0AD0041E03A8
:10D6D5001E021E016C000E022203220422010E0A04
:10D6E5001A000E0B6E000E0C6E000E0D6E000E0E67
:10D6F5006E0550061007100810D8B42AD0010E097F
:10D705006E06D0D8900536063607360836092A083B
:10D71500AEF8D7D8900B360C360D360E36055001BF
:10D725005C065002580750035808500458D8A00901
:10D73500D00550015E0650025A0750035A0850049E
:10D745005A0B80D8900832073206320532092EE18D
:10D75500D70A50D8B408D00E1E0D1E0C1E0B6C0037
:10D765000E0C220D220E220BC001F00CC002F00D92
:10D77500C003F00EC004F012000EC012F0136A14BC
:10D785006A0D34123601E313801250196E1950D800
:10D79500A407D0000E0C6E000E0D6E000E0E6E125C
:10D7A5000011C012F0136A146A1034123601E31323
:10D7B5008012501A6E1A50D8A407D0000E0C6E00B5
:10D7C5000E0D6E000E0E6E1200000E166E000E1778
:10D7D5006E000E186E1A50890F195E0EC01AF011E0
:10D7E500501A1A800E1A160D8EFF0E0C16FF0E0D0E
:10D7F50016000E0E16108EFF0E0F16FF0E101600D9
:10D805000E1116180E156ED8901636173618360FD7
:10D81500500C5C10500D5811500E58D8A007D00F61
:10D82500500C5E10500D5A11500E5A1680D8900C9F
:10D83500360D360E36152EE7D716C001F017C00285
:10D84500F018C003F019C004F01AC005F002EC6B23
:10D85500F001C00CF002C00DF003C00EF012002D57
:10D86500C02FF0306A316A2C342F3601E330802F17
:10D8750050396E3950D8A409D0000E2B6E000E2CED
:10D885006E000E2D6E000E2E6E1200170E2F6E2BD3
:10D89500C030F02CC031F02DC032F02F28336E048B
:10D8A500D0D890323231323032332EFAD73050342C
:10D8B5006E2C8EFF0E2B16FF0E2C16000E2D162B22
:10D8C50050356E2C50366E2D50376E386A8E0E39A7
:10D8D5005E39AE16D03950800A8F0FD8B009D00006
:10D8E5000E2B6E000E2C6E000E2D6E000E2E6E127F
:10D8F50000D8903832373236323532393EF9D715BD
:10D90500D0170E39640FD0000E2B6E000E2C6E0052
:10D915000E2D6E000E2E6E1200D890353636363727
:10D9250036383639063950D8A4F7D73450D8B40824
:10D93500D0381E371E361E356C000E36223722387B
:10D945002235C02BF036C02CF037C02DF038C02E54
:10D95500F0120017C01BF01C6A1D6A16341B360135
:10D96500E31C801B501E6E1E50D8A407D0000E1558
:10D975006E000E166E000E176E12001AC01BF01CFC
:10D985006A1D6A19341B3601E31C801B50236E2364
:10D9950050D8A407D0000E156E000E166E000E1797
:10D9A5006E120023507B0F1E2617C023F01A50233A
:10D9B5001A800E2316168E198EFF0E1816FF0E19D5
:10D9C50016000E1A16000E1F6E000E206E000E2198
:10D9D5006E070E226E15A006D018501F261950206E
:10D9E500221A502122D890173216321532D89018A3
:10D9F5003619361A36222EEED7090E226E15A006D6
:10DA0500D018501F26195020221A502122D89017BD
:10DA15003216321532D890213220321F32222EEEA4
:10DA2500D71FC001F020C002F021C003F01EC004C2
:10DA3500F023C005F002EC6BF001C015F002C01632
:10DA4500F003C017F01200000E896E000E8A6E00FA
:10DA55000E8B6E000E8C6E000E8D6E9268F20E931C
:10DA65006E800E946E010E956E040E966E000EC2BB
:10DA75006E0F0EC16EC08E000EB56EB496B10EC09F
:10DA85006E03EC67F0800E0F6E250E106E000E1102
:10DA95006E000E126E9DEC69F0010EECEC65F0C3A4
:10DAA5000E6C6ECD0EE82EFED76C2EFCD700F080E6
:10DAB5000EECEC65F0410E6C6EEE0EE82EFED76CAA
:10DAC5002EFCD700D0D60E406EFF0E416E72EC7A5A
:10DAD500F0C00EECEC65F0CA0E406EFF0E416E72A2
:10DAE500EC7AF00D0E6D6EAF0E6C6EB60EE82EFE76
:10DAF500D76C2EFCD76D2EFAD700D0E2EC65F06E10
:10DB05006E15D00AEC68F0C8D7B0EC6DF0C5D76ECD
:10DB1500EC68F0C2D7DAEC67F0BFD770EC6FF0BCF9
:10DB2500D757EC66F0B9D7E0EC69F0B6D76E500080
:10DB35000AD8B4E7D7010AD8B4E7D7030AD8B4E7B7
:10DB4500D7060AD8B4E7D7010AD8B4E7D7030AD865
:10DB5500B4E7D7010AD8B4E7D79FD7A00E0E6E86D3
:10DB65000E0F6E010E106E000E116EACEC67F0BC60
:10DB7500EC65F0000E036ED00E026ECDEC65F00084
:10DB85000E036E000E026ECDEC65F0C0EC65F0BCC8
:10DB9500EC65F0000E036ED10E026ECDEC65F00063
:10DBA5000E6B6E050E6B6401D00ED06B50010D6FC0
:10DBB5000EF324D96E000EF420DA6E000E33EC66F7
:10DBC500F0DF6E6B2AEED7010E33EC66F0756EC092
:10DBD500EC65F0010EECEC65F0C30E686ECD0EE859
:10DBE5002EFED7682EFCD700F0800EECEC65F041D8
:10DBF5000E686EEE0EE82EFED7682EFCD700D0AC70
:10DC05000E406EFF0E416E75C042F0436A74C0440B
:10DC1500F0456A73C046F0476A72EC7AF0C00EECC4
:10DC2500EC65F0BB0E406EFF0E416E71C042F043D5
:10DC35006A70C044F0456A6FC046F0476A72EC7A74
:10DC4500F0000E6A6E000E696E6ABE06D06A508FCD
:10DC5500E1640E695CD8B08BD7820E686EDE0EE883
:10DC65002EFED7682EFCD781A203D081A21200FD1B
:10DC7500D7694A6A2A6ABEF0D76A5001E1E9D777BF
:10DC8500D7033404340C6E0C50D8A409D0000E010F
:10DC95006E000E026E000E036E000E046E1200067C
:10DCA5003407340B6E0B50D8A409D0000E016E005A
:10DCB5000E026E000E036E000E046E1200038EFF40
:10DCC5000E0116FF0E0216FF0E0316000E041606B1
:10DCD5008EFF0E0416FF0E0516FF0E0616000E0724
:10DCE50016000E076E000E086E000E096E000E0A75
:10DCF5006E7F0E0C5E0B50A00F0C5E200E0B6ED8C7
:10DD0500900736083609360A360450015C0550027C
:10DD1500580650035807500458D8A009D00450019C
:10DD25005E0550025A0650035A0750045A0780D818
:10DD35009001360236033604360B2EE1D70CAE16AB
:10DD4500D00C50800A9F0FD8B009D0000E016E008C
:10DD55000E026E000E036E000E046E1200D8900ABD
:10DD6500320932083207320C3EF9D715D01F0E0C96
:10DD7500640FD0000E016E000E026E000E036E00E1
:10DD85000E046E1200D8900736083609360A360C8E
:10DD9500060C50D8A4F7D707C001F008C002F00957
:10DDA500C003F00AC004F0120003C007F0086A09B6
:10DDB5006A0234073601E3088007500F6E0F50D80A
:10DDC500A409D0000E016E000E026E000E036E0057
:10DDD5000E046E120006C007F0086A096A053407CA
:10DDE5003601E3088007500E6E0E50D8A409D00006
:10DDF5000E016E000E026E000E036E000E046E1212
:10DE050000028EFF0E0116FF0E0216000E03160508
:10DE15008EFF0E0416FF0E0516000E0616000E0ADE
:10DE25006E000E0B6E000E0C6E000E0D6E7F0E0F4B
:10DE35005E0E50980F0F5E180E0E6ED8900A360BB8
:10DE4500360C360D360450015C0550025806500359
:10DE550058D8A007D00450015E0550025A06500359
:10DE65005A0A80D8900136023603360E2EE6D70FB1
:10DE7500AE16D00F50800A970FD8B009D0000E010A
:10DE85006E000E026E000E036E000E046E1200D8B8
:10DE9500900D320C320B320A320F3EF9D715D017DE
:10DEA5000E0F640FD0000E016E000E026E000E0301
:10DEB5006E000E046E1200D8900A360B360C360D25
:10DEC500360F060F50D8A4F7D70AC001F00BC002D1
:10DED500F00CC003F00DC004F01200410E016EEE0F
:10DEE5000EE82EFED7012EFCD700D0AC9AAB98AB2E
:10DEF5009EC69A000E896E000E8A6E000E8B6E000D
:10DF05000E8C6E000E8D6E000E926E000E936E00DE
:10DF15000E946E000E956E000E966E000E046E0049
:10DF25000E036E800E036E000E046E070E04640170
:10DF3500D012D003C089FFD89003321A0E026E5E4C
:10DF45000E016E6E0EE82EFED7012EFCD7022EFABC
:10DF5500D700D0042AEAD7000E896E800E036E0022
:10DF65000E046E070E046401D012D003C08AFFD8D8
:10DF75009003321A0E026E5E0E016E6E0EE82EFED4
:10DF8500D7012EFCD7022EFAD700D0042AEAD700F3
:10DF95000E8A6E800E036E000E046E070E04640179
:10DFA500D012D003C08BFFD89003321A0E026E5EDA
:10DFB5000E016E6E0EE82EFED7012EFCD7022EFA4C
:10DFC500D700D0042AEAD7000E8B6E800E036E00B0
:10DFD5000E046E070E046401D012D003C08CFFD866
:10DFE5009003321A0E026E5E0E016E6E0EE82EFE64
:10DFF500D7012EFCD7022EFAD700D0042AEAD70083
:10E005000E8C6E040E036E000E046E020E04640187
:10E01500D012D003C08DFFD89003321A0E026E5E67
:10E025000E016E6E0EE82EFED7012EFCD7022EFADB
:10E03500D700D0042AEAD7000E8D6E6FD7276E76EB
:10E04500BC76AA05D0030E1626030E172615D07624
:10E05500AE08D0020E1626020E1726030E2726033B
:10E065000E0ED076AC07D0020E1626020E17262706
:10E075002A152A06D0162A172A020E2726020E1559
:10E0850026010E046E370EF66EFF0EF76E0800F5CC
:10E09500507CEC66F0000E046E000E7CEC66F00021
:10E0A5000E046E27507CEC66F0000E046E000E7CAC
:10E0B500EC66F0000E046E15047CEC66F0010E04AF
:10E0C5006E380EF66EFF0EF76E0800F5507CEC66A6
:10E0D500F0000E046E000E7CEC66F0000E046E1669
:10E0E500507CEC66F0000E046E000E7CEC66F000D1
:10E0F5000E046E17047CEC66F0010E046E360EF607
:10E105006EFF0EF76E0800F5507CEC66F027501593
:10E1150018D8A414D016501718D8A410D0000E047F
:10E125006E18507CEC66F0000E046E19507CEC669F
:10E13500F0000E046E1A507CEC66F0120027501C9D
:10E145006E1D6A1C1E1D1E1C4A1D2A15501C240FFF
:10E155006E000E1D20106E16501E6E1F6A1E1E1FAD
:10E165001E1E4A1F2A17501E24116E000E1F201254
:10E175006E69EC66F00FC020F010C021F018C024C5
:10E18500F019C025F01AC026F08C908C82000E2361
:10E195006E000E226E0BD02450C8EC65F02550C8D9
:10E1A500EC65F02650C8EC65F0224A232A2050225F
:10E1B5005C21502358D8A0EFD78C80120030C03492
:10E1C500F0356A366A2F34343601E33580345039F8
:10E1D5006E33C034F0356A366A3234343601E3358D
:10E1E500803450386E3950D8B40BD03850395CD89B
:10E1F500B00ED0395000083824346E180E34640738
:10E20500D031C02EF032C02FF033C030F0120038BC
:10E2150050D8B40BD03950385CD8B00ED038500037
:10E22500083924346E180E346407D02EC02EF02F12
:10E23500C02FF030C030F01200060E376E30BE37FA
:10E245008E33BE378C2F8EFF0E2E16FF0E2F160027
:10E255000E3016328EFF0E3116FF0E3216000E33BB
:10E26500163850395CD8B01BD0D890313632363399
:10E2750036380639503818D8B40DD0370637C0347B
:10E28500F0070E3416D8B406D0EFD7D89030322F19
:10E29500322E32392A38503918D8B41FD0F6D7392A
:10E2A50050385CD8B01AD0D8902E362F3630363943
:10E2B5000639503818D8B40DD0370637C034F007B2
:10E2C5000E3416D8B406D0EFD7D890333232323167
:10E2D50032382A38503918D8A4F7D737AE0CD0FFC2
:10E2E5000E2E1AFF0E2F1AFF0E301A010E2E2600C3
:10E2F5000E2F22000E302237AC0CD0FF0E311AFF44
:10E305000E321AFF0E331A010E3126000E3222008C
:10E315000E3322000E376E2E5031262F503222300A
:10E3250050332233AE0ED0FF0E311AFF0E321AFFD4
:10E335000E331A010E3126000E3222000E33220151
:10E345000E376E31C001F032C002F033C003F03930
:10E35500C004F037C005F002EC6BF001C02EF002EE
:10E36500C02FF003C030F012002D6E6D0E2D649F8E
:10E37500D0000E126E030E116E000E0A6E0A0E0903
:10E385006E000E046E640E036E2DC001F0026AA3CA
:10E39500EC68F001C007F002C008F05BEC69F00919
:10E3A5000E07240F6E000E0820106E69EC66F0AEA5
:10E3B5000E0F24F66EFE0E1020F76E0900F5CF182D
:10E3C500F00900F5CF19F00A00F5CF1AF0000E0A92
:10E3D5006E640E096E2DC007F0086A5BEC69F012D9
:10E3E5000E07240F6E000E0820106E000E126E032D
:10E3F5000E116E69EC66F0AE0E0F24F66EFE0E1071
:10E4050020F76E0900F5CF15F00900F5CF16F00AD3
:10E4150000F5CF17F0ACEC6CF015C02AF016C02B48
:10E42500F017C02CF0000E126E030E116E000E04D4
:10E435006E0A0E036E2DC001F0026AA3EC68F001AE
:10E44500C00FF002C010F069EC66F0AE0E0F24F6B6
:10E455006EFE0E1020F76E0900F5CF18F00900F5D5
:10E46500CF19F00A00F5CF1AF02AC015F02BC01607
:10E47500F02CC017F0ACEC6CF015C027F016C028D6
:10E48500F017C029F027C015F028C016F029C017CD
:10E49500F0000E186E000E196E3F0E1A6EACEC6C85
:10E4A500F015C024F016C025F017C026F012000A9A
:10E4B5000E2D6463D0000E126E030E116E000E0455
:10E4C5006E0A0E036E2DC001F0026AA3EC68F0011E
:10E4D500C00FF002C010F069EC66F0AE0E0F24F626
:10E4E5006EFE0E1020F76E0900F5CF18F00900F545
:10E4F500CF19F00A00F5CF1AF0000E0A6E0A0E09C0
:10E505006E2DC007F0086A5BEC69F0090E07240F51
:10E515006E000E0820106E000E126E030E116E694D
:10E52500EC66F0AE0E0F24F66EFE0E1020F76E09A7
:10E5350000F5CF15F00900F5CF16F00A00F5CF1755
:10E54500F0ACEC6CF015C02AF016C02BF017C02CFF
:10E55500F02AC015F02BC016F02CC017F0000E18CD
:10E565006E000E196E3F0E1A6EACEC6CF015C024E1
:10E57500F016C025F017C026F012002D50030DAE81
:10E585000EF324F66EFE0EF420F76E0900F5CF1596
:10E59500F00900F5CF16F00A00F5CF17F0000E18B8
:10E5A5006E000E196E3F0E1A6EACEC6CF015C024A1
:10E5B500F016C025F017C026F012008C808C8295CD
:10E5C500909592040EAAEC66F0020E296E040E28B0
:10E5D5006EBA0EE82EFED7282EFCD7292EFAD700C4
:10E5E500D0010E046E420EF66EFF0EF76E0800F5B2
:10E5F500507CEC66F0070E296E990E286E490EE8E0
:10E605002EFED7282EFCD7292EFAD700F0010E04AE
:10E615006E400EF66EFF0EF76E0800F5507CEC6648
:10E62500F0070E296E990E286E490EE82EFED728A2
:10E635002EFCD7292EFAD700F0010E046E2E0EF609
:10E645006EFF0EF76E0800F5507CEC66F0000E04C8
:10E655006E000E7CEC66F0000E046E060E7CEC6619
:10E66500F0000E046E030E7CEC66F0010E046E2DB8
:10E675000EF66EFF0EF76E0800F5507CEC66F000A6
:10E685000E046E010E7CEC66F0000E046E2C0E7C02
:10E69500EC66F0000E046E2D0E7CEC66F0010E04A7
:10E6A5006E2C0EF66EFF0EF76E0800F5507CEC66CC
:10E6B500F0000E046E010E7CEC66F0000E046E2C6C
:10E6C5000E7CEC66F0000E046E2D0E7CEC66F001FF
:10E6D5000E046E2B0EF66EFF0EF76E0800F5507CDD
:10E6E500EC66F0000E046E000E7CEC66F0010E0484
:10E6F5006E2A0EF66EFF0EF76E0800F5507CEC667E
:10E70500F0000E046EA20E7CEC66F0000E046E02A4
:10E715000E7CEC66F0000E046E840E7CEC66F00157
:10E725000E046E290EF66EFF0EF76E0800F5507C8E
:10E73500EC66F0000E046EC50E7CEC66F0010E046E
:10E745006E280EF66EFF0EF76E0800F5507CEC662F
:10E75500F0000E046E0A0E7CEC66F0000E046E00EE
:10E765000E7CEC66F0010E046E270EF66EFF0EF7BA
:10E775006E0800F5507CEC66F0000E046E8A0E7C87
:10E78500EC66F0000E046E2A0E7CEC66F0010E04B9
:10E795006E260EF66EFF0EF76E0800F5507CEC66E1
:10E7A500F0000E046E8A0E7CEC66F0000E046E2AF4
:10E7B5000E7CEC66F0010E046E250EF66EFF0EF76C
:10E7C5006E0800F5507CEC66F0000E046E3C0E7C85
:10E7D500EC66F0010E046E3D0EF66EFF0EF76E0848
:10E7E50000F5507CEC66F0120E29EC67F0010E0482
:10E7F5006E3B0EF66EFF0EF76E0800F5507CEC666C
:10E80500F0000E046E010E7CEC66F0010E046E3114
:10E815000EF66EFF0EF76E0800F5507CEC66F00103
:10E825000E046E3E0EF66EFF0EF76E0800F5507C78
:10E83500EC66F0768C768E768A7698769676940166
:10E845000E046E320EF66EFF0EF76E0800F5507C64
:10E85500EC66F0000E046E76507CEC66F0650EF604
:10E865006EFF0EF76E0800F5CF15F0000E166E64FC
:10E875000EF66EFF0EF76E0800F5CF17F0200EF6B8
:10E885006EFF0EF76E0900F5CF18F00900F5CF19E8
:10E89500F00900F5CF1AF00A00F5CF1BF0000E21A4
:10E8A500EC70F0010E046E390EF66EFF0EF76E0871
:10E8B50000F5507CEC66F0820E286EDE0EE82EFE2A
:10E8C500D7282EFCD712002A6E2AAE01D12A6C2A2F
:10E8D50050800A120FD8A091D0000E126E030E11AF
:10E8E5006E000E0A6E0A0E096E000E046E640E03AB
:10E8F5006E2A50016E026A01BE0206A3EC68F001A1
:10E90500C007F002C008F05BEC69F0090E07240FA0
:10E915006E000E0820106E69EC66F0AE0E0F24F640
:10E925006EFE0E1020F76E0900F5CF18F00900F500
:10E93500CF19F00A00F5CF1AF0000E0A6E640E0921
:10E945006E2A50076E086A07BE08065BEC69F0126E
:10E955000E07240F6E000E0820106E000E126E03B7
:10E965000E116E69EC66F0AE0E0F24F66EFE0E10FB
:10E9750020F76E0900F5CF15F00900F5CF16F00A5E
:10E9850000F5CF17F0ACEC6CF015C027F016C028D9
:10E99500F017C029F027C015F028C016F029C017B8
:10E9A500F0000E126E030E116E000E046E0A0E03B9
:10E9B5006E2A50016E026A01BE0206A3EC68F001E0
:10E9C500C00FF002C010F069EC66F0AE0E0F24F631
:10E9D5006EFE0E1020F76E0900F5CF18F00900F550
:10E9E500CF19F00A00F5CF1AF0ACEC6CF015C02485
:10E9F500F016C025F017C026F012002A50800A75BF
:10EA05000FD8A053D0000E0A6E0A0E096E2A5007C1
:10EA15006E086A07BE08065BEC69F0090E07240F4D
:10EA25006E000E0820106E000E126E030E116E6938
:10EA3500EC66F0AE0E0F24F66EFE0E1020F76E0992
:10EA450000F5CF15F00900F5CF16F00A00F5CF1740
:10EA5500F0000E126E030E116E000E046E0A0E0308
:10EA65006E2A50016E026A01BE0206A3EC68F0012F
:10EA7500C00FF002C010F069EC66F0AE0E0F24F680
:10EA85006EFE0E1020F76E0900F5CF18F00900F59F
:10EA9500CF19F00A00F5CF1AF0ACEC6CF015C024D4
:10EAA500F016C025F017C026F012002A50030DAE4F
:10EAB5000EF324F66EFE0EF420F76E0900F5CF2452
:10EAC500F00900F5CF25F00A00F5CF26F012002A4F
:10EAD50050800A120FD8A091D0000E126E030E11AD
:10EAE5006E000E0A6E0A0E096E000E046E640E03A9
:10EAF5006E2A50016E026A01BE0206A3EC68F0019F
:10EB0500C007F002C008F05BEC69F0090E07240F9E
:10EB15006E000E0820106E69EC66F0870E0F24F665
:10EB25006EFE0E1020F76E0900F5CF18F00900F5FE
:10EB3500CF19F00A00F5CF1AF0000E0A6E640E091F
:10EB45006E2A50076E086A07BE08065BEC69F0126C
:10EB55000E07240F6E000E0820106E000E126E03B5
:10EB65000E116E69EC66F0870E0F24F66EFE0E1020
:10EB750020F76E0900F5CF15F00900F5CF16F00A5C
:10EB850000F5CF17F0ACEC6CF015C027F016C028D7
:10EB9500F017C029F027C015F028C016F029C017B6
:10EBA500F0000E126E030E116E000E046E0A0E03B7
:10EBB5006E2A50016E026A01BE0206A3EC68F001DE
:10EBC500C00FF002C010F069EC66F0870E0F24F656
:10EBD5006EFE0E1020F76E0900F5CF18F00900F54E
:10EBE500CF19F00A00F5CF1AF0ACEC6CF015C02483
:10EBF500F016C025F017C026F012002A50800A75BD
:10EC05000FD8A053D0000E0A6E0A0E096E2A5007BF
:10EC15006E086A07BE08065BEC69F0090E07240F4B
:10EC25006E000E0820106E000E126E030E116E6936
:10EC3500EC66F0870E0F24F66EFE0E1020F76E09B7
:10EC450000F5CF15F00900F5CF16F00A00F5CF173E
:10EC5500F0000E126E030E116E000E046E0A0E0306
:10EC65006E2A50016E026A01BE0206A3EC68F0012D
:10EC7500C00FF002C010F069EC66F0870E0F24F6A5
:10EC85006EFE0E1020F76E0900F5CF18F00900F59D
:10EC9500CF19F00A00F5CF1AF0ACEC6CF015C024D2
:10ECA500F016C025F017C026F012002A50030D8774
:10ECB5000EF324F66EFE0EF420F76E0900F5CF2450
:10ECC500F00900F5CF25F00A00F5CF26F01200D3A4
:10ECD500CF45F09BCF46F020EEAEF010EE4BF00F97
:10ECE5000EDBCFE3FFE806FCE29B909B929B949B97
:10ECF500969B98D3508F0B6009D36E030ED3129B4E
:10ED05008C04D0420EE82EFED700D0D3A4FAD7400B
:10ED15000EAAEC66F0020E3B6E040E3A6EBA0EE8D1
:10ED25002EFED73A2EFCD73B2EFAD700D08D8496EF
:10ED350094000E606E090E606401D005D0FF0EC808
:10ED4500EC65F0602AF7D78D94000E046E000E0571
:10ED55006E000E066E000E076E890EF66EFF0EF73C
:10ED65006E0800F5506DEC6AF03A6E720EF66EFFA5
:10ED75000EF76E0800F5503A18D8A4E6D7AA0E0487
:10ED85006E010E056E000E066E000E076E860EF6FF
:10ED95006EFF0EF76E0800F5506DEC6AF05F6E8D34
:10EDA50094000E606E030E606401D00DD0605001BA
:10EDB5000D4B0EF324D96E000EF420DA6EC4EC650B
:10EDC500F0DF6E602AEFD78D84710EF66EFF0EF7B9
:10EDD5006E0800F5CF3AF05F503A143B6E710EF6AF
:10EDE5006EFF0EF76E0800F5503B18D8A42CD00125
:10EDF5000E0001806F000E046E000E056E000E06FB
:10EE05006E000E076E770EF66EFF0EF76E0800F5B4
:10EE1500506DEC6AF08D94000E606E030E60640117
:10EE2500D00DD06050010D4B0EF324D96E000EF4B9
:10EE350020DA6EC4EC65F0DF6E602AEFD78D844D65
:10EE450004D8A4120012D0720EF66EFF0EF76E08EB
:10EE550000F5505F6293D74D04D8A41200AA0E4E58
:10EE650018D8A41200020E0001806F00018005D899
:10EE7500B408D0000E416E000E426E000E436E4087
:10EE85000E07D0000E416E000E426E000E436E005E
:10EE95000E446E41C00DF042C00EF043C00FF04469
:10EEA500C010F0740EF66EFF0EF76E0800F550C632
:10EEB500EC66F05F6E730EF66EFF0EF76E0800F5EA
:10EEC500505F18D8B413D0710EF66EFF0EF76E08AA
:10EED50000F5CF3AF05F503A143B6E710EF66EFFB7
:10EEE5000EF76E0800F5503B18D8A4D3D7710EF66F
:10EEF5006EFF0EF76E0800F5CF3AF05F503A143BFF
:10EF05006E710EF66EFF0EF76E0800F5503B18D8C1
:10EF1500A41CD000018005D8A414D0020E000181E4
:10EF25006F000E046E000E056E000E066E000E07D5
:10EF35006E870EF66EFF0EF76E0800F5506DEC6AE3
:10EF4500F004D0000E00019B6F1200020E0001813B
:10EF550019D8B427D0000E046E000E056E000E06FB
:10EF65006E000E076E770EF66EFF0EF76E0800F553
:10EF7500506DEC6AF08D94C4EC65F0C00BC00AD8F6
:10EF8500A402D0010E01D0000E0001816F000E60B9
:10EF95006E020E606401D004D0C4EC65F0602AF8FE
:10EFA500D78D84000E046E020E056E000E066E00EF
:10EFB5000E076E800EF66EFF0EF76E0800F5506DAB
:10EFC500EC6AF03A6E730EF66EFF0EF76E0800F5FA
:10EFD500503A18D8A4E6D7020E0001936F000E929E
:10EFE5006F000E046E000E056E000E066E000E0715
:10EFF5006E840EF66EFF0EF76E0800F5506DEC6A26
:10F00500F08D94C4EC65F03A6E700EF66EFF0EF757
:10F015006E0800F5503A18D8A4F4D7000E606E0FAC
:10F025000E606401D00DD06050010D4B0EF324D954
:10F035006E000EF420DA6EC4EC65F0DF6E602AEF28
:10F04500D7C4EC65F0C4EC65F08D84020E00018038
:10F0550019D8A46CD0010E5424476E486A000E4896
:10F0650022496A000E49224A6A000E4A2253503B41
:10F075006E3A6A3AC03CF03BC03DF0000E3DBEFF23
:10F085000E3E6E3F6E3C5047123D5048123E504971
:10F09500123F504A1252C03AF03F0E3A163AC03B60
:10F0A500F03C6A3D6A3E6A3CC03EF03BC03DF03CE8
:10F0B5006A3B6A3B5047123C5048123D5049123E4C
:10F0C500504A1247C009F048C00AF049C00BF04A3F
:10F0D500C00CF07EEC67F009C015F00AC016F00B05
:10F0E500C017F0380E186E060E196E3F0E1A6EAC6C
:10F0F500EC6CF015C098F016C099F017C09AF000A6
:10F105000E186E000E196E450E1A6E98C015F09900
:10F11500C016F09AC017F0ACEC6CF015C02BF016C9
:10F12500C02CF017C02DF032EC6CF0BED051C03AB7
:10F13500F0030E3A163AC03BF03C6A3D6A3E6A045B
:10F145000ED8903B363C363D363E36E82EF9D73B59
:10F15500C05BF03CC05CF03DC05DF03EC05EF0526F
:10F16500503A6E3B6AD8903A363B36D8903A363BA1
:10F17500363AC03CF03BC03DF0000E3DBEFF0E3EB2
:10F185006E3F6E3C505B123D505C123E505D123F2F
:10F19500505E1253C03AF0D8903A32D8903A323095
:10F1A5000E3A16010E3A243B6E3C6A000E3C223D97
:10F1B5006A000E3D223E6A000E3E223B505B123C29
:10F1C500505C123D505D123E505E1254C03AF00341
:10F1D5000E3A163B6A55AE01D03B2A3B303A343CD9
:10F1E5006E020E3C265BC03DF05CC03EF05DC03F4C
:10F1F500F05EC040F03C2A05D0D8903D363E363F03
:10F205003640363C2EF9D73DC05BF03EC05CF03F42
:10F21500C05DF040C05EF050C03AF00F0E3A165B8C
:10F22500C03BF05CC03CF05DC03DF05EC03EF03AD6
:10F235002A05D0D8903B363C363D363E363A2EF937
:10F24500D73BC05BF03CC05CF03DC05DF03EC05EAE
:10F25500F05BC009F05CC00AF05DC00BF05EC00C4D
:10F26500F07EEC67F009C098F00AC099F00BC09ADF
:10F27500F092C009F093C00AF045EC66F009C00FA2
:10F28500F00AC010F00BC011F098C00CF099C00D39
:10F29500F09AC00EF0BFEC6BF00CC02BF00DC02C3B
:10F2A500F00EC02DF032EC6CF02BC094F02CC09514
:10F2B500F02DC096F02EC097F0000E046E000E05DE
:10F2C5006E000E066E000E076E830EF66EFF0EF7CD
:10F2D5006E0800F5506DEC6AF08D94C4EC65F05F36
:10F2E5006E700EF66EFF0EF76E0800F5505F62F554
:10F2F500D7000E606E0F0E606401D00DD060500116
:10F305000D4B0EF324D96E000EF420DA6EC4EC65B5
:10F31500F0DF6E602AEFD7C4EC65F0C4EC65F08DC4
:10F32500844BC082F04C503A6E4D500001836F3AC9
:10F33500C084F04EC089F04FC03AF03B6A3C6A3D4C
:10F345006A3AC03DF03C6A3B6A3A6A3AC085F03B8E
:10F35500C086F03CC087F03DC088F050C03AF03B15
:10F365006A3C6A3D6A3BC03DF03AC03CF03B6A3AB4
:10F375006A3A50000185133B50000186133C50004A
:10F385000187133D500001881351C03AF03B6A3C98
:10F395006A3D6A3CC03DF03BC03CF03AC03BF03AA8
:10F3A5006A3A50000185133B50000186133C50001A
:10F3B5000187133D500001881352500001851353F6
:10F3C500C08AF054C03AF03B6A3C6A3D6A3AC03D97
:10F3D500F03C6A3B6A3A6A3AC08BF03BC08CF03C21
:10F3E500C08DF03DC08EF055C03AF03B6A3C6A3D99
:10F3F5006A3BC03DF03AC03CF03B6A3A6A3A50007D
:10F40500018B133B5000018C133C5000018D133DC3
:10F415005000018E1356C03AF03B6A3C6A3D6A3C87
:10F42500C03DF03BC03CF03AC03BF03A6A3A500070
:10F43500018B133B5000018C133C5000018D133D93
:10F445005000018E13575000018B1358500F0B3A83
:10F455006E595000018F6F3AC090F05A50FE0B0064
:10F4650001916F8D84C69A100EC66E45C0D3FF46B6
:10F47500C09BFF04D0420EE82EFED700D0D3A4FADD
:10F48500D7C68A010E0001A46F000E0001A06F000F
:10F495000EA16F000EA26F000EA36F000E00019C5F
:10F4A5006F000E9D6F000E9E6F000E9F6F010E0088
:10F4B50001AD6F000E0001A96F000EAA6F000EAB23
:10F4C5006F000EAC6F000E0001A56F000EA66F0059
:10F4D5000EA76F000EA86F010E00019B6F12004270
:10F4E5000E526E000E536E21EF7FF0250E6718D871
:10F4F500B405D06750F6EC65F021EF7FF0000E61A2
:10F505006E000E606E000E5F6E000E5E6E03D05EC6
:10F5150084404A412A40C0F6FF41C0F7FF0800F584
:10F5250050300AD8B4F4D740C0F6FF41C0F7FF0801
:10F5350000F55000EC66F0D8A032D0000E616E00E8
:10F545000E606E60C00FF061C010F0000E126E0A02
:10F555000E116E69EC66F00FC060F010C061F0D05E
:10F565000E486EFF0E496E40C0F6FF41C0F7FF081A
:10F5750000F5504A6E4B6A48504A2649504B224A7C
:10F585005060264B506122404A412A40C0F6FF4157
:10F59500C0F7FF0800F55000EC66F0D8B0D2D740B0
:10F5A500C0F6FF41C0F7FF0800F5502E0AD8A42E7B
:10F5B500D05F8C404A412A000E666E000E656E1BB8
:10F5C500D065C00FF066C010F0000E126E0A0E1165
:10F5D5006E69EC66F040C0F6FF41C0F7FF0800F524
:10F5E500500F26000E1022D00E0F24656EFF0E1050
:10F5F50020666E404A412A40C0F6FF41C0F7FF0829
:10F6050000F55000EC66F0D8A009D0DAD7000E66F8
:10F615006E000E656E5F8802D05F8413D040C0F621
:10F62500FF41C0F7FF404A412A0800F5CF67F06760
:10F6350050000AD8B41200660AD8B4EED71E0AD80C
:10F64500A4FDD3070E5F14D8B4EED25FA804D00092
:10F655000E666E060E656E52C0D9FF53C0DAFFDE28
:10F66500CF62F0DECF63F0DDCF64F0030E522600EB
:10F675000E532264AE10D062C001F063C002F06484
:10F68500C003F00FEC66F001C062F002C063F00346
:10F69500C064F0030E5E12000E5D6E000E5C6E62BD
:10F6A5005063106410D8B483D0820E486EFF0E49A3
:10F6B5006E62C04AF063C04BF064C04CF065C04D4B
:10F6C500F0100E05D0D8904D324C324B324A32E80C
:10F6D5002EF9D74A5048245C6E000E49205D6E5CB9
:10F6E50006D8A05D065CC00FF05DC010F0000E12DC
:10F6F5006E030E116E69EC66F00FC05CF010C05D14
:10F70500F05CC007F05DC008F0000E0A6E0A0E0935
:10F715006E5BEC69F007C05CF008C05DF05DAE03A0
:10F72500D05C06D8A05D065C50000866EC74F02439
:10F73500C058F025C059F026C05AF058C015F059E8
:10F74500C016F05AC017F062C018F063C019F06413
:10F75500C01AF0ACEC6CF015C058F016C059F01793
:10F76500C05AF058C001F059C002F05AC003F00069
:10F775000E046E800E056E3F0E066E25EC6AF0D8FF
:10F78500B004D05C06D8A05D0612D058C001F0596F
:10F79500C002F05AC003F0000E046E200E056E4143
:10F7A5000E066E25EC6AF0D8A002D05C4A5D2A668A
:10F7B500BE06D066501BE10D0E655CD8B017D06251
:10F7C500C02EF063C02FF064C030F06550B7EC7107
:10F7D500F024C031F025C032F026C033F0E1EC70E2
:10F7E500F02EC062F02FC063F030C064F05DBE063D
:10F7F500D05D501EE10A0E5C5CD8B01AD062506331
:10F80500106410D8B451D062C02BF063C02CF064E2
:10F81500C02DF032EC6CF02B502C102D102E10D882
:10F82500B45DBE42D05D5004E1020E5C5CD8A03CE4
:10F83500D058C001F059C002F05AC003F0700E0450
:10F845006E890E056E400E066E25EC6AF0D8B00284
:10F85500D0F70E01D0F80E5C26FF0E5D225C5066D7
:10F86500EC74F024C058F025C059F026C05AF06257
:10F87500C001F063C002F064C003F058C004F05941
:10F88500C005F05AC006F0D7EC6EF001C054F00286
:10F89500C055F003C056F004C057F0000E626E006C
:10F8A5000E636E000E646E32D062C02BF063C02C06
:10F8B500F064C02DF032EC6CF02BC054F02CC05528
:10F8C500F02DC056F02EC057F062C03AF063C03B31
:10F8D500F064C03CF054C009F055C00AF056C00BA6
:10F8E500F057C00CF07EEC67F009C03DF00AC03E51
:10F8F500F00BC03FF0E3EC66F03AC062F03BC0634A
:10F90500F03CC064F0000E5D6E000E5C6E010E678B
:10F915006E0A0E6718D8B418D06750040D5F0EF341
:10F9250024F66EFE0EF420F76E0900F550545C09BE
:10F9350000F55055580900F55056580900F550572F
:10F9450058D8A002D0672AE4D767C048F0496A486A
:10F95500BE490665504826665049225C5048265DDA
:10F965005049224850605E4950615A65506610D82A
:10F97500B403D06006D8A06106030E5E14486E007D
:10F985000E5F14496E48504910D8B403D06006D8AC
:10F99500A061065EA422D0030E5E14486E000E5FC1
:10F9A50014496E48504910D8B40AD02D0EF6EC65AE
:10F9B500F006D0300EF6EC65F06006D8A061066161
:10F9C500BE65D06150F6E16004D8A060D0F2D720C2
:10F9D5000EF6EC65F06006D8A0610661BE05D06143
:10F9E50050F6E16004D8B0F3D7030E5E14486E00FC
:10F9F5000E5F14496E48504910D8B448D02D0EF604
:10FA0500EC65F044D054C001F055C002F056C00377
:10FA1500F057C004F06750040D5F0EF324F66EFE38
:10FA25000EF420F76E0900F5CF05F00900F5CF06B5
:10FA3500F00900F5CF07F00A00F5CF08F01AEC69D8
:10FA4500F001C058F002C059F003C05AF004C05B81
:10FA5500F058C001F059C002F05AC003F05BC00471
:10FA6500F00A0E056E000E066E000E076E000E08FB
:10FA75006E3BEC68F001C058F002C059F003C05A63
:10FA8500F004C05BF05850300FF6EC65F067066780
:10FA950028D8B407D0B7D7300EF6EC65F05C06D899
:10FAA500A05D065DBE05D05D50F6E15C04D8B0F3FF
:10FAB500D766BE09D0665004E1090E655CD8A0037F
:10FAC500D0080E676E02D065C067F06750655E00AE
:10FAD5000E67BEFF0E665A6750D8B403D02E0EF6D9
:10FAE500EC65F0675066EC74F024C04EF025C04F0D
:10FAF500F026C050F062C018F063C019F064C01A57
:10FB0500F04EC015F04FC016F050C017F0ACEC6CBD
:10FB1500F015C02BF016C02CF017C02DF032EC6C90
:10FB2500F02BC054F02CC055F02DC056F02EC05708
:10FB3500F06AD054C001F055C002F056C003F0572A
:10FB4500C004F06750040D5F0EF324F66EFE0EF44C
:10FB550020F76E0900F5CF05F00900F5CF06F0098D
:10FB650000F5CF07F00A00F5CF08F01AEC69F001AF
:10FB7500C058F002C059F003C05AF004C05BF058F9
:10FB8500C001F059C002F05AC003F05BC004F00A8E
:10FB95000E056E000E066E000E076E000E086E3B1B
:10FBA500EC68F001C058F002C059F003C05AF004E7
:10FBB500C05BF05850300FF6EC65F054C001F055BD
:10FBC500C002F056C003F057C004F06750040D5F43
:10FBD5000EF324F66EFE0EF420F76E0900F5CF0540
:10FBE500F00900F5CF06F00900F5CF07F00A00F59A
:10FBF500CF08F03BEC68F001C054F002C055F003AB
:10FC0500C056F004C057F067066728D8B407D091EE
:10FC1500D7300EF6EC65F06506D8A0660665506629
:10FC250010D8B40CD1F5D752C0D9FF53C0DAFFDED6
:10FC3500CF48F0DDCF49F048C054F049C055F056E3
:10FC45006A576A020E5226000E532265506610D876
:10FC5500A408D05450551056105710D8A402D0659A
:10FC65004A662A010E676E080E6718D8B418D06761
:10FC750050040DD50EF324F66EFE0EF420F76E0932
:10FC850000F550545C0900F55055580900F55056DB
:10FC9500580900F5505758D8A002D0672AE4D780F4
:10FCA5000E67BE7F0E486E6550675C6650800A48D9
:10FCB50058D8B003D065C067F010D06650800A48A8
:10FCC5006E6750655C800E67BE7F0E4858D8B005DC
:10FCD500D06750656E666A65BE660660506110D86D
:10FCE500B40DD0030E5E14486E000E5F14496E48C5
:10FCF500504910D8B403D06006D8A061065FAC1394
:10FD0500D06050655C6650800A486E6150800A4834
:10FD150058D8B005D06550605E6650615A04D00071
:10FD25000E616E000E606E800E67BE7F0E486E60BF
:10FD350050675C6150800A4858D8B007D06750605A
:10FD45005E000E67BEFF0E615A04D0000E616E00A4
:10FD55000E606E5EA418D0030E5E14486E000E5F32
:10FD650014496E48504910D8B403D02D0EF6EC65F1
:10FD7500F060506110D8B45AD0300EF6EC65F060E2
:10FD850006D8A06106F5D760506110D8B40AD02016
:10FD95000EF6EC65F06006D8A0610660506110D8DB
:10FDA500A4F6D7030E5E14486E000E5F14496E4824
:10FDB500504910D8B43BD02D0EF6EC65F037D05431
:10FDC500C001F055C002F056C003F057C004F065FD
:10FDD500C048F066C049F0D89048364936D89048B2
:10FDE500364936D50E4824F66EFE0E4920F76E09C3
:10FDF50000F5CF05F00900F5CF06F00900F5CF07AE
:10FE0500F00A00F5CF08F01AEC69F001500F0B511C
:10FE15006E5150010D8A0EF324F66EFF0EF420F795
:10FE25006E0800F5CF67F06750F6EC65F06506D80B
:10FE3500A066066528C4E16628D8A4C1D740C0F6E7
:10FE4500FF41C0F7FF404A412A0800F5CF67F06738
:10FE550050D8B4120078EF7AF000010000000A00D3
:10FE6500000064000000E803000010270000A086E1
:10FE7500010040420F008096980000E1F50500CA98
:10FE85009A3B00803F00204100C842007A44401C54
:10FE95004650C34724744997184BBCBE4C6B6E4EF5
:10FEA50003155079AD60F3497100803FCDCC3DD746
:10FEB500233C12833AB7D138C62737388635C0D6A2
:10FEC50033CC2B32708930E7DB2EE53C1E42A20D88
:10FED50001000000100000000001000000100000FB
:10FEE50000000100000010000000000100000010EB
:10FEF50045592300311217D300940082004B00FFAF
:10FF050000000000FF000000FFFF00008CFF000064
:10FF150000FF00FFFFFF008080800000000000C799
:10FF2500C5C4C3C2C1C0B4B3B2B13A393836353429
:10FF3500302C2B2A2928262120131211100100C745
:10FF4500C5C4C3C2C1C0B4B3B2B13A393836353409
:10FF5500302C2B2A2928262120131211100100806C
:10FF650080A080000102100228FDFCFE040100298A
:10FF750017163A3726212019181211100D0C0A09E7
:10FF850087080195003031323334353637383961D9
:10FF9500626364656600534420436172642073752F
:10FFA50063636573732100253032782F25303278ED
:10FFB5002F2530327800253032783A253032783A9C
:10FFC500253032780050726573732061206B657936
:10FFD50000424F4152442054455354005241323A55
:10FFE50020252E3378005241333A20252E337800D0
:0AFFF50053697A653A202566000082
:020000040020DA
:08000000FFFFFFFFFFFFFFFF00
:020000040030CA
:0E000000FF061F1EFF8381FF0F400FE00F4021
:00000001FF
