:0400000007EF00F016
:0A0008004B820DED08F043EF0AF003
:10100000003132334134353642373839432A3023C0
:0910100044000001021002280056
:10101A000600FACF04F0FBCF05F0E9CF06F0EACFDD
:10102A0007F0E1CF08F0E2CF09F0D9CF0AF0DACF22
:10103A000BF0F3CF0CF0F4CF0DF0F6CF0EF0F7CFA4
:10104A000FF0F8CF10F0F5CF11F09EA844D0000EA3
:10105A00F2BE010E2B6EF29E20EE03F04950D92605
:10106A004A50DA22DF50016E0150010D49C0D9FF02
:10107A004AC0DAFFDECF02F0DDCF03F0F3500224DC
:10108A00D96EF4500320DA6EDF50AD6E2BB002D069
:10109A00F29E01D0F28E20EE03F04950D9264A5032
:1010AA00DA22DF2A20EE02F04950D9264A50DA2203
:1010BA0010EE03F04950E1264A50E222DE50E618CB
:1010CA00D8A409D09D9820EE08F04950D9264A5054
:1010DA00DA22010EDF6E9EAA65D0ABA408D020EEFC
:1010EA000AF04950D9264A50DA22010E07D020EEDA
:1010FA000AF04950D9264A50DA22000EDF6E000E55
:10110A00F2BE010E2B6EF29E20EE07F04950D92650
:10111A004A50DA22DF50016E0150010D20EE04F030
:10112A004950D9264A50DA22DECF02F0DDCF03F049
:10113A00F3500224D96EF4500320DA6EAECFDFFFEB
:10114A002BB002D0F29E01D0F28EABA203D0AB98A4
:10115A00AB8808D020EE0BF04950D9264A50DA2243
:10116A00000EDF6E20EE07F04950D9264A50DA22E7
:10117A00DF2A20EE06F04950D9264A50DA2210EE2C
:10118A0007F04950E1264A50E222DE50E65CD8A038
:10119A0009D09D9A20EE09F04950D9264A50DA2200
:1011AA00010EDF6E11C0F5FF10C0F8FF0FC0F7FF88
:1011BA000EC0F6FF0DC0F4FF0CC0F3FF0BC0DAFF40
:1011CA000AC0D9FF09C0E2FF08C0E1FF07C0EAFF71
:1011DA0006C0E9FF05C0FBFF04C0FAFF4B921100ED
:1011EA00000E896E000E8A6E000E8B6E000E8C6EDB
:1011FA00000E8D6E92689368800E946E000E956E46
:10120A00000E966E000EC26E0F0EC16E1DEC0AF035
:10121A00800E246E250E256E000E266E000E276E99
:10122A00000E126E5A0E136E620E146E020E156EB8
:10123A0024C020F025C021F026C022F027C023F0C8
:10124A00060ED8902036213622362336E82EF9D7D4
:10125A0020C016F021C017F022C018F023C019F0E0
:10126A0078EC09F01204AF6EAC9CAC98AC8A410ED3
:10127A00206EEE0EE82EFED7202EFCD700D0AB9CB7
:10128A00AB88949C948EAB8E81A29EBA01D0FCD777
:10129A009EAA0AD0AECF28F0ABA202D0AB98AB88F8
:1012AA0028505EEC0AF0F0D781380F0B0F0B296E2D
:1012BA0081B2FED7ACB202D0010E01D0000E206E70
:1012CA009EB802D0010E01D0000E2010F3E1295081
:1012DA00010D010EF324F66E100EF420F76E0800CD
:1012EA00F5CFADFFD1D7000E1B6E19AE0AD0191E6D
:1012FA00181E171E166C000E172218221922010E2C
:10130A001B6E15AE0AD0151E141E131E126C000E8B
:10131A00132214221522010E1B1A000E1C6E000E37
:10132A001D6E000E1E6E000E1F6E1650171018103E
:10133A001910D8B42AD0010E1A6E06D0D8901636D3
:10134A001736183619361A2A19AEF8D7D8901C3615
:10135A001D361E361F361650125C17501358185079
:10136A00145819501558D8A009D01650125E1750A3
:10137A00135A1850145A1950155A1C80D8901932F9
:10138A001832173216321A2EE1D71B50D8B408D0A9
:10139A001F1E1E1E1D1E1C6C000E1D221E221F2239
:1013AA001CC012F01DC013F01EC014F01FC015F0AF
:1013BA001200136E1350F00B126E8C500F0B8C6EC2
:1013CA0012508C108C6E000EF2BE010E2A6EF29E26
:1013DA008C86530EE82EFED700F08C96C80E00D0ED
:1013EA00E82EFDD72AB002D0F29E01D0F28E133831
:1013FA00F00B136E1350F00B126E8C500F0B8C6E99
:10140A0012508C108C6E000EF2BE010E2A6EF29EE5
:10141A008C86530EE82EFED700F08C96C80E00D0AC
:10142A00E82EFDD72AB002D0F29E01D0F28E120029
:10143A00C30E156ECD0EE82EFED7152EFCD700F082
:10144A00330E68EC0AF0320E68EC0AF0280E68ECEB
:10145A000AF00F0E68EC0AF0060E68EC0AF0010EAC
:10146A0068EC0AF0C30E156ECD0EE82EFED7152EC7
:10147A00FCD700F00F0E68EC0AF01200E40EF66ECC
:10148A00140EF76E000EF86E0900F5CF49F0090048
:10149A00F5CF4AF000EE2AF01F0EEE6AE806FDE1EB
:1014AA004B904B92000EF86E100EF76E0001F5EF9E
:1014BA0008F0146E8C841450DEEC09F0C80E00D0CB
:1014CA00E82EFDD71200146E8C941450DEEC09F04D
:0C14DA00C80E00D0E82EFDD712003D0027
:020000040020DA
:08000000FFFFFFFFFFFFFFFF00
:020000040030CA
:0E000000FF061F1EFF8381FF0F400FE00F4021
:00000001FF
